{
	"data": {
		"bytecode": {
			"linkReferences": {},
			"object": "60806040523480156200001157600080fd5b50600060019054906101000a900460ff168062000039575060008054906101000a900460ff16155b6200007b576040517f08c379a000000000000000000000000000000000000000000000000000000000815260040162000072906200011c565b60405180910390fd5b60008060019054906101000a900460ff161590508015620000cc576001600060016101000a81548160ff02191690831515021790555060016000806101000a81548160ff0219169083151502179055505b8015620000ee5760008060016101000a81548160ff0219169083151502179055505b506200019e565b600062000104602e836200013e565b915062000111826200014f565b604082019050919050565b600060208201905081810360008301526200013781620000f5565b9050919050565b600082825260208201905092915050565b7f496e697469616c697a61626c653a20636f6e747261637420697320616c72656160008201527f647920696e697469616c697a6564000000000000000000000000000000000000602082015250565b6156c280620001ae6000396000f3fe608060405234801561001057600080fd5b50600436106102065760003560e01c806370a082311161011a578063a217fddf116100ad578063d505accf1161007c578063d505accf1461063b578063d547741f14610657578063dd62ed3e14610673578063e63ab1e9146106a3578063f1127ed8146106c157610206565b8063a217fddf146105a1578063a457c2d7146105bf578063a9059cbb146105ef578063c3cda5201461061f57610206565b80638e539e8c116100e95780638e539e8c146104f357806391d148541461052357806395d89b41146105535780639ab24eb01461057157610206565b806370a082311461047f5780637ecebe00146104af5780638129fc1c146104df5780638456cb59146104e957610206565b80633644e5151161019d5780633f4ba83a1161016c5780633f4ba83a146103db578063587cde1e146103e55780635c19a95c146104155780635c975abb146104315780636fcfff451461044f57610206565b80633644e5151461034157806336568abe1461035f578063395093511461037b5780633a46b1a8146103ab57610206565b806323b872dd116101d957806323b872dd146102a7578063248a9ca3146102d75780632f2ff15d14610307578063313ce5671461032357610206565b806301ffc9a71461020b57806306fdde031461023b578063095ea7b31461025957806318160ddd14610289575b600080fd5b61022560048036038101906102209190613eff565b6106f1565b60405161023291906144e1565b60405180910390f35b61024361076b565b6040516102509190614655565b60405180910390f35b610273600480360381019061026e9190613d85565b6107fd565b60405161028091906144e1565b60405180910390f35b61029161081b565b60405161029e91906149b2565b60405180910390f35b6102c160048036038101906102bc9190613c90565b610825565b6040516102ce91906144e1565b60405180910390f35b6102f160048036038101906102ec9190613e92565b61091d565b6040516102fe91906144fc565b60405180910390f35b610321600480360381019061031c9190613ebf565b61093d565b005b61032b610966565b6040516103389190614a11565b60405180910390f35b61034961096f565b60405161035691906144fc565b60405180910390f35b61037960048036038101906103749190613ebf565b61097e565b005b61039560048036038101906103909190613d85565b610a01565b6040516103a291906144e1565b60405180910390f35b6103c560048036038101906103c09190613d85565b610aad565b6040516103d291906149b2565b60405180910390f35b6103e3610b42565b005b6103ff60048036038101906103fa9190613c23565b610b7f565b60405161040c91906144c6565b60405180910390f35b61042f600480360381019061042a9190613c23565b610be9565b005b610439610bfd565b60405161044691906144e1565b60405180910390f35b61046960048036038101906104649190613c23565b610c14565b60405161047691906149f6565b60405180910390f35b61049960048036038101906104949190613c23565b610c69565b6040516104a691906149b2565b60405180910390f35b6104c960048036038101906104c49190613c23565b610cb2565b6040516104d691906149b2565b60405180910390f35b6104e7610d03565b005b6104f1610f01565b005b61050d60048036038101906105089190613f2c565b610f3e565b60405161051a91906149b2565b60405180910390f35b61053d60048036038101906105389190613ebf565b610f95565b60405161054a91906144e1565b60405180910390f35b61055b611000565b6040516105689190614655565b60405180910390f35b61058b60048036038101906105869190613c23565b611092565b60405161059891906149b2565b60405180910390f35b6105a96111a5565b6040516105b691906144fc565b60405180910390f35b6105d960048036038101906105d49190613d85565b6111ac565b6040516105e691906144e1565b60405180910390f35b61060960048036038101906106049190613d85565b611297565b60405161061691906144e1565b60405180910390f35b61063960048036038101906106349190613dc5565b6112b5565b005b61065560048036038101906106509190613ce3565b6113b9565b005b610671600480360381019061066c9190613ebf565b6114de565b005b61068d60048036038101906106889190613c50565b611507565b60405161069a91906149b2565b60405180910390f35b6106ab61158e565b6040516106b891906144fc565b60405180910390f35b6106db60048036038101906106d69190613e52565b6115b2565b6040516106e89190614997565b60405180910390f35b60007f7965db0b000000000000000000000000000000000000000000000000000000007bffffffffffffffffffffffffffffffffffffffffffffffffffffffff1916827bffffffffffffffffffffffffffffffffffffffffffffffffffffffff191614806107645750610763826116c3565b5b9050919050565b60606036805461077a90614df9565b80601f01602080910402602001604051908101604052809291908181526020018280546107a690614df9565b80156107f35780601f106107c8576101008083540402835291602001916107f3565b820191906000526020600020905b8154815290600101906020018083116107d657829003601f168201915b5050505050905090565b600061081161080a61172d565b8484611735565b6001905092915050565b6000603554905090565b6000610832848484611900565b6000603460008673ffffffffffffffffffffffffffffffffffffffff1673ffffffffffffffffffffffffffffffffffffffff168152602001908152602001600020600061087d61172d565b73ffffffffffffffffffffffffffffffffffffffff1673ffffffffffffffffffffffffffffffffffffffff168152602001908152602001600020549050828110156108fd576040517f08c379a00000000000000000000000000000000000000000000000000000000081526004016108f490614877565b60405180910390fd5b6109118561090961172d565b858403611735565b60019150509392505050565b600060c96000838152602001908152602001600020600101549050919050565b6109468261091d565b6109578161095261172d565b611b84565b6109618383611c21565b505050565b60006012905090565b6000610979611d02565b905090565b61098661172d565b73ffffffffffffffffffffffffffffffffffffffff168173ffffffffffffffffffffffffffffffffffffffff16146109f3576040517f08c379a00000000000000000000000000000000000000000000000000000000081526004016109ea90614957565b60405180910390fd5b6109fd8282611d42565b5050565b6000610aa3610a0e61172d565b848460346000610a1c61172d565b73ffffffffffffffffffffffffffffffffffffffff1673ffffffffffffffffffffffffffffffffffffffff16815260200190815260200160002060008873ffffffffffffffffffffffffffffffffffffffff1673ffffffffffffffffffffffffffffffffffffffff16815260200190815260200160002054610a9e9190614a53565b611735565b6001905092915050565b6000438210610af1576040517f08c379a0000000000000000000000000000000000000000000000000000000008152600401610ae8906146d7565b60405180910390fd5b610b3a61016360008573ffffffffffffffffffffffffffffffffffffffff1673ffffffffffffffffffffffffffffffffffffffff16815260200190815260200160002083611e24565b905092915050565b7f65d7a28e3265b37a6474929f336521b332c1681b933f6cb9f3376673440d862a610b7481610b6f61172d565b611b84565b610b7c611f30565b50565b600061016260008373ffffffffffffffffffffffffffffffffffffffff1673ffffffffffffffffffffffffffffffffffffffff16815260200190815260200160002060009054906101000a900473ffffffffffffffffffffffffffffffffffffffff169050919050565b610bfa610bf461172d565b82611fd2565b50565b6000606560009054906101000a900460ff16905090565b6000610c6261016360008473ffffffffffffffffffffffffffffffffffffffff1673ffffffffffffffffffffffffffffffffffffffff168152602001908152602001600020805490506120ed565b9050919050565b6000603360008373ffffffffffffffffffffffffffffffffffffffff1673ffffffffffffffffffffffffffffffffffffffff168152602001908152602001600020549050919050565b6000610cfc61012f60008473ffffffffffffffffffffffffffffffffffffffff1673ffffffffffffffffffffffffffffffffffffffff168152602001908152602001600020612140565b9050919050565b600060019054906101000a900460ff1680610d29575060008054906101000a900460ff16155b610d68576040517f08c379a0000000000000000000000000000000000000000000000000000000008152600401610d5f90614817565b60405180910390fd5b60008060019054906101000a900460ff161590508015610db8576001600060016101000a81548160ff02191690831515021790555060016000806101000a81548160ff0219169083151502179055505b610e2c6040518060400160405280600881526020017f4f6d61686144414f0000000000000000000000000000000000000000000000008152506040518060400160405280600481526020017f42524b410000000000000000000000000000000000000000000000000000000081525061214e565b610e3461223b565b610e3c612324565b610e7a6040518060400160405280600881526020017f4f6d61686144414f000000000000000000000000000000000000000000000000815250612415565b610e876000801b3361253f565b610eb17f65d7a28e3265b37a6474929f336521b332c1681b933f6cb9f3376673440d862a3361253f565b610edd33610ebd610966565b600a610ec99190614b2d565b6305f5e100610ed89190614c4b565b61254d565b8015610efe5760008060016101000a81548160ff0219169083151502179055505b50565b7f65d7a28e3265b37a6474929f336521b332c1681b933f6cb9f3376673440d862a610f3381610f2e61172d565b611b84565b610f3b61255b565b50565b6000438210610f82576040517f08c379a0000000000000000000000000000000000000000000000000000000008152600401610f79906146d7565b60405180910390fd5b610f8e61016483611e24565b9050919050565b600060c9600084815260200190815260200160002060000160008373ffffffffffffffffffffffffffffffffffffffff1673ffffffffffffffffffffffffffffffffffffffff16815260200190815260200160002060009054906101000a900460ff16905092915050565b60606037805461100f90614df9565b80601f016020809104026020016040519081016040528092919081815260200182805461103b90614df9565b80156110885780601f1061105d57610100808354040283529160200191611088565b820191906000526020600020905b81548152906001019060200180831161106b57829003601f168201915b5050505050905090565b60008061016360008473ffffffffffffffffffffffffffffffffffffffff1673ffffffffffffffffffffffffffffffffffffffff1681526020019081526020016000208054905090506000811461117c5761016360008473ffffffffffffffffffffffffffffffffffffffff1673ffffffffffffffffffffffffffffffffffffffff1681526020019081526020016000206001826111309190614ca5565b8154811061114157611140614ef1565b5b9060005260206000200160000160049054906101000a90047bffffffffffffffffffffffffffffffffffffffffffffffffffffffff1661117f565b60005b7bffffffffffffffffffffffffffffffffffffffffffffffffffffffff16915050919050565b6000801b81565b600080603460006111bb61172d565b73ffffffffffffffffffffffffffffffffffffffff1673ffffffffffffffffffffffffffffffffffffffff16815260200190815260200160002060008573ffffffffffffffffffffffffffffffffffffffff1673ffffffffffffffffffffffffffffffffffffffff16815260200190815260200160002054905082811015611278576040517f08c379a000000000000000000000000000000000000000000000000000000000815260040161126f90614937565b60405180910390fd5b61128c61128361172d565b85858403611735565b600191505092915050565b60006112ab6112a461172d565b8484611900565b6001905092915050565b834211156112f8576040517f08c379a00000000000000000000000000000000000000000000000000000000081526004016112ef90614717565b60405180910390fd5b600061135a6113527fe48329057bfd03d55e49b547132e39cffd9c1820ad7b9d4c5307691425d15adf8989896040516020016113379493929190614578565b604051602081830303815290604052805190602001206125fe565b858585612618565b905061136581612643565b86146113a6576040517f08c379a000000000000000000000000000000000000000000000000000000000815260040161139d90614757565b60405180910390fd5b6113b08188611fd2565b50505050505050565b834211156113fc576040517f08c379a00000000000000000000000000000000000000000000000000000000081526004016113f390614797565b60405180910390fd5b60006101305488888861140e8c612643565b8960405160200161142496959493929190614517565b6040516020818303038152906040528051906020012090506000611447826125fe565b9050600061145782878787612618565b90508973ffffffffffffffffffffffffffffffffffffffff168173ffffffffffffffffffffffffffffffffffffffff16146114c7576040517f08c379a00000000000000000000000000000000000000000000000000000000081526004016114be90614857565b60405180910390fd5b6114d28a8a8a611735565b50505050505050505050565b6114e78261091d565b6114f8816114f361172d565b611b84565b6115028383611d42565b505050565b6000603460008473ffffffffffffffffffffffffffffffffffffffff1673ffffffffffffffffffffffffffffffffffffffff16815260200190815260200160002060008373ffffffffffffffffffffffffffffffffffffffff1673ffffffffffffffffffffffffffffffffffffffff16815260200190815260200160002054905092915050565b7f65d7a28e3265b37a6474929f336521b332c1681b933f6cb9f3376673440d862a81565b6115ba613ac4565b61016360008473ffffffffffffffffffffffffffffffffffffffff1673ffffffffffffffffffffffffffffffffffffffff1681526020019081526020016000208263ffffffff168154811061161257611611614ef1565b5b906000526020600020016040518060400160405290816000820160009054906101000a900463ffffffff1663ffffffff1663ffffffff1681526020016000820160049054906101000a90047bffffffffffffffffffffffffffffffffffffffffffffffffffffffff167bffffffffffffffffffffffffffffffffffffffffffffffffffffffff167bffffffffffffffffffffffffffffffffffffffffffffffffffffffff1681525050905092915050565b60007f01ffc9a7000000000000000000000000000000000000000000000000000000007bffffffffffffffffffffffffffffffffffffffffffffffffffffffff1916827bffffffffffffffffffffffffffffffffffffffffffffffffffffffff1916149050919050565b600033905090565b600073ffffffffffffffffffffffffffffffffffffffff168373ffffffffffffffffffffffffffffffffffffffff1614156117a5576040517f08c379a000000000000000000000000000000000000000000000000000000000815260040161179c90614917565b60405180910390fd5b600073ffffffffffffffffffffffffffffffffffffffff168273ffffffffffffffffffffffffffffffffffffffff161415611815576040517f08c379a000000000000000000000000000000000000000000000000000000000815260040161180c90614777565b60405180910390fd5b80603460008573ffffffffffffffffffffffffffffffffffffffff1673ffffffffffffffffffffffffffffffffffffffff16815260200190815260200160002060008473ffffffffffffffffffffffffffffffffffffffff1673ffffffffffffffffffffffffffffffffffffffff168152602001908152602001600020819055508173ffffffffffffffffffffffffffffffffffffffff168373ffffffffffffffffffffffffffffffffffffffff167f8c5be1e5ebec7d5bd14f71427d1e84f3dd0314c0f7b2291e5b200ac8c7c3b925836040516118f391906149b2565b60405180910390a3505050565b600073ffffffffffffffffffffffffffffffffffffffff168373ffffffffffffffffffffffffffffffffffffffff161415611970576040517f08c379a0000000000000000000000000000000000000000000000000000000008152600401611967906148d7565b60405180910390fd5b600073ffffffffffffffffffffffffffffffffffffffff168273ffffffffffffffffffffffffffffffffffffffff1614156119e0576040517f08c379a00000000000000000000000000000000000000000000000000000000081526004016119d7906146b7565b60405180910390fd5b6119eb8383836126a2565b6000603360008573ffffffffffffffffffffffffffffffffffffffff1673ffffffffffffffffffffffffffffffffffffffff16815260200190815260200160002054905081811015611a72576040517f08c379a0000000000000000000000000000000000000000000000000000000008152600401611a69906147b7565b60405180910390fd5b818103603360008673ffffffffffffffffffffffffffffffffffffffff1673ffffffffffffffffffffffffffffffffffffffff1681526020019081526020016000208190555081603360008573ffffffffffffffffffffffffffffffffffffffff1673ffffffffffffffffffffffffffffffffffffffff1681526020019081526020016000206000828254611b079190614a53565b925050819055508273ffffffffffffffffffffffffffffffffffffffff168473ffffffffffffffffffffffffffffffffffffffff167fddf252ad1be2c89b69c2b068fc378daa952ba7f163c4a11628f55a4df523b3ef84604051611b6b91906149b2565b60405180910390a3611b7e8484846126fa565b50505050565b611b8e8282610f95565b611c1d57611bb38173ffffffffffffffffffffffffffffffffffffffff16601461270a565b611bc18360001c602061270a565b604051602001611bd292919061448c565b6040516020818303038152906040526040517f08c379a0000000000000000000000000000000000000000000000000000000008152600401611c149190614655565b60405180910390fd5b5050565b611c2b8282610f95565b611cfe57600160c9600084815260200190815260200160002060000160008373ffffffffffffffffffffffffffffffffffffffff1673ffffffffffffffffffffffffffffffffffffffff16815260200190815260200160002060006101000a81548160ff021916908315150217905550611ca361172d565b73ffffffffffffffffffffffffffffffffffffffff168173ffffffffffffffffffffffffffffffffffffffff16837f2f8788117e7eff1d82e926ec794901d17c78024a50270940304540a733656f0d60405160405180910390a45b5050565b6000611d3d7f8b73c3c69bb8fe3d512ecc4cf759cc79239f7b179b0ffacaa9a75d522b39400f611d30612946565b611d38612950565b61295a565b905090565b611d4c8282610f95565b15611e2057600060c9600084815260200190815260200160002060000160008373ffffffffffffffffffffffffffffffffffffffff1673ffffffffffffffffffffffffffffffffffffffff16815260200190815260200160002060006101000a81548160ff021916908315150217905550611dc561172d565b73ffffffffffffffffffffffffffffffffffffffff168173ffffffffffffffffffffffffffffffffffffffff16837ff6391f5c32d9c69d2a47ea670b442974b53935d1edc7fd64eb21e047a839171b60405160405180910390a45b5050565b6000808380549050905060005b81811015611ea3576000611e458284612994565b905084868281548110611e5b57611e5a614ef1565b5b9060005260206000200160000160009054906101000a900463ffffffff1663ffffffff161115611e8d57809250611e9d565b600181611e9a9190614a53565b91505b50611e31565b60008214611f055784600183611eb99190614ca5565b81548110611eca57611ec9614ef1565b5b9060005260206000200160000160049054906101000a90047bffffffffffffffffffffffffffffffffffffffffffffffffffffffff16611f08565b60005b7bffffffffffffffffffffffffffffffffffffffffffffffffffffffff169250505092915050565b611f38610bfd565b611f77576040517f08c379a0000000000000000000000000000000000000000000000000000000008152600401611f6e906146f7565b60405180910390fd5b6000606560006101000a81548160ff0219169083151502179055507f5db9ee0a495bf2e6ff9c91a7834c1ba4fdd244a5e8aa4e537bd38aeae4b073aa611fbb61172d565b604051611fc891906144c6565b60405180910390a1565b6000611fdd83610b7f565b90506000611fea84610c69565b90508261016260008673ffffffffffffffffffffffffffffffffffffffff1673ffffffffffffffffffffffffffffffffffffffff16815260200190815260200160002060006101000a81548173ffffffffffffffffffffffffffffffffffffffff021916908373ffffffffffffffffffffffffffffffffffffffff1602179055508273ffffffffffffffffffffffffffffffffffffffff168273ffffffffffffffffffffffffffffffffffffffff168573ffffffffffffffffffffffffffffffffffffffff167f3134e8a2e6d97e929a7e54011ea5485d7d196dd5f0ba4d4ef95803e8e3fc257f60405160405180910390a46120e78284836129ba565b50505050565b600063ffffffff8016821115612138576040517f08c379a000000000000000000000000000000000000000000000000000000000815260040161212f906148f7565b60405180910390fd5b819050919050565b600081600001549050919050565b600060019054906101000a900460ff1680612174575060008054906101000a900460ff16155b6121b3576040517f08c379a00000000000000000000000000000000000000000000000000000000081526004016121aa90614817565b60405180910390fd5b60008060019054906101000a900460ff161590508015612203576001600060016101000a81548160ff02191690831515021790555060016000806101000a81548160ff0219169083151502179055505b61220b612bb5565b6122158383612c8e565b80156122365760008060016101000a81548160ff0219169083151502179055505b505050565b600060019054906101000a900460ff1680612261575060008054906101000a900460ff16155b6122a0576040517f08c379a000000000000000000000000000000000000000000000000000000000815260040161229790614817565b60405180910390fd5b60008060019054906101000a900460ff1615905080156122f0576001600060016101000a81548160ff02191690831515021790555060016000806101000a81548160ff0219169083151502179055505b6122f8612bb5565b612300612d97565b80156123215760008060016101000a81548160ff0219169083151502179055505b50565b600060019054906101000a900460ff168061234a575060008054906101000a900460ff16155b612389576040517f08c379a000000000000000000000000000000000000000000000000000000000815260040161238090614817565b60405180910390fd5b60008060019054906101000a900460ff1615905080156123d9576001600060016101000a81548160ff02191690831515021790555060016000806101000a81548160ff0219169083151502179055505b6123e1612bb5565b6123e9612e8b565b6123f1612f64565b80156124125760008060016101000a81548160ff0219169083151502179055505b50565b600060019054906101000a900460ff168061243b575060008054906101000a900460ff16155b61247a576040517f08c379a000000000000000000000000000000000000000000000000000000000815260040161247190614817565b60405180910390fd5b60008060019054906101000a900460ff1615905080156124ca576001600060016101000a81548160ff02191690831515021790555060016000806101000a81548160ff0219169083151502179055505b6124d2612bb5565b612511826040518060400160405280600181526020017f310000000000000000000000000000000000000000000000000000000000000081525061303d565b61251a82613140565b801561253b5760008060016101000a81548160ff0219169083151502179055505b5050565b6125498282611c21565b5050565b6125578282613242565b5050565b612563610bfd565b156125a3576040517f08c379a000000000000000000000000000000000000000000000000000000000815260040161259a906147f7565b60405180910390fd5b6001606560006101000a81548160ff0219169083151502179055507f62e78cea01bee320cd4e420270b5ea74000d11b0c9f74754ebdbfc544b05a2586125e761172d565b6040516125f491906144c6565b60405180910390a1565b600061261161260b611d02565b836132d0565b9050919050565b600080600061262987878787613303565b9150915061263681613410565b8192505050949350505050565b60008061012f60008473ffffffffffffffffffffffffffffffffffffffff1673ffffffffffffffffffffffffffffffffffffffff168152602001908152602001600020905061269181612140565b915061269c816135e5565b50919050565b6126aa610bfd565b156126ea576040517f08c379a00000000000000000000000000000000000000000000000000000000081526004016126e1906147f7565b60405180910390fd5b6126f58383836135fb565b505050565b612705838383613600565b505050565b60606000600283600261271d9190614c4b565b6127279190614a53565b67ffffffffffffffff8111156127405761273f614f20565b5b6040519080825280601f01601f1916602001820160405280156127725781602001600182028036833780820191505090505b5090507f3000000000000000000000000000000000000000000000000000000000000000816000815181106127aa576127a9614ef1565b5b60200101907effffffffffffffffffffffffffffffffffffffffffffffffffffffffffffff1916908160001a9053507f78000000000000000000000000000000000000000000000000000000000000008160018151811061280e5761280d614ef1565b5b60200101907effffffffffffffffffffffffffffffffffffffffffffffffffffffffffffff1916908160001a9053506000600184600261284e9190614c4b565b6128589190614a53565b90505b60018111156128f8577f3031323334353637383961626364656600000000000000000000000000000000600f86166010811061289a57612899614ef1565b5b1a60f81b8282815181106128b1576128b0614ef1565b5b60200101907effffffffffffffffffffffffffffffffffffffffffffffffffffffffffffff1916908160001a905350600485901c9450806128f190614dcf565b905061285b565b506000841461293c576040517f08c379a000000000000000000000000000000000000000000000000000000000815260040161293390614697565b60405180910390fd5b8091505092915050565b600060fb54905090565b600060fc54905090565b600083838346306040516020016129759594939291906145bd565b6040516020818303038152906040528051906020012090509392505050565b600060028284186129a59190614aa9565b8284166129b29190614a53565b905092915050565b8173ffffffffffffffffffffffffffffffffffffffff168373ffffffffffffffffffffffffffffffffffffffff16141580156129f65750600081115b15612bb057600073ffffffffffffffffffffffffffffffffffffffff168373ffffffffffffffffffffffffffffffffffffffff1614612ad557600080612a7e61016360008773ffffffffffffffffffffffffffffffffffffffff1673ffffffffffffffffffffffffffffffffffffffff16815260200190815260200160002061362b85613641565b915091508473ffffffffffffffffffffffffffffffffffffffff167fdec2bacdd2f05b59de34da9b523dff8be42e5e38e818c82fdb0bae774387a7248383604051612aca9291906149cd565b60405180910390a250505b600073ffffffffffffffffffffffffffffffffffffffff168273ffffffffffffffffffffffffffffffffffffffff1614612baf57600080612b5861016360008673ffffffffffffffffffffffffffffffffffffffff1673ffffffffffffffffffffffffffffffffffffffff1681526020019081526020016000206138b985613641565b915091508373ffffffffffffffffffffffffffffffffffffffff167fdec2bacdd2f05b59de34da9b523dff8be42e5e38e818c82fdb0bae774387a7248383604051612ba49291906149cd565b60405180910390a250505b5b505050565b600060019054906101000a900460ff1680612bdb575060008054906101000a900460ff16155b612c1a576040517f08c379a0000000000000000000000000000000000000000000000000000000008152600401612c1190614817565b60405180910390fd5b60008060019054906101000a900460ff161590508015612c6a576001600060016101000a81548160ff02191690831515021790555060016000806101000a81548160ff0219169083151502179055505b8015612c8b5760008060016101000a81548160ff0219169083151502179055505b50565b600060019054906101000a900460ff1680612cb4575060008054906101000a900460ff16155b612cf3576040517f08c379a0000000000000000000000000000000000000000000000000000000008152600401612cea90614817565b60405180910390fd5b60008060019054906101000a900460ff161590508015612d43576001600060016101000a81548160ff02191690831515021790555060016000806101000a81548160ff0219169083151502179055505b8260369080519060200190612d59929190613b02565b508160379080519060200190612d70929190613b02565b508015612d925760008060016101000a81548160ff0219169083151502179055505b505050565b600060019054906101000a900460ff1680612dbd575060008054906101000a900460ff16155b612dfc576040517f08c379a0000000000000000000000000000000000000000000000000000000008152600401612df390614817565b60405180910390fd5b60008060019054906101000a900460ff161590508015612e4c576001600060016101000a81548160ff02191690831515021790555060016000806101000a81548160ff0219169083151502179055505b6000606560006101000a81548160ff0219169083151502179055508015612e885760008060016101000a81548160ff0219169083151502179055505b50565b600060019054906101000a900460ff1680612eb1575060008054906101000a900460ff16155b612ef0576040517f08c379a0000000000000000000000000000000000000000000000000000000008152600401612ee790614817565b60405180910390fd5b60008060019054906101000a900460ff161590508015612f40576001600060016101000a81548160ff02191690831515021790555060016000806101000a81548160ff0219169083151502179055505b8015612f615760008060016101000a81548160ff0219169083151502179055505b50565b600060019054906101000a900460ff1680612f8a575060008054906101000a900460ff16155b612fc9576040517f08c379a0000000000000000000000000000000000000000000000000000000008152600401612fc090614817565b60405180910390fd5b60008060019054906101000a900460ff161590508015613019576001600060016101000a81548160ff02191690831515021790555060016000806101000a81548160ff0219169083151502179055505b801561303a5760008060016101000a81548160ff0219169083151502179055505b50565b600060019054906101000a900460ff1680613063575060008054906101000a900460ff16155b6130a2576040517f08c379a000000000000000000000000000000000000000000000000000000000815260040161309990614817565b60405180910390fd5b60008060019054906101000a900460ff1615905080156130f2576001600060016101000a81548160ff02191690831515021790555060016000806101000a81548160ff0219169083151502179055505b6000838051906020012090506000838051906020012090508160fb819055508060fc819055505050801561313b5760008060016101000a81548160ff0219169083151502179055505b505050565b600060019054906101000a900460ff1680613166575060008054906101000a900460ff16155b6131a5576040517f08c379a000000000000000000000000000000000000000000000000000000000815260040161319c90614817565b60405180910390fd5b60008060019054906101000a900460ff1615905080156131f5576001600060016101000a81548160ff02191690831515021790555060016000806101000a81548160ff0219169083151502179055505b7f6e71edae12b1b97f4d1f60370fef10105fa2faae0126114a169c64845d6126c961013081905550801561323e5760008060016101000a81548160ff0219169083151502179055505b5050565b61324c82826138cf565b613254613a30565b7bffffffffffffffffffffffffffffffffffffffffffffffffffffffff1661327a61081b565b11156132bb576040517f08c379a00000000000000000000000000000000000000000000000000000000081526004016132b290614897565b60405180910390fd5b6132ca6101646138b983613641565b50505050565b600082826040516020016132e5929190614455565b60405160208183030381529060405280519060200120905092915050565b6000807f7fffffffffffffffffffffffffffffff5d576e7357a4501ddfe92f46681b20a08360001c111561333e576000600391509150613407565b601b8560ff16141580156133565750601c8560ff1614155b15613368576000600491509150613407565b60006001878787876040516000815260200160405260405161338d9493929190614610565b6020604051602081039080840390855afa1580156133af573d6000803e3d6000fd5b505050602060405103519050600073ffffffffffffffffffffffffffffffffffffffff168173ffffffffffffffffffffffffffffffffffffffff1614156133fe57600060019250925050613407565b80600092509250505b94509492505050565b6000600481111561342457613423614e93565b5b81600481111561343757613436614e93565b5b1415613442576135e2565b6001600481111561345657613455614e93565b5b81600481111561346957613468614e93565b5b14156134aa576040517f08c379a00000000000000000000000000000000000000000000000000000000081526004016134a190614677565b60405180910390fd5b600260048111156134be576134bd614e93565b5b8160048111156134d1576134d0614e93565b5b1415613512576040517f08c379a000000000000000000000000000000000000000000000000000000000815260040161350990614737565b60405180910390fd5b6003600481111561352657613525614e93565b5b81600481111561353957613538614e93565b5b141561357a576040517f08c379a0000000000000000000000000000000000000000000000000000000008152600401613571906147d7565b60405180910390fd5b60048081111561358d5761358c614e93565b5b8160048111156135a05761359f614e93565b5b14156135e1576040517f08c379a00000000000000000000000000000000000000000000000000000000081526004016135d890614837565b60405180910390fd5b5b50565b6001816000016000828254019250508190555050565b505050565b61360b838383613a54565b61362661361784610b7f565b61362084610b7f565b836129ba565b505050565b600081836136399190614ca5565b905092915050565b600080600085805490509050600081146136af57856001826136639190614ca5565b8154811061367457613673614ef1565b5b9060005260206000200160000160049054906101000a90047bffffffffffffffffffffffffffffffffffffffffffffffffffffffff166136b2565b60005b7bffffffffffffffffffffffffffffffffffffffffffffffffffffffff1692506136e083858763ffffffff16565b9150600081118015613733575043866001836136fc9190614ca5565b8154811061370d5761370c614ef1565b5b9060005260206000200160000160009054906101000a900463ffffffff1663ffffffff16145b156137c05761374182613a59565b8660018361374f9190614ca5565b815481106137605761375f614ef1565b5b9060005260206000200160000160046101000a8154817bffffffffffffffffffffffffffffffffffffffffffffffffffffffff02191690837bffffffffffffffffffffffffffffffffffffffffffffffffffffffff1602179055506138b0565b8560405180604001604052806137d5436120ed565b63ffffffff1681526020016137e985613a59565b7bffffffffffffffffffffffffffffffffffffffffffffffffffffffff168152509080600181540180825580915050600190039060005260206000200160009091909190915060008201518160000160006101000a81548163ffffffff021916908363ffffffff16021790555060208201518160000160046101000a8154817bffffffffffffffffffffffffffffffffffffffffffffffffffffffff02191690837bffffffffffffffffffffffffffffffffffffffffffffffffffffffff16021790555050505b50935093915050565b600081836138c79190614a53565b905092915050565b600073ffffffffffffffffffffffffffffffffffffffff168273ffffffffffffffffffffffffffffffffffffffff16141561393f576040517f08c379a000000000000000000000000000000000000000000000000000000000815260040161393690614977565b60405180910390fd5b61394b600083836126a2565b806035600082825461395d9190614a53565b9250508190555080603360008473ffffffffffffffffffffffffffffffffffffffff1673ffffffffffffffffffffffffffffffffffffffff16815260200190815260200160002060008282546139b39190614a53565b925050819055508173ffffffffffffffffffffffffffffffffffffffff16600073ffffffffffffffffffffffffffffffffffffffff167fddf252ad1be2c89b69c2b068fc378daa952ba7f163c4a11628f55a4df523b3ef83604051613a1891906149b2565b60405180910390a3613a2c600083836126fa565b5050565b60007bffffffffffffffffffffffffffffffffffffffffffffffffffffffff905090565b505050565b60007bffffffffffffffffffffffffffffffffffffffffffffffffffffffff8016821115613abc576040517f08c379a0000000000000000000000000000000000000000000000000000000008152600401613ab3906148b7565b60405180910390fd5b819050919050565b6040518060400160405280600063ffffffff16815260200160007bffffffffffffffffffffffffffffffffffffffffffffffffffffffff1681525090565b828054613b0e90614df9565b90600052602060002090601f016020900481019282613b305760008555613b77565b82601f10613b4957805160ff1916838001178555613b77565b82800160010185558215613b77579182015b82811115613b76578251825591602001919060010190613b5b565b5b509050613b849190613b88565b5090565b5b80821115613ba1576000816000905550600101613b89565b5090565b600081359050613bb481615602565b92915050565b600081359050613bc981615619565b92915050565b600081359050613bde81615630565b92915050565b600081359050613bf381615647565b92915050565b600081359050613c088161565e565b92915050565b600081359050613c1d81615675565b92915050565b600060208284031215613c3957613c38614f4f565b5b6000613c4784828501613ba5565b91505092915050565b60008060408385031215613c6757613c66614f4f565b5b6000613c7585828601613ba5565b9250506020613c8685828601613ba5565b9150509250929050565b600080600060608486031215613ca957613ca8614f4f565b5b6000613cb786828701613ba5565b9350506020613cc886828701613ba5565b9250506040613cd986828701613be4565b9150509250925092565b600080600080600080600060e0888a031215613d0257613d01614f4f565b5b6000613d108a828b01613ba5565b9750506020613d218a828b01613ba5565b9650506040613d328a828b01613be4565b9550506060613d438a828b01613be4565b9450506080613d548a828b01613c0e565b93505060a0613d658a828b01613bba565b92505060c0613d768a828b01613bba565b91505092959891949750929550565b60008060408385031215613d9c57613d9b614f4f565b5b6000613daa85828601613ba5565b9250506020613dbb85828601613be4565b9150509250929050565b60008060008060008060c08789031215613de257613de1614f4f565b5b6000613df089828a01613ba5565b9650506020613e0189828a01613be4565b9550506040613e1289828a01613be4565b9450506060613e2389828a01613c0e565b9350506080613e3489828a01613bba565b92505060a0613e4589828a01613bba565b9150509295509295509295565b60008060408385031215613e6957613e68614f4f565b5b6000613e7785828601613ba5565b9250506020613e8885828601613bf9565b9150509250929050565b600060208284031215613ea857613ea7614f4f565b5b6000613eb684828501613bba565b91505092915050565b60008060408385031215613ed657613ed5614f4f565b5b6000613ee485828601613bba565b9250506020613ef585828601613ba5565b9150509250929050565b600060208284031215613f1557613f14614f4f565b5b6000613f2384828501613bcf565b91505092915050565b600060208284031215613f4257613f41614f4f565b5b6000613f5084828501613be4565b91505092915050565b613f6281614cd9565b82525050565b613f7181614ceb565b82525050565b613f8081614cf7565b82525050565b613f97613f9282614cf7565b614e2b565b82525050565b6000613fa882614a2c565b613fb28185614a37565b9350613fc2818560208601614d9c565b613fcb81614f54565b840191505092915050565b6000613fe182614a2c565b613feb8185614a48565b9350613ffb818560208601614d9c565b80840191505092915050565b6000614014601883614a37565b915061401f82614f72565b602082019050919050565b6000614037602083614a37565b915061404282614f9b565b602082019050919050565b600061405a602383614a37565b915061406582614fc4565b604082019050919050565b600061407d601f83614a37565b915061408882615013565b602082019050919050565b60006140a0601483614a37565b91506140ab8261503c565b602082019050919050565b60006140c3601d83614a37565b91506140ce82615065565b602082019050919050565b60006140e6601f83614a37565b91506140f18261508e565b602082019050919050565b6000614109601983614a37565b9150614114826150b7565b602082019050919050565b600061412c602283614a37565b9150614137826150e0565b604082019050919050565b600061414f600283614a48565b915061415a8261512f565b600282019050919050565b6000614172601d83614a37565b915061417d82615158565b602082019050919050565b6000614195602683614a37565b91506141a082615181565b604082019050919050565b60006141b8602283614a37565b91506141c3826151d0565b604082019050919050565b60006141db601083614a37565b91506141e68261521f565b602082019050919050565b60006141fe602e83614a37565b915061420982615248565b604082019050919050565b6000614221602283614a37565b915061422c82615297565b604082019050919050565b6000614244601e83614a37565b915061424f826152e6565b602082019050919050565b6000614267602883614a37565b91506142728261530f565b604082019050919050565b600061428a603083614a37565b91506142958261535e565b604082019050919050565b60006142ad602783614a37565b91506142b8826153ad565b604082019050919050565b60006142d0602583614a37565b91506142db826153fc565b604082019050919050565b60006142f3602683614a37565b91506142fe8261544b565b604082019050919050565b6000614316602483614a37565b91506143218261549a565b604082019050919050565b6000614339601783614a48565b9150614344826154e9565b601782019050919050565b600061435c602583614a37565b915061436782615512565b604082019050919050565b600061437f601183614a48565b915061438a82615561565b601182019050919050565b60006143a2602f83614a37565b91506143ad8261558a565b604082019050919050565b60006143c5601f83614a37565b91506143d0826155d9565b602082019050919050565b6040820160008201516143f16000850182614428565b506020820151614404602085018261440a565b50505050565b61441381614d4d565b82525050565b61442281614d75565b82525050565b61443181614d7f565b82525050565b61444081614d7f565b82525050565b61444f81614d8f565b82525050565b600061446082614142565b915061446c8285613f86565b60208201915061447c8284613f86565b6020820191508190509392505050565b60006144978261432c565b91506144a38285613fd6565b91506144ae82614372565b91506144ba8284613fd6565b91508190509392505050565b60006020820190506144db6000830184613f59565b92915050565b60006020820190506144f66000830184613f68565b92915050565b60006020820190506145116000830184613f77565b92915050565b600060c08201905061452c6000830189613f77565b6145396020830188613f59565b6145466040830187613f59565b6145536060830186614419565b6145606080830185614419565b61456d60a0830184614419565b979650505050505050565b600060808201905061458d6000830187613f77565b61459a6020830186613f59565b6145a76040830185614419565b6145b46060830184614419565b95945050505050565b600060a0820190506145d26000830188613f77565b6145df6020830187613f77565b6145ec6040830186613f77565b6145f96060830185614419565b6146066080830184613f59565b9695505050505050565b60006080820190506146256000830187613f77565b6146326020830186614446565b61463f6040830185613f77565b61464c6060830184613f77565b95945050505050565b6000602082019050818103600083015261466f8184613f9d565b905092915050565b6000602082019050818103600083015261469081614007565b9050919050565b600060208201905081810360008301526146b08161402a565b9050919050565b600060208201905081810360008301526146d08161404d565b9050919050565b600060208201905081810360008301526146f081614070565b9050919050565b6000602082019050818103600083015261471081614093565b9050919050565b60006020820190508181036000830152614730816140b6565b9050919050565b60006020820190508181036000830152614750816140d9565b9050919050565b60006020820190508181036000830152614770816140fc565b9050919050565b600060208201905081810360008301526147908161411f565b9050919050565b600060208201905081810360008301526147b081614165565b9050919050565b600060208201905081810360008301526147d081614188565b9050919050565b600060208201905081810360008301526147f0816141ab565b9050919050565b60006020820190508181036000830152614810816141ce565b9050919050565b60006020820190508181036000830152614830816141f1565b9050919050565b6000602082019050818103600083015261485081614214565b9050919050565b6000602082019050818103600083015261487081614237565b9050919050565b600060208201905081810360008301526148908161425a565b9050919050565b600060208201905081810360008301526148b08161427d565b9050919050565b600060208201905081810360008301526148d0816142a0565b9050919050565b600060208201905081810360008301526148f0816142c3565b9050919050565b60006020820190508181036000830152614910816142e6565b9050919050565b6000602082019050818103600083015261493081614309565b9050919050565b600060208201905081810360008301526149508161434f565b9050919050565b6000602082019050818103600083015261497081614395565b9050919050565b60006020820190508181036000830152614990816143b8565b9050919050565b60006040820190506149ac60008301846143db565b92915050565b60006020820190506149c76000830184614419565b92915050565b60006040820190506149e26000830185614419565b6149ef6020830184614419565b9392505050565b6000602082019050614a0b6000830184614437565b92915050565b6000602082019050614a266000830184614446565b92915050565b600081519050919050565b600082825260208201905092915050565b600081905092915050565b6000614a5e82614d75565b9150614a6983614d75565b9250827fffffffffffffffffffffffffffffffffffffffffffffffffffffffffffffffff03821115614a9e57614a9d614e35565b5b828201905092915050565b6000614ab482614d75565b9150614abf83614d75565b925082614acf57614ace614e64565b5b828204905092915050565b6000808291508390505b6001851115614b2457808604811115614b0057614aff614e35565b5b6001851615614b0f5780820291505b8081029050614b1d85614f65565b9450614ae4565b94509492505050565b6000614b3882614d75565b9150614b4383614d8f565b9250614b707fffffffffffffffffffffffffffffffffffffffffffffffffffffffffffffffff8484614b78565b905092915050565b600082614b885760019050614c44565b81614b965760009050614c44565b8160018114614bac5760028114614bb657614be5565b6001915050614c44565b60ff841115614bc857614bc7614e35565b5b8360020a915084821115614bdf57614bde614e35565b5b50614c44565b5060208310610133831016604e8410600b8410161715614c1a5782820a905083811115614c1557614c14614e35565b5b614c44565b614c278484846001614ada565b92509050818404811115614c3e57614c3d614e35565b5b81810290505b9392505050565b6000614c5682614d75565b9150614c6183614d75565b9250817fffffffffffffffffffffffffffffffffffffffffffffffffffffffffffffffff0483118215151615614c9a57614c99614e35565b5b828202905092915050565b6000614cb082614d75565b9150614cbb83614d75565b925082821015614cce57614ccd614e35565b5b828203905092915050565b6000614ce482614d2d565b9050919050565b60008115159050919050565b6000819050919050565b60007fffffffff0000000000000000000000000000000000000000000000000000000082169050919050565b600073ffffffffffffffffffffffffffffffffffffffff82169050919050565b60007bffffffffffffffffffffffffffffffffffffffffffffffffffffffff82169050919050565b6000819050919050565b600063ffffffff82169050919050565b600060ff82169050919050565b60005b83811015614dba578082015181840152602081019050614d9f565b83811115614dc9576000848401525b50505050565b6000614dda82614d75565b91506000821415614dee57614ded614e35565b5b600182039050919050565b60006002820490506001821680614e1157607f821691505b60208210811415614e2557614e24614ec2565b5b50919050565b6000819050919050565b7f4e487b7100000000000000000000000000000000000000000000000000000000600052601160045260246000fd5b7f4e487b7100000000000000000000000000000000000000000000000000000000600052601260045260246000fd5b7f4e487b7100000000000000000000000000000000000000000000000000000000600052602160045260246000fd5b7f4e487b7100000000000000000000000000000000000000000000000000000000600052602260045260246000fd5b7f4e487b7100000000000000000000000000000000000000000000000000000000600052603260045260246000fd5b7f4e487b7100000000000000000000000000000000000000000000000000000000600052604160045260246000fd5b600080fd5b6000601f19601f8301169050919050565b60008160011c9050919050565b7f45434453413a20696e76616c6964207369676e61747572650000000000000000600082015250565b7f537472696e67733a20686578206c656e67746820696e73756666696369656e74600082015250565b7f45524332303a207472616e7366657220746f20746865207a65726f206164647260008201527f6573730000000000000000000000000000000000000000000000000000000000602082015250565b7f4552433230566f7465733a20626c6f636b206e6f7420796574206d696e656400600082015250565b7f5061757361626c653a206e6f7420706175736564000000000000000000000000600082015250565b7f4552433230566f7465733a207369676e61747572652065787069726564000000600082015250565b7f45434453413a20696e76616c6964207369676e6174757265206c656e67746800600082015250565b7f4552433230566f7465733a20696e76616c6964206e6f6e636500000000000000600082015250565b7f45524332303a20617070726f766520746f20746865207a65726f20616464726560008201527f7373000000000000000000000000000000000000000000000000000000000000602082015250565b7f1901000000000000000000000000000000000000000000000000000000000000600082015250565b7f45524332305065726d69743a206578706972656420646561646c696e65000000600082015250565b7f45524332303a207472616e7366657220616d6f756e742065786365656473206260008201527f616c616e63650000000000000000000000000000000000000000000000000000602082015250565b7f45434453413a20696e76616c6964207369676e6174757265202773272076616c60008201527f7565000000000000000000000000000000000000000000000000000000000000602082015250565b7f5061757361626c653a2070617573656400000000000000000000000000000000600082015250565b7f496e697469616c697a61626c653a20636f6e747261637420697320616c72656160008201527f647920696e697469616c697a6564000000000000000000000000000000000000602082015250565b7f45434453413a20696e76616c6964207369676e6174757265202776272076616c60008201527f7565000000000000000000000000000000000000000000000000000000000000602082015250565b7f45524332305065726d69743a20696e76616c6964207369676e61747572650000600082015250565b7f45524332303a207472616e7366657220616d6f756e742065786365656473206160008201527f6c6c6f77616e6365000000000000000000000000000000000000000000000000602082015250565b7f4552433230566f7465733a20746f74616c20737570706c79207269736b73206f60008201527f766572666c6f77696e6720766f74657300000000000000000000000000000000602082015250565b7f53616665436173743a2076616c756520646f65736e27742066697420696e203260008201527f3234206269747300000000000000000000000000000000000000000000000000602082015250565b7f45524332303a207472616e736665722066726f6d20746865207a65726f20616460008201527f6472657373000000000000000000000000000000000000000000000000000000602082015250565b7f53616665436173743a2076616c756520646f65736e27742066697420696e203360008201527f3220626974730000000000000000000000000000000000000000000000000000602082015250565b7f45524332303a20617070726f76652066726f6d20746865207a65726f2061646460008201527f7265737300000000000000000000000000000000000000000000000000000000602082015250565b7f416363657373436f6e74726f6c3a206163636f756e7420000000000000000000600082015250565b7f45524332303a2064656372656173656420616c6c6f77616e63652062656c6f7760008201527f207a65726f000000000000000000000000000000000000000000000000000000602082015250565b7f206973206d697373696e6720726f6c6520000000000000000000000000000000600082015250565b7f416363657373436f6e74726f6c3a2063616e206f6e6c792072656e6f756e636560008201527f20726f6c657320666f722073656c660000000000000000000000000000000000602082015250565b7f45524332303a206d696e7420746f20746865207a65726f206164647265737300600082015250565b61560b81614cd9565b811461561657600080fd5b50565b61562281614cf7565b811461562d57600080fd5b50565b61563981614d01565b811461564457600080fd5b50565b61565081614d75565b811461565b57600080fd5b50565b61566781614d7f565b811461567257600080fd5b50565b61567e81614d8f565b811461568957600080fd5b5056fea264697066735822122095dae701834a399fdf0cdb1171247dc7e36110fa43b57e7550696fd63b56a95964736f6c63430008070033",
			"opcodes": "PUSH1 0x80 PUSH1 0x40 MSTORE CALLVALUE DUP1 ISZERO PUSH3 0x11 JUMPI PUSH1 0x0 DUP1 REVERT JUMPDEST POP PUSH1 0x0 PUSH1 0x1 SWAP1 SLOAD SWAP1 PUSH2 0x100 EXP SWAP1 DIV PUSH1 0xFF AND DUP1 PUSH3 0x39 JUMPI POP PUSH1 0x0 DUP1 SLOAD SWAP1 PUSH2 0x100 EXP SWAP1 DIV PUSH1 0xFF AND ISZERO JUMPDEST PUSH3 0x7B JUMPI PUSH1 0x40 MLOAD PUSH32 0x8C379A000000000000000000000000000000000000000000000000000000000 DUP2 MSTORE PUSH1 0x4 ADD PUSH3 0x72 SWAP1 PUSH3 0x11C JUMP JUMPDEST PUSH1 0x40 MLOAD DUP1 SWAP2 SUB SWAP1 REVERT JUMPDEST PUSH1 0x0 DUP1 PUSH1 0x1 SWAP1 SLOAD SWAP1 PUSH2 0x100 EXP SWAP1 DIV PUSH1 0xFF AND ISZERO SWAP1 POP DUP1 ISZERO PUSH3 0xCC JUMPI PUSH1 0x1 PUSH1 0x0 PUSH1 0x1 PUSH2 0x100 EXP DUP2 SLOAD DUP2 PUSH1 0xFF MUL NOT AND SWAP1 DUP4 ISZERO ISZERO MUL OR SWAP1 SSTORE POP PUSH1 0x1 PUSH1 0x0 DUP1 PUSH2 0x100 EXP DUP2 SLOAD DUP2 PUSH1 0xFF MUL NOT AND SWAP1 DUP4 ISZERO ISZERO MUL OR SWAP1 SSTORE POP JUMPDEST DUP1 ISZERO PUSH3 0xEE JUMPI PUSH1 0x0 DUP1 PUSH1 0x1 PUSH2 0x100 EXP DUP2 SLOAD DUP2 PUSH1 0xFF MUL NOT AND SWAP1 DUP4 ISZERO ISZERO MUL OR SWAP1 SSTORE POP JUMPDEST POP PUSH3 0x19E JUMP JUMPDEST PUSH1 0x0 PUSH3 0x104 PUSH1 0x2E DUP4 PUSH3 0x13E JUMP JUMPDEST SWAP2 POP PUSH3 0x111 DUP3 PUSH3 0x14F JUMP JUMPDEST PUSH1 0x40 DUP3 ADD SWAP1 POP SWAP2 SWAP1 POP JUMP JUMPDEST PUSH1 0x0 PUSH1 0x20 DUP3 ADD SWAP1 POP DUP2 DUP2 SUB PUSH1 0x0 DUP4 ADD MSTORE PUSH3 0x137 DUP2 PUSH3 0xF5 JUMP JUMPDEST SWAP1 POP SWAP2 SWAP1 POP JUMP JUMPDEST PUSH1 0x0 DUP3 DUP3 MSTORE PUSH1 0x20 DUP3 ADD SWAP1 POP SWAP3 SWAP2 POP POP JUMP JUMPDEST PUSH32 0x496E697469616C697A61626C653A20636F6E747261637420697320616C726561 PUSH1 0x0 DUP3 ADD MSTORE PUSH32 0x647920696E697469616C697A6564000000000000000000000000000000000000 PUSH1 0x20 DUP3 ADD MSTORE POP JUMP JUMPDEST PUSH2 0x56C2 DUP1 PUSH3 0x1AE PUSH1 0x0 CODECOPY PUSH1 0x0 RETURN INVALID PUSH1 0x80 PUSH1 0x40 MSTORE CALLVALUE DUP1 ISZERO PUSH2 0x10 JUMPI PUSH1 0x0 DUP1 REVERT JUMPDEST POP PUSH1 0x4 CALLDATASIZE LT PUSH2 0x206 JUMPI PUSH1 0x0 CALLDATALOAD PUSH1 0xE0 SHR DUP1 PUSH4 0x70A08231 GT PUSH2 0x11A JUMPI DUP1 PUSH4 0xA217FDDF GT PUSH2 0xAD JUMPI DUP1 PUSH4 0xD505ACCF GT PUSH2 0x7C JUMPI DUP1 PUSH4 0xD505ACCF EQ PUSH2 0x63B JUMPI DUP1 PUSH4 0xD547741F EQ PUSH2 0x657 JUMPI DUP1 PUSH4 0xDD62ED3E EQ PUSH2 0x673 JUMPI DUP1 PUSH4 0xE63AB1E9 EQ PUSH2 0x6A3 JUMPI DUP1 PUSH4 0xF1127ED8 EQ PUSH2 0x6C1 JUMPI PUSH2 0x206 JUMP JUMPDEST DUP1 PUSH4 0xA217FDDF EQ PUSH2 0x5A1 JUMPI DUP1 PUSH4 0xA457C2D7 EQ PUSH2 0x5BF JUMPI DUP1 PUSH4 0xA9059CBB EQ PUSH2 0x5EF JUMPI DUP1 PUSH4 0xC3CDA520 EQ PUSH2 0x61F JUMPI PUSH2 0x206 JUMP JUMPDEST DUP1 PUSH4 0x8E539E8C GT PUSH2 0xE9 JUMPI DUP1 PUSH4 0x8E539E8C EQ PUSH2 0x4F3 JUMPI DUP1 PUSH4 0x91D14854 EQ PUSH2 0x523 JUMPI DUP1 PUSH4 0x95D89B41 EQ PUSH2 0x553 JUMPI DUP1 PUSH4 0x9AB24EB0 EQ PUSH2 0x571 JUMPI PUSH2 0x206 JUMP JUMPDEST DUP1 PUSH4 0x70A08231 EQ PUSH2 0x47F JUMPI DUP1 PUSH4 0x7ECEBE00 EQ PUSH2 0x4AF JUMPI DUP1 PUSH4 0x8129FC1C EQ PUSH2 0x4DF JUMPI DUP1 PUSH4 0x8456CB59 EQ PUSH2 0x4E9 JUMPI PUSH2 0x206 JUMP JUMPDEST DUP1 PUSH4 0x3644E515 GT PUSH2 0x19D JUMPI DUP1 PUSH4 0x3F4BA83A GT PUSH2 0x16C JUMPI DUP1 PUSH4 0x3F4BA83A EQ PUSH2 0x3DB JUMPI DUP1 PUSH4 0x587CDE1E EQ PUSH2 0x3E5 JUMPI DUP1 PUSH4 0x5C19A95C EQ PUSH2 0x415 JUMPI DUP1 PUSH4 0x5C975ABB EQ PUSH2 0x431 JUMPI DUP1 PUSH4 0x6FCFFF45 EQ PUSH2 0x44F JUMPI PUSH2 0x206 JUMP JUMPDEST DUP1 PUSH4 0x3644E515 EQ PUSH2 0x341 JUMPI DUP1 PUSH4 0x36568ABE EQ PUSH2 0x35F JUMPI DUP1 PUSH4 0x39509351 EQ PUSH2 0x37B JUMPI DUP1 PUSH4 0x3A46B1A8 EQ PUSH2 0x3AB JUMPI PUSH2 0x206 JUMP JUMPDEST DUP1 PUSH4 0x23B872DD GT PUSH2 0x1D9 JUMPI DUP1 PUSH4 0x23B872DD EQ PUSH2 0x2A7 JUMPI DUP1 PUSH4 0x248A9CA3 EQ PUSH2 0x2D7 JUMPI DUP1 PUSH4 0x2F2FF15D EQ PUSH2 0x307 JUMPI DUP1 PUSH4 0x313CE567 EQ PUSH2 0x323 JUMPI PUSH2 0x206 JUMP JUMPDEST DUP1 PUSH4 0x1FFC9A7 EQ PUSH2 0x20B JUMPI DUP1 PUSH4 0x6FDDE03 EQ PUSH2 0x23B JUMPI DUP1 PUSH4 0x95EA7B3 EQ PUSH2 0x259 JUMPI DUP1 PUSH4 0x18160DDD EQ PUSH2 0x289 JUMPI JUMPDEST PUSH1 0x0 DUP1 REVERT JUMPDEST PUSH2 0x225 PUSH1 0x4 DUP1 CALLDATASIZE SUB DUP2 ADD SWAP1 PUSH2 0x220 SWAP2 SWAP1 PUSH2 0x3EFF JUMP JUMPDEST PUSH2 0x6F1 JUMP JUMPDEST PUSH1 0x40 MLOAD PUSH2 0x232 SWAP2 SWAP1 PUSH2 0x44E1 JUMP JUMPDEST PUSH1 0x40 MLOAD DUP1 SWAP2 SUB SWAP1 RETURN JUMPDEST PUSH2 0x243 PUSH2 0x76B JUMP JUMPDEST PUSH1 0x40 MLOAD PUSH2 0x250 SWAP2 SWAP1 PUSH2 0x4655 JUMP JUMPDEST PUSH1 0x40 MLOAD DUP1 SWAP2 SUB SWAP1 RETURN JUMPDEST PUSH2 0x273 PUSH1 0x4 DUP1 CALLDATASIZE SUB DUP2 ADD SWAP1 PUSH2 0x26E SWAP2 SWAP1 PUSH2 0x3D85 JUMP JUMPDEST PUSH2 0x7FD JUMP JUMPDEST PUSH1 0x40 MLOAD PUSH2 0x280 SWAP2 SWAP1 PUSH2 0x44E1 JUMP JUMPDEST PUSH1 0x40 MLOAD DUP1 SWAP2 SUB SWAP1 RETURN JUMPDEST PUSH2 0x291 PUSH2 0x81B JUMP JUMPDEST PUSH1 0x40 MLOAD PUSH2 0x29E SWAP2 SWAP1 PUSH2 0x49B2 JUMP JUMPDEST PUSH1 0x40 MLOAD DUP1 SWAP2 SUB SWAP1 RETURN JUMPDEST PUSH2 0x2C1 PUSH1 0x4 DUP1 CALLDATASIZE SUB DUP2 ADD SWAP1 PUSH2 0x2BC SWAP2 SWAP1 PUSH2 0x3C90 JUMP JUMPDEST PUSH2 0x825 JUMP JUMPDEST PUSH1 0x40 MLOAD PUSH2 0x2CE SWAP2 SWAP1 PUSH2 0x44E1 JUMP JUMPDEST PUSH1 0x40 MLOAD DUP1 SWAP2 SUB SWAP1 RETURN JUMPDEST PUSH2 0x2F1 PUSH1 0x4 DUP1 CALLDATASIZE SUB DUP2 ADD SWAP1 PUSH2 0x2EC SWAP2 SWAP1 PUSH2 0x3E92 JUMP JUMPDEST PUSH2 0x91D JUMP JUMPDEST PUSH1 0x40 MLOAD PUSH2 0x2FE SWAP2 SWAP1 PUSH2 0x44FC JUMP JUMPDEST PUSH1 0x40 MLOAD DUP1 SWAP2 SUB SWAP1 RETURN JUMPDEST PUSH2 0x321 PUSH1 0x4 DUP1 CALLDATASIZE SUB DUP2 ADD SWAP1 PUSH2 0x31C SWAP2 SWAP1 PUSH2 0x3EBF JUMP JUMPDEST PUSH2 0x93D JUMP JUMPDEST STOP JUMPDEST PUSH2 0x32B PUSH2 0x966 JUMP JUMPDEST PUSH1 0x40 MLOAD PUSH2 0x338 SWAP2 SWAP1 PUSH2 0x4A11 JUMP JUMPDEST PUSH1 0x40 MLOAD DUP1 SWAP2 SUB SWAP1 RETURN JUMPDEST PUSH2 0x349 PUSH2 0x96F JUMP JUMPDEST PUSH1 0x40 MLOAD PUSH2 0x356 SWAP2 SWAP1 PUSH2 0x44FC JUMP JUMPDEST PUSH1 0x40 MLOAD DUP1 SWAP2 SUB SWAP1 RETURN JUMPDEST PUSH2 0x379 PUSH1 0x4 DUP1 CALLDATASIZE SUB DUP2 ADD SWAP1 PUSH2 0x374 SWAP2 SWAP1 PUSH2 0x3EBF JUMP JUMPDEST PUSH2 0x97E JUMP JUMPDEST STOP JUMPDEST PUSH2 0x395 PUSH1 0x4 DUP1 CALLDATASIZE SUB DUP2 ADD SWAP1 PUSH2 0x390 SWAP2 SWAP1 PUSH2 0x3D85 JUMP JUMPDEST PUSH2 0xA01 JUMP JUMPDEST PUSH1 0x40 MLOAD PUSH2 0x3A2 SWAP2 SWAP1 PUSH2 0x44E1 JUMP JUMPDEST PUSH1 0x40 MLOAD DUP1 SWAP2 SUB SWAP1 RETURN JUMPDEST PUSH2 0x3C5 PUSH1 0x4 DUP1 CALLDATASIZE SUB DUP2 ADD SWAP1 PUSH2 0x3C0 SWAP2 SWAP1 PUSH2 0x3D85 JUMP JUMPDEST PUSH2 0xAAD JUMP JUMPDEST PUSH1 0x40 MLOAD PUSH2 0x3D2 SWAP2 SWAP1 PUSH2 0x49B2 JUMP JUMPDEST PUSH1 0x40 MLOAD DUP1 SWAP2 SUB SWAP1 RETURN JUMPDEST PUSH2 0x3E3 PUSH2 0xB42 JUMP JUMPDEST STOP JUMPDEST PUSH2 0x3FF PUSH1 0x4 DUP1 CALLDATASIZE SUB DUP2 ADD SWAP1 PUSH2 0x3FA SWAP2 SWAP1 PUSH2 0x3C23 JUMP JUMPDEST PUSH2 0xB7F JUMP JUMPDEST PUSH1 0x40 MLOAD PUSH2 0x40C SWAP2 SWAP1 PUSH2 0x44C6 JUMP JUMPDEST PUSH1 0x40 MLOAD DUP1 SWAP2 SUB SWAP1 RETURN JUMPDEST PUSH2 0x42F PUSH1 0x4 DUP1 CALLDATASIZE SUB DUP2 ADD SWAP1 PUSH2 0x42A SWAP2 SWAP1 PUSH2 0x3C23 JUMP JUMPDEST PUSH2 0xBE9 JUMP JUMPDEST STOP JUMPDEST PUSH2 0x439 PUSH2 0xBFD JUMP JUMPDEST PUSH1 0x40 MLOAD PUSH2 0x446 SWAP2 SWAP1 PUSH2 0x44E1 JUMP JUMPDEST PUSH1 0x40 MLOAD DUP1 SWAP2 SUB SWAP1 RETURN JUMPDEST PUSH2 0x469 PUSH1 0x4 DUP1 CALLDATASIZE SUB DUP2 ADD SWAP1 PUSH2 0x464 SWAP2 SWAP1 PUSH2 0x3C23 JUMP JUMPDEST PUSH2 0xC14 JUMP JUMPDEST PUSH1 0x40 MLOAD PUSH2 0x476 SWAP2 SWAP1 PUSH2 0x49F6 JUMP JUMPDEST PUSH1 0x40 MLOAD DUP1 SWAP2 SUB SWAP1 RETURN JUMPDEST PUSH2 0x499 PUSH1 0x4 DUP1 CALLDATASIZE SUB DUP2 ADD SWAP1 PUSH2 0x494 SWAP2 SWAP1 PUSH2 0x3C23 JUMP JUMPDEST PUSH2 0xC69 JUMP JUMPDEST PUSH1 0x40 MLOAD PUSH2 0x4A6 SWAP2 SWAP1 PUSH2 0x49B2 JUMP JUMPDEST PUSH1 0x40 MLOAD DUP1 SWAP2 SUB SWAP1 RETURN JUMPDEST PUSH2 0x4C9 PUSH1 0x4 DUP1 CALLDATASIZE SUB DUP2 ADD SWAP1 PUSH2 0x4C4 SWAP2 SWAP1 PUSH2 0x3C23 JUMP JUMPDEST PUSH2 0xCB2 JUMP JUMPDEST PUSH1 0x40 MLOAD PUSH2 0x4D6 SWAP2 SWAP1 PUSH2 0x49B2 JUMP JUMPDEST PUSH1 0x40 MLOAD DUP1 SWAP2 SUB SWAP1 RETURN JUMPDEST PUSH2 0x4E7 PUSH2 0xD03 JUMP JUMPDEST STOP JUMPDEST PUSH2 0x4F1 PUSH2 0xF01 JUMP JUMPDEST STOP JUMPDEST PUSH2 0x50D PUSH1 0x4 DUP1 CALLDATASIZE SUB DUP2 ADD SWAP1 PUSH2 0x508 SWAP2 SWAP1 PUSH2 0x3F2C JUMP JUMPDEST PUSH2 0xF3E JUMP JUMPDEST PUSH1 0x40 MLOAD PUSH2 0x51A SWAP2 SWAP1 PUSH2 0x49B2 JUMP JUMPDEST PUSH1 0x40 MLOAD DUP1 SWAP2 SUB SWAP1 RETURN JUMPDEST PUSH2 0x53D PUSH1 0x4 DUP1 CALLDATASIZE SUB DUP2 ADD SWAP1 PUSH2 0x538 SWAP2 SWAP1 PUSH2 0x3EBF JUMP JUMPDEST PUSH2 0xF95 JUMP JUMPDEST PUSH1 0x40 MLOAD PUSH2 0x54A SWAP2 SWAP1 PUSH2 0x44E1 JUMP JUMPDEST PUSH1 0x40 MLOAD DUP1 SWAP2 SUB SWAP1 RETURN JUMPDEST PUSH2 0x55B PUSH2 0x1000 JUMP JUMPDEST PUSH1 0x40 MLOAD PUSH2 0x568 SWAP2 SWAP1 PUSH2 0x4655 JUMP JUMPDEST PUSH1 0x40 MLOAD DUP1 SWAP2 SUB SWAP1 RETURN JUMPDEST PUSH2 0x58B PUSH1 0x4 DUP1 CALLDATASIZE SUB DUP2 ADD SWAP1 PUSH2 0x586 SWAP2 SWAP1 PUSH2 0x3C23 JUMP JUMPDEST PUSH2 0x1092 JUMP JUMPDEST PUSH1 0x40 MLOAD PUSH2 0x598 SWAP2 SWAP1 PUSH2 0x49B2 JUMP JUMPDEST PUSH1 0x40 MLOAD DUP1 SWAP2 SUB SWAP1 RETURN JUMPDEST PUSH2 0x5A9 PUSH2 0x11A5 JUMP JUMPDEST PUSH1 0x40 MLOAD PUSH2 0x5B6 SWAP2 SWAP1 PUSH2 0x44FC JUMP JUMPDEST PUSH1 0x40 MLOAD DUP1 SWAP2 SUB SWAP1 RETURN JUMPDEST PUSH2 0x5D9 PUSH1 0x4 DUP1 CALLDATASIZE SUB DUP2 ADD SWAP1 PUSH2 0x5D4 SWAP2 SWAP1 PUSH2 0x3D85 JUMP JUMPDEST PUSH2 0x11AC JUMP JUMPDEST PUSH1 0x40 MLOAD PUSH2 0x5E6 SWAP2 SWAP1 PUSH2 0x44E1 JUMP JUMPDEST PUSH1 0x40 MLOAD DUP1 SWAP2 SUB SWAP1 RETURN JUMPDEST PUSH2 0x609 PUSH1 0x4 DUP1 CALLDATASIZE SUB DUP2 ADD SWAP1 PUSH2 0x604 SWAP2 SWAP1 PUSH2 0x3D85 JUMP JUMPDEST PUSH2 0x1297 JUMP JUMPDEST PUSH1 0x40 MLOAD PUSH2 0x616 SWAP2 SWAP1 PUSH2 0x44E1 JUMP JUMPDEST PUSH1 0x40 MLOAD DUP1 SWAP2 SUB SWAP1 RETURN JUMPDEST PUSH2 0x639 PUSH1 0x4 DUP1 CALLDATASIZE SUB DUP2 ADD SWAP1 PUSH2 0x634 SWAP2 SWAP1 PUSH2 0x3DC5 JUMP JUMPDEST PUSH2 0x12B5 JUMP JUMPDEST STOP JUMPDEST PUSH2 0x655 PUSH1 0x4 DUP1 CALLDATASIZE SUB DUP2 ADD SWAP1 PUSH2 0x650 SWAP2 SWAP1 PUSH2 0x3CE3 JUMP JUMPDEST PUSH2 0x13B9 JUMP JUMPDEST STOP JUMPDEST PUSH2 0x671 PUSH1 0x4 DUP1 CALLDATASIZE SUB DUP2 ADD SWAP1 PUSH2 0x66C SWAP2 SWAP1 PUSH2 0x3EBF JUMP JUMPDEST PUSH2 0x14DE JUMP JUMPDEST STOP JUMPDEST PUSH2 0x68D PUSH1 0x4 DUP1 CALLDATASIZE SUB DUP2 ADD SWAP1 PUSH2 0x688 SWAP2 SWAP1 PUSH2 0x3C50 JUMP JUMPDEST PUSH2 0x1507 JUMP JUMPDEST PUSH1 0x40 MLOAD PUSH2 0x69A SWAP2 SWAP1 PUSH2 0x49B2 JUMP JUMPDEST PUSH1 0x40 MLOAD DUP1 SWAP2 SUB SWAP1 RETURN JUMPDEST PUSH2 0x6AB PUSH2 0x158E JUMP JUMPDEST PUSH1 0x40 MLOAD PUSH2 0x6B8 SWAP2 SWAP1 PUSH2 0x44FC JUMP JUMPDEST PUSH1 0x40 MLOAD DUP1 SWAP2 SUB SWAP1 RETURN JUMPDEST PUSH2 0x6DB PUSH1 0x4 DUP1 CALLDATASIZE SUB DUP2 ADD SWAP1 PUSH2 0x6D6 SWAP2 SWAP1 PUSH2 0x3E52 JUMP JUMPDEST PUSH2 0x15B2 JUMP JUMPDEST PUSH1 0x40 MLOAD PUSH2 0x6E8 SWAP2 SWAP1 PUSH2 0x4997 JUMP JUMPDEST PUSH1 0x40 MLOAD DUP1 SWAP2 SUB SWAP1 RETURN JUMPDEST PUSH1 0x0 PUSH32 0x7965DB0B00000000000000000000000000000000000000000000000000000000 PUSH28 0xFFFFFFFFFFFFFFFFFFFFFFFFFFFFFFFFFFFFFFFFFFFFFFFFFFFFFFFF NOT AND DUP3 PUSH28 0xFFFFFFFFFFFFFFFFFFFFFFFFFFFFFFFFFFFFFFFFFFFFFFFFFFFFFFFF NOT AND EQ DUP1 PUSH2 0x764 JUMPI POP PUSH2 0x763 DUP3 PUSH2 0x16C3 JUMP JUMPDEST JUMPDEST SWAP1 POP SWAP2 SWAP1 POP JUMP JUMPDEST PUSH1 0x60 PUSH1 0x36 DUP1 SLOAD PUSH2 0x77A SWAP1 PUSH2 0x4DF9 JUMP JUMPDEST DUP1 PUSH1 0x1F ADD PUSH1 0x20 DUP1 SWAP2 DIV MUL PUSH1 0x20 ADD PUSH1 0x40 MLOAD SWAP1 DUP2 ADD PUSH1 0x40 MSTORE DUP1 SWAP3 SWAP2 SWAP1 DUP2 DUP2 MSTORE PUSH1 0x20 ADD DUP3 DUP1 SLOAD PUSH2 0x7A6 SWAP1 PUSH2 0x4DF9 JUMP JUMPDEST DUP1 ISZERO PUSH2 0x7F3 JUMPI DUP1 PUSH1 0x1F LT PUSH2 0x7C8 JUMPI PUSH2 0x100 DUP1 DUP4 SLOAD DIV MUL DUP4 MSTORE SWAP2 PUSH1 0x20 ADD SWAP2 PUSH2 0x7F3 JUMP JUMPDEST DUP3 ADD SWAP2 SWAP1 PUSH1 0x0 MSTORE PUSH1 0x20 PUSH1 0x0 KECCAK256 SWAP1 JUMPDEST DUP2 SLOAD DUP2 MSTORE SWAP1 PUSH1 0x1 ADD SWAP1 PUSH1 0x20 ADD DUP1 DUP4 GT PUSH2 0x7D6 JUMPI DUP3 SWAP1 SUB PUSH1 0x1F AND DUP3 ADD SWAP2 JUMPDEST POP POP POP POP POP SWAP1 POP SWAP1 JUMP JUMPDEST PUSH1 0x0 PUSH2 0x811 PUSH2 0x80A PUSH2 0x172D JUMP JUMPDEST DUP5 DUP5 PUSH2 0x1735 JUMP JUMPDEST PUSH1 0x1 SWAP1 POP SWAP3 SWAP2 POP POP JUMP JUMPDEST PUSH1 0x0 PUSH1 0x35 SLOAD SWAP1 POP SWAP1 JUMP JUMPDEST PUSH1 0x0 PUSH2 0x832 DUP5 DUP5 DUP5 PUSH2 0x1900 JUMP JUMPDEST PUSH1 0x0 PUSH1 0x34 PUSH1 0x0 DUP7 PUSH20 0xFFFFFFFFFFFFFFFFFFFFFFFFFFFFFFFFFFFFFFFF AND PUSH20 0xFFFFFFFFFFFFFFFFFFFFFFFFFFFFFFFFFFFFFFFF AND DUP2 MSTORE PUSH1 0x20 ADD SWAP1 DUP2 MSTORE PUSH1 0x20 ADD PUSH1 0x0 KECCAK256 PUSH1 0x0 PUSH2 0x87D PUSH2 0x172D JUMP JUMPDEST PUSH20 0xFFFFFFFFFFFFFFFFFFFFFFFFFFFFFFFFFFFFFFFF AND PUSH20 0xFFFFFFFFFFFFFFFFFFFFFFFFFFFFFFFFFFFFFFFF AND DUP2 MSTORE PUSH1 0x20 ADD SWAP1 DUP2 MSTORE PUSH1 0x20 ADD PUSH1 0x0 KECCAK256 SLOAD SWAP1 POP DUP3 DUP2 LT ISZERO PUSH2 0x8FD JUMPI PUSH1 0x40 MLOAD PUSH32 0x8C379A000000000000000000000000000000000000000000000000000000000 DUP2 MSTORE PUSH1 0x4 ADD PUSH2 0x8F4 SWAP1 PUSH2 0x4877 JUMP JUMPDEST PUSH1 0x40 MLOAD DUP1 SWAP2 SUB SWAP1 REVERT JUMPDEST PUSH2 0x911 DUP6 PUSH2 0x909 PUSH2 0x172D JUMP JUMPDEST DUP6 DUP5 SUB PUSH2 0x1735 JUMP JUMPDEST PUSH1 0x1 SWAP2 POP POP SWAP4 SWAP3 POP POP POP JUMP JUMPDEST PUSH1 0x0 PUSH1 0xC9 PUSH1 0x0 DUP4 DUP2 MSTORE PUSH1 0x20 ADD SWAP1 DUP2 MSTORE PUSH1 0x20 ADD PUSH1 0x0 KECCAK256 PUSH1 0x1 ADD SLOAD SWAP1 POP SWAP2 SWAP1 POP JUMP JUMPDEST PUSH2 0x946 DUP3 PUSH2 0x91D JUMP JUMPDEST PUSH2 0x957 DUP2 PUSH2 0x952 PUSH2 0x172D JUMP JUMPDEST PUSH2 0x1B84 JUMP JUMPDEST PUSH2 0x961 DUP4 DUP4 PUSH2 0x1C21 JUMP JUMPDEST POP POP POP JUMP JUMPDEST PUSH1 0x0 PUSH1 0x12 SWAP1 POP SWAP1 JUMP JUMPDEST PUSH1 0x0 PUSH2 0x979 PUSH2 0x1D02 JUMP JUMPDEST SWAP1 POP SWAP1 JUMP JUMPDEST PUSH2 0x986 PUSH2 0x172D JUMP JUMPDEST PUSH20 0xFFFFFFFFFFFFFFFFFFFFFFFFFFFFFFFFFFFFFFFF AND DUP2 PUSH20 0xFFFFFFFFFFFFFFFFFFFFFFFFFFFFFFFFFFFFFFFF AND EQ PUSH2 0x9F3 JUMPI PUSH1 0x40 MLOAD PUSH32 0x8C379A000000000000000000000000000000000000000000000000000000000 DUP2 MSTORE PUSH1 0x4 ADD PUSH2 0x9EA SWAP1 PUSH2 0x4957 JUMP JUMPDEST PUSH1 0x40 MLOAD DUP1 SWAP2 SUB SWAP1 REVERT JUMPDEST PUSH2 0x9FD DUP3 DUP3 PUSH2 0x1D42 JUMP JUMPDEST POP POP JUMP JUMPDEST PUSH1 0x0 PUSH2 0xAA3 PUSH2 0xA0E PUSH2 0x172D JUMP JUMPDEST DUP5 DUP5 PUSH1 0x34 PUSH1 0x0 PUSH2 0xA1C PUSH2 0x172D JUMP JUMPDEST PUSH20 0xFFFFFFFFFFFFFFFFFFFFFFFFFFFFFFFFFFFFFFFF AND PUSH20 0xFFFFFFFFFFFFFFFFFFFFFFFFFFFFFFFFFFFFFFFF AND DUP2 MSTORE PUSH1 0x20 ADD SWAP1 DUP2 MSTORE PUSH1 0x20 ADD PUSH1 0x0 KECCAK256 PUSH1 0x0 DUP9 PUSH20 0xFFFFFFFFFFFFFFFFFFFFFFFFFFFFFFFFFFFFFFFF AND PUSH20 0xFFFFFFFFFFFFFFFFFFFFFFFFFFFFFFFFFFFFFFFF AND DUP2 MSTORE PUSH1 0x20 ADD SWAP1 DUP2 MSTORE PUSH1 0x20 ADD PUSH1 0x0 KECCAK256 SLOAD PUSH2 0xA9E SWAP2 SWAP1 PUSH2 0x4A53 JUMP JUMPDEST PUSH2 0x1735 JUMP JUMPDEST PUSH1 0x1 SWAP1 POP SWAP3 SWAP2 POP POP JUMP JUMPDEST PUSH1 0x0 NUMBER DUP3 LT PUSH2 0xAF1 JUMPI PUSH1 0x40 MLOAD PUSH32 0x8C379A000000000000000000000000000000000000000000000000000000000 DUP2 MSTORE PUSH1 0x4 ADD PUSH2 0xAE8 SWAP1 PUSH2 0x46D7 JUMP JUMPDEST PUSH1 0x40 MLOAD DUP1 SWAP2 SUB SWAP1 REVERT JUMPDEST PUSH2 0xB3A PUSH2 0x163 PUSH1 0x0 DUP6 PUSH20 0xFFFFFFFFFFFFFFFFFFFFFFFFFFFFFFFFFFFFFFFF AND PUSH20 0xFFFFFFFFFFFFFFFFFFFFFFFFFFFFFFFFFFFFFFFF AND DUP2 MSTORE PUSH1 0x20 ADD SWAP1 DUP2 MSTORE PUSH1 0x20 ADD PUSH1 0x0 KECCAK256 DUP4 PUSH2 0x1E24 JUMP JUMPDEST SWAP1 POP SWAP3 SWAP2 POP POP JUMP JUMPDEST PUSH32 0x65D7A28E3265B37A6474929F336521B332C1681B933F6CB9F3376673440D862A PUSH2 0xB74 DUP2 PUSH2 0xB6F PUSH2 0x172D JUMP JUMPDEST PUSH2 0x1B84 JUMP JUMPDEST PUSH2 0xB7C PUSH2 0x1F30 JUMP JUMPDEST POP JUMP JUMPDEST PUSH1 0x0 PUSH2 0x162 PUSH1 0x0 DUP4 PUSH20 0xFFFFFFFFFFFFFFFFFFFFFFFFFFFFFFFFFFFFFFFF AND PUSH20 0xFFFFFFFFFFFFFFFFFFFFFFFFFFFFFFFFFFFFFFFF AND DUP2 MSTORE PUSH1 0x20 ADD SWAP1 DUP2 MSTORE PUSH1 0x20 ADD PUSH1 0x0 KECCAK256 PUSH1 0x0 SWAP1 SLOAD SWAP1 PUSH2 0x100 EXP SWAP1 DIV PUSH20 0xFFFFFFFFFFFFFFFFFFFFFFFFFFFFFFFFFFFFFFFF AND SWAP1 POP SWAP2 SWAP1 POP JUMP JUMPDEST PUSH2 0xBFA PUSH2 0xBF4 PUSH2 0x172D JUMP JUMPDEST DUP3 PUSH2 0x1FD2 JUMP JUMPDEST POP JUMP JUMPDEST PUSH1 0x0 PUSH1 0x65 PUSH1 0x0 SWAP1 SLOAD SWAP1 PUSH2 0x100 EXP SWAP1 DIV PUSH1 0xFF AND SWAP1 POP SWAP1 JUMP JUMPDEST PUSH1 0x0 PUSH2 0xC62 PUSH2 0x163 PUSH1 0x0 DUP5 PUSH20 0xFFFFFFFFFFFFFFFFFFFFFFFFFFFFFFFFFFFFFFFF AND PUSH20 0xFFFFFFFFFFFFFFFFFFFFFFFFFFFFFFFFFFFFFFFF AND DUP2 MSTORE PUSH1 0x20 ADD SWAP1 DUP2 MSTORE PUSH1 0x20 ADD PUSH1 0x0 KECCAK256 DUP1 SLOAD SWAP1 POP PUSH2 0x20ED JUMP JUMPDEST SWAP1 POP SWAP2 SWAP1 POP JUMP JUMPDEST PUSH1 0x0 PUSH1 0x33 PUSH1 0x0 DUP4 PUSH20 0xFFFFFFFFFFFFFFFFFFFFFFFFFFFFFFFFFFFFFFFF AND PUSH20 0xFFFFFFFFFFFFFFFFFFFFFFFFFFFFFFFFFFFFFFFF AND DUP2 MSTORE PUSH1 0x20 ADD SWAP1 DUP2 MSTORE PUSH1 0x20 ADD PUSH1 0x0 KECCAK256 SLOAD SWAP1 POP SWAP2 SWAP1 POP JUMP JUMPDEST PUSH1 0x0 PUSH2 0xCFC PUSH2 0x12F PUSH1 0x0 DUP5 PUSH20 0xFFFFFFFFFFFFFFFFFFFFFFFFFFFFFFFFFFFFFFFF AND PUSH20 0xFFFFFFFFFFFFFFFFFFFFFFFFFFFFFFFFFFFFFFFF AND DUP2 MSTORE PUSH1 0x20 ADD SWAP1 DUP2 MSTORE PUSH1 0x20 ADD PUSH1 0x0 KECCAK256 PUSH2 0x2140 JUMP JUMPDEST SWAP1 POP SWAP2 SWAP1 POP JUMP JUMPDEST PUSH1 0x0 PUSH1 0x1 SWAP1 SLOAD SWAP1 PUSH2 0x100 EXP SWAP1 DIV PUSH1 0xFF AND DUP1 PUSH2 0xD29 JUMPI POP PUSH1 0x0 DUP1 SLOAD SWAP1 PUSH2 0x100 EXP SWAP1 DIV PUSH1 0xFF AND ISZERO JUMPDEST PUSH2 0xD68 JUMPI PUSH1 0x40 MLOAD PUSH32 0x8C379A000000000000000000000000000000000000000000000000000000000 DUP2 MSTORE PUSH1 0x4 ADD PUSH2 0xD5F SWAP1 PUSH2 0x4817 JUMP JUMPDEST PUSH1 0x40 MLOAD DUP1 SWAP2 SUB SWAP1 REVERT JUMPDEST PUSH1 0x0 DUP1 PUSH1 0x1 SWAP1 SLOAD SWAP1 PUSH2 0x100 EXP SWAP1 DIV PUSH1 0xFF AND ISZERO SWAP1 POP DUP1 ISZERO PUSH2 0xDB8 JUMPI PUSH1 0x1 PUSH1 0x0 PUSH1 0x1 PUSH2 0x100 EXP DUP2 SLOAD DUP2 PUSH1 0xFF MUL NOT AND SWAP1 DUP4 ISZERO ISZERO MUL OR SWAP1 SSTORE POP PUSH1 0x1 PUSH1 0x0 DUP1 PUSH2 0x100 EXP DUP2 SLOAD DUP2 PUSH1 0xFF MUL NOT AND SWAP1 DUP4 ISZERO ISZERO MUL OR SWAP1 SSTORE POP JUMPDEST PUSH2 0xE2C PUSH1 0x40 MLOAD DUP1 PUSH1 0x40 ADD PUSH1 0x40 MSTORE DUP1 PUSH1 0x8 DUP2 MSTORE PUSH1 0x20 ADD PUSH32 0x4F6D61686144414F000000000000000000000000000000000000000000000000 DUP2 MSTORE POP PUSH1 0x40 MLOAD DUP1 PUSH1 0x40 ADD PUSH1 0x40 MSTORE DUP1 PUSH1 0x4 DUP2 MSTORE PUSH1 0x20 ADD PUSH32 0x42524B4100000000000000000000000000000000000000000000000000000000 DUP2 MSTORE POP PUSH2 0x214E JUMP JUMPDEST PUSH2 0xE34 PUSH2 0x223B JUMP JUMPDEST PUSH2 0xE3C PUSH2 0x2324 JUMP JUMPDEST PUSH2 0xE7A PUSH1 0x40 MLOAD DUP1 PUSH1 0x40 ADD PUSH1 0x40 MSTORE DUP1 PUSH1 0x8 DUP2 MSTORE PUSH1 0x20 ADD PUSH32 0x4F6D61686144414F000000000000000000000000000000000000000000000000 DUP2 MSTORE POP PUSH2 0x2415 JUMP JUMPDEST PUSH2 0xE87 PUSH1 0x0 DUP1 SHL CALLER PUSH2 0x253F JUMP JUMPDEST PUSH2 0xEB1 PUSH32 0x65D7A28E3265B37A6474929F336521B332C1681B933F6CB9F3376673440D862A CALLER PUSH2 0x253F JUMP JUMPDEST PUSH2 0xEDD CALLER PUSH2 0xEBD PUSH2 0x966 JUMP JUMPDEST PUSH1 0xA PUSH2 0xEC9 SWAP2 SWAP1 PUSH2 0x4B2D JUMP JUMPDEST PUSH4 0x5F5E100 PUSH2 0xED8 SWAP2 SWAP1 PUSH2 0x4C4B JUMP JUMPDEST PUSH2 0x254D JUMP JUMPDEST DUP1 ISZERO PUSH2 0xEFE JUMPI PUSH1 0x0 DUP1 PUSH1 0x1 PUSH2 0x100 EXP DUP2 SLOAD DUP2 PUSH1 0xFF MUL NOT AND SWAP1 DUP4 ISZERO ISZERO MUL OR SWAP1 SSTORE POP JUMPDEST POP JUMP JUMPDEST PUSH32 0x65D7A28E3265B37A6474929F336521B332C1681B933F6CB9F3376673440D862A PUSH2 0xF33 DUP2 PUSH2 0xF2E PUSH2 0x172D JUMP JUMPDEST PUSH2 0x1B84 JUMP JUMPDEST PUSH2 0xF3B PUSH2 0x255B JUMP JUMPDEST POP JUMP JUMPDEST PUSH1 0x0 NUMBER DUP3 LT PUSH2 0xF82 JUMPI PUSH1 0x40 MLOAD PUSH32 0x8C379A000000000000000000000000000000000000000000000000000000000 DUP2 MSTORE PUSH1 0x4 ADD PUSH2 0xF79 SWAP1 PUSH2 0x46D7 JUMP JUMPDEST PUSH1 0x40 MLOAD DUP1 SWAP2 SUB SWAP1 REVERT JUMPDEST PUSH2 0xF8E PUSH2 0x164 DUP4 PUSH2 0x1E24 JUMP JUMPDEST SWAP1 POP SWAP2 SWAP1 POP JUMP JUMPDEST PUSH1 0x0 PUSH1 0xC9 PUSH1 0x0 DUP5 DUP2 MSTORE PUSH1 0x20 ADD SWAP1 DUP2 MSTORE PUSH1 0x20 ADD PUSH1 0x0 KECCAK256 PUSH1 0x0 ADD PUSH1 0x0 DUP4 PUSH20 0xFFFFFFFFFFFFFFFFFFFFFFFFFFFFFFFFFFFFFFFF AND PUSH20 0xFFFFFFFFFFFFFFFFFFFFFFFFFFFFFFFFFFFFFFFF AND DUP2 MSTORE PUSH1 0x20 ADD SWAP1 DUP2 MSTORE PUSH1 0x20 ADD PUSH1 0x0 KECCAK256 PUSH1 0x0 SWAP1 SLOAD SWAP1 PUSH2 0x100 EXP SWAP1 DIV PUSH1 0xFF AND SWAP1 POP SWAP3 SWAP2 POP POP JUMP JUMPDEST PUSH1 0x60 PUSH1 0x37 DUP1 SLOAD PUSH2 0x100F SWAP1 PUSH2 0x4DF9 JUMP JUMPDEST DUP1 PUSH1 0x1F ADD PUSH1 0x20 DUP1 SWAP2 DIV MUL PUSH1 0x20 ADD PUSH1 0x40 MLOAD SWAP1 DUP2 ADD PUSH1 0x40 MSTORE DUP1 SWAP3 SWAP2 SWAP1 DUP2 DUP2 MSTORE PUSH1 0x20 ADD DUP3 DUP1 SLOAD PUSH2 0x103B SWAP1 PUSH2 0x4DF9 JUMP JUMPDEST DUP1 ISZERO PUSH2 0x1088 JUMPI DUP1 PUSH1 0x1F LT PUSH2 0x105D JUMPI PUSH2 0x100 DUP1 DUP4 SLOAD DIV MUL DUP4 MSTORE SWAP2 PUSH1 0x20 ADD SWAP2 PUSH2 0x1088 JUMP JUMPDEST DUP3 ADD SWAP2 SWAP1 PUSH1 0x0 MSTORE PUSH1 0x20 PUSH1 0x0 KECCAK256 SWAP1 JUMPDEST DUP2 SLOAD DUP2 MSTORE SWAP1 PUSH1 0x1 ADD SWAP1 PUSH1 0x20 ADD DUP1 DUP4 GT PUSH2 0x106B JUMPI DUP3 SWAP1 SUB PUSH1 0x1F AND DUP3 ADD SWAP2 JUMPDEST POP POP POP POP POP SWAP1 POP SWAP1 JUMP JUMPDEST PUSH1 0x0 DUP1 PUSH2 0x163 PUSH1 0x0 DUP5 PUSH20 0xFFFFFFFFFFFFFFFFFFFFFFFFFFFFFFFFFFFFFFFF AND PUSH20 0xFFFFFFFFFFFFFFFFFFFFFFFFFFFFFFFFFFFFFFFF AND DUP2 MSTORE PUSH1 0x20 ADD SWAP1 DUP2 MSTORE PUSH1 0x20 ADD PUSH1 0x0 KECCAK256 DUP1 SLOAD SWAP1 POP SWAP1 POP PUSH1 0x0 DUP2 EQ PUSH2 0x117C JUMPI PUSH2 0x163 PUSH1 0x0 DUP5 PUSH20 0xFFFFFFFFFFFFFFFFFFFFFFFFFFFFFFFFFFFFFFFF AND PUSH20 0xFFFFFFFFFFFFFFFFFFFFFFFFFFFFFFFFFFFFFFFF AND DUP2 MSTORE PUSH1 0x20 ADD SWAP1 DUP2 MSTORE PUSH1 0x20 ADD PUSH1 0x0 KECCAK256 PUSH1 0x1 DUP3 PUSH2 0x1130 SWAP2 SWAP1 PUSH2 0x4CA5 JUMP JUMPDEST DUP2 SLOAD DUP2 LT PUSH2 0x1141 JUMPI PUSH2 0x1140 PUSH2 0x4EF1 JUMP JUMPDEST JUMPDEST SWAP1 PUSH1 0x0 MSTORE PUSH1 0x20 PUSH1 0x0 KECCAK256 ADD PUSH1 0x0 ADD PUSH1 0x4 SWAP1 SLOAD SWAP1 PUSH2 0x100 EXP SWAP1 DIV PUSH28 0xFFFFFFFFFFFFFFFFFFFFFFFFFFFFFFFFFFFFFFFFFFFFFFFFFFFFFFFF AND PUSH2 0x117F JUMP JUMPDEST PUSH1 0x0 JUMPDEST PUSH28 0xFFFFFFFFFFFFFFFFFFFFFFFFFFFFFFFFFFFFFFFFFFFFFFFFFFFFFFFF AND SWAP2 POP POP SWAP2 SWAP1 POP JUMP JUMPDEST PUSH1 0x0 DUP1 SHL DUP2 JUMP JUMPDEST PUSH1 0x0 DUP1 PUSH1 0x34 PUSH1 0x0 PUSH2 0x11BB PUSH2 0x172D JUMP JUMPDEST PUSH20 0xFFFFFFFFFFFFFFFFFFFFFFFFFFFFFFFFFFFFFFFF AND PUSH20 0xFFFFFFFFFFFFFFFFFFFFFFFFFFFFFFFFFFFFFFFF AND DUP2 MSTORE PUSH1 0x20 ADD SWAP1 DUP2 MSTORE PUSH1 0x20 ADD PUSH1 0x0 KECCAK256 PUSH1 0x0 DUP6 PUSH20 0xFFFFFFFFFFFFFFFFFFFFFFFFFFFFFFFFFFFFFFFF AND PUSH20 0xFFFFFFFFFFFFFFFFFFFFFFFFFFFFFFFFFFFFFFFF AND DUP2 MSTORE PUSH1 0x20 ADD SWAP1 DUP2 MSTORE PUSH1 0x20 ADD PUSH1 0x0 KECCAK256 SLOAD SWAP1 POP DUP3 DUP2 LT ISZERO PUSH2 0x1278 JUMPI PUSH1 0x40 MLOAD PUSH32 0x8C379A000000000000000000000000000000000000000000000000000000000 DUP2 MSTORE PUSH1 0x4 ADD PUSH2 0x126F SWAP1 PUSH2 0x4937 JUMP JUMPDEST PUSH1 0x40 MLOAD DUP1 SWAP2 SUB SWAP1 REVERT JUMPDEST PUSH2 0x128C PUSH2 0x1283 PUSH2 0x172D JUMP JUMPDEST DUP6 DUP6 DUP5 SUB PUSH2 0x1735 JUMP JUMPDEST PUSH1 0x1 SWAP2 POP POP SWAP3 SWAP2 POP POP JUMP JUMPDEST PUSH1 0x0 PUSH2 0x12AB PUSH2 0x12A4 PUSH2 0x172D JUMP JUMPDEST DUP5 DUP5 PUSH2 0x1900 JUMP JUMPDEST PUSH1 0x1 SWAP1 POP SWAP3 SWAP2 POP POP JUMP JUMPDEST DUP4 TIMESTAMP GT ISZERO PUSH2 0x12F8 JUMPI PUSH1 0x40 MLOAD PUSH32 0x8C379A000000000000000000000000000000000000000000000000000000000 DUP2 MSTORE PUSH1 0x4 ADD PUSH2 0x12EF SWAP1 PUSH2 0x4717 JUMP JUMPDEST PUSH1 0x40 MLOAD DUP1 SWAP2 SUB SWAP1 REVERT JUMPDEST PUSH1 0x0 PUSH2 0x135A PUSH2 0x1352 PUSH32 0xE48329057BFD03D55E49B547132E39CFFD9C1820AD7B9D4C5307691425D15ADF DUP10 DUP10 DUP10 PUSH1 0x40 MLOAD PUSH1 0x20 ADD PUSH2 0x1337 SWAP5 SWAP4 SWAP3 SWAP2 SWAP1 PUSH2 0x4578 JUMP JUMPDEST PUSH1 0x40 MLOAD PUSH1 0x20 DUP2 DUP4 SUB SUB DUP2 MSTORE SWAP1 PUSH1 0x40 MSTORE DUP1 MLOAD SWAP1 PUSH1 0x20 ADD KECCAK256 PUSH2 0x25FE JUMP JUMPDEST DUP6 DUP6 DUP6 PUSH2 0x2618 JUMP JUMPDEST SWAP1 POP PUSH2 0x1365 DUP2 PUSH2 0x2643 JUMP JUMPDEST DUP7 EQ PUSH2 0x13A6 JUMPI PUSH1 0x40 MLOAD PUSH32 0x8C379A000000000000000000000000000000000000000000000000000000000 DUP2 MSTORE PUSH1 0x4 ADD PUSH2 0x139D SWAP1 PUSH2 0x4757 JUMP JUMPDEST PUSH1 0x40 MLOAD DUP1 SWAP2 SUB SWAP1 REVERT JUMPDEST PUSH2 0x13B0 DUP2 DUP9 PUSH2 0x1FD2 JUMP JUMPDEST POP POP POP POP POP POP POP JUMP JUMPDEST DUP4 TIMESTAMP GT ISZERO PUSH2 0x13FC JUMPI PUSH1 0x40 MLOAD PUSH32 0x8C379A000000000000000000000000000000000000000000000000000000000 DUP2 MSTORE PUSH1 0x4 ADD PUSH2 0x13F3 SWAP1 PUSH2 0x4797 JUMP JUMPDEST PUSH1 0x40 MLOAD DUP1 SWAP2 SUB SWAP1 REVERT JUMPDEST PUSH1 0x0 PUSH2 0x130 SLOAD DUP9 DUP9 DUP9 PUSH2 0x140E DUP13 PUSH2 0x2643 JUMP JUMPDEST DUP10 PUSH1 0x40 MLOAD PUSH1 0x20 ADD PUSH2 0x1424 SWAP7 SWAP6 SWAP5 SWAP4 SWAP3 SWAP2 SWAP1 PUSH2 0x4517 JUMP JUMPDEST PUSH1 0x40 MLOAD PUSH1 0x20 DUP2 DUP4 SUB SUB DUP2 MSTORE SWAP1 PUSH1 0x40 MSTORE DUP1 MLOAD SWAP1 PUSH1 0x20 ADD KECCAK256 SWAP1 POP PUSH1 0x0 PUSH2 0x1447 DUP3 PUSH2 0x25FE JUMP JUMPDEST SWAP1 POP PUSH1 0x0 PUSH2 0x1457 DUP3 DUP8 DUP8 DUP8 PUSH2 0x2618 JUMP JUMPDEST SWAP1 POP DUP10 PUSH20 0xFFFFFFFFFFFFFFFFFFFFFFFFFFFFFFFFFFFFFFFF AND DUP2 PUSH20 0xFFFFFFFFFFFFFFFFFFFFFFFFFFFFFFFFFFFFFFFF AND EQ PUSH2 0x14C7 JUMPI PUSH1 0x40 MLOAD PUSH32 0x8C379A000000000000000000000000000000000000000000000000000000000 DUP2 MSTORE PUSH1 0x4 ADD PUSH2 0x14BE SWAP1 PUSH2 0x4857 JUMP JUMPDEST PUSH1 0x40 MLOAD DUP1 SWAP2 SUB SWAP1 REVERT JUMPDEST PUSH2 0x14D2 DUP11 DUP11 DUP11 PUSH2 0x1735 JUMP JUMPDEST POP POP POP POP POP POP POP POP POP POP JUMP JUMPDEST PUSH2 0x14E7 DUP3 PUSH2 0x91D JUMP JUMPDEST PUSH2 0x14F8 DUP2 PUSH2 0x14F3 PUSH2 0x172D JUMP JUMPDEST PUSH2 0x1B84 JUMP JUMPDEST PUSH2 0x1502 DUP4 DUP4 PUSH2 0x1D42 JUMP JUMPDEST POP POP POP JUMP JUMPDEST PUSH1 0x0 PUSH1 0x34 PUSH1 0x0 DUP5 PUSH20 0xFFFFFFFFFFFFFFFFFFFFFFFFFFFFFFFFFFFFFFFF AND PUSH20 0xFFFFFFFFFFFFFFFFFFFFFFFFFFFFFFFFFFFFFFFF AND DUP2 MSTORE PUSH1 0x20 ADD SWAP1 DUP2 MSTORE PUSH1 0x20 ADD PUSH1 0x0 KECCAK256 PUSH1 0x0 DUP4 PUSH20 0xFFFFFFFFFFFFFFFFFFFFFFFFFFFFFFFFFFFFFFFF AND PUSH20 0xFFFFFFFFFFFFFFFFFFFFFFFFFFFFFFFFFFFFFFFF AND DUP2 MSTORE PUSH1 0x20 ADD SWAP1 DUP2 MSTORE PUSH1 0x20 ADD PUSH1 0x0 KECCAK256 SLOAD SWAP1 POP SWAP3 SWAP2 POP POP JUMP JUMPDEST PUSH32 0x65D7A28E3265B37A6474929F336521B332C1681B933F6CB9F3376673440D862A DUP2 JUMP JUMPDEST PUSH2 0x15BA PUSH2 0x3AC4 JUMP JUMPDEST PUSH2 0x163 PUSH1 0x0 DUP5 PUSH20 0xFFFFFFFFFFFFFFFFFFFFFFFFFFFFFFFFFFFFFFFF AND PUSH20 0xFFFFFFFFFFFFFFFFFFFFFFFFFFFFFFFFFFFFFFFF AND DUP2 MSTORE PUSH1 0x20 ADD SWAP1 DUP2 MSTORE PUSH1 0x20 ADD PUSH1 0x0 KECCAK256 DUP3 PUSH4 0xFFFFFFFF AND DUP2 SLOAD DUP2 LT PUSH2 0x1612 JUMPI PUSH2 0x1611 PUSH2 0x4EF1 JUMP JUMPDEST JUMPDEST SWAP1 PUSH1 0x0 MSTORE PUSH1 0x20 PUSH1 0x0 KECCAK256 ADD PUSH1 0x40 MLOAD DUP1 PUSH1 0x40 ADD PUSH1 0x40 MSTORE SWAP1 DUP2 PUSH1 0x0 DUP3 ADD PUSH1 0x0 SWAP1 SLOAD SWAP1 PUSH2 0x100 EXP SWAP1 DIV PUSH4 0xFFFFFFFF AND PUSH4 0xFFFFFFFF AND PUSH4 0xFFFFFFFF AND DUP2 MSTORE PUSH1 0x20 ADD PUSH1 0x0 DUP3 ADD PUSH1 0x4 SWAP1 SLOAD SWAP1 PUSH2 0x100 EXP SWAP1 DIV PUSH28 0xFFFFFFFFFFFFFFFFFFFFFFFFFFFFFFFFFFFFFFFFFFFFFFFFFFFFFFFF AND PUSH28 0xFFFFFFFFFFFFFFFFFFFFFFFFFFFFFFFFFFFFFFFFFFFFFFFFFFFFFFFF AND PUSH28 0xFFFFFFFFFFFFFFFFFFFFFFFFFFFFFFFFFFFFFFFFFFFFFFFFFFFFFFFF AND DUP2 MSTORE POP POP SWAP1 POP SWAP3 SWAP2 POP POP JUMP JUMPDEST PUSH1 0x0 PUSH32 0x1FFC9A700000000000000000000000000000000000000000000000000000000 PUSH28 0xFFFFFFFFFFFFFFFFFFFFFFFFFFFFFFFFFFFFFFFFFFFFFFFFFFFFFFFF NOT AND DUP3 PUSH28 0xFFFFFFFFFFFFFFFFFFFFFFFFFFFFFFFFFFFFFFFFFFFFFFFFFFFFFFFF NOT AND EQ SWAP1 POP SWAP2 SWAP1 POP JUMP JUMPDEST PUSH1 0x0 CALLER SWAP1 POP SWAP1 JUMP JUMPDEST PUSH1 0x0 PUSH20 0xFFFFFFFFFFFFFFFFFFFFFFFFFFFFFFFFFFFFFFFF AND DUP4 PUSH20 0xFFFFFFFFFFFFFFFFFFFFFFFFFFFFFFFFFFFFFFFF AND EQ ISZERO PUSH2 0x17A5 JUMPI PUSH1 0x40 MLOAD PUSH32 0x8C379A000000000000000000000000000000000000000000000000000000000 DUP2 MSTORE PUSH1 0x4 ADD PUSH2 0x179C SWAP1 PUSH2 0x4917 JUMP JUMPDEST PUSH1 0x40 MLOAD DUP1 SWAP2 SUB SWAP1 REVERT JUMPDEST PUSH1 0x0 PUSH20 0xFFFFFFFFFFFFFFFFFFFFFFFFFFFFFFFFFFFFFFFF AND DUP3 PUSH20 0xFFFFFFFFFFFFFFFFFFFFFFFFFFFFFFFFFFFFFFFF AND EQ ISZERO PUSH2 0x1815 JUMPI PUSH1 0x40 MLOAD PUSH32 0x8C379A000000000000000000000000000000000000000000000000000000000 DUP2 MSTORE PUSH1 0x4 ADD PUSH2 0x180C SWAP1 PUSH2 0x4777 JUMP JUMPDEST PUSH1 0x40 MLOAD DUP1 SWAP2 SUB SWAP1 REVERT JUMPDEST DUP1 PUSH1 0x34 PUSH1 0x0 DUP6 PUSH20 0xFFFFFFFFFFFFFFFFFFFFFFFFFFFFFFFFFFFFFFFF AND PUSH20 0xFFFFFFFFFFFFFFFFFFFFFFFFFFFFFFFFFFFFFFFF AND DUP2 MSTORE PUSH1 0x20 ADD SWAP1 DUP2 MSTORE PUSH1 0x20 ADD PUSH1 0x0 KECCAK256 PUSH1 0x0 DUP5 PUSH20 0xFFFFFFFFFFFFFFFFFFFFFFFFFFFFFFFFFFFFFFFF AND PUSH20 0xFFFFFFFFFFFFFFFFFFFFFFFFFFFFFFFFFFFFFFFF AND DUP2 MSTORE PUSH1 0x20 ADD SWAP1 DUP2 MSTORE PUSH1 0x20 ADD PUSH1 0x0 KECCAK256 DUP2 SWAP1 SSTORE POP DUP2 PUSH20 0xFFFFFFFFFFFFFFFFFFFFFFFFFFFFFFFFFFFFFFFF AND DUP4 PUSH20 0xFFFFFFFFFFFFFFFFFFFFFFFFFFFFFFFFFFFFFFFF AND PUSH32 0x8C5BE1E5EBEC7D5BD14F71427D1E84F3DD0314C0F7B2291E5B200AC8C7C3B925 DUP4 PUSH1 0x40 MLOAD PUSH2 0x18F3 SWAP2 SWAP1 PUSH2 0x49B2 JUMP JUMPDEST PUSH1 0x40 MLOAD DUP1 SWAP2 SUB SWAP1 LOG3 POP POP POP JUMP JUMPDEST PUSH1 0x0 PUSH20 0xFFFFFFFFFFFFFFFFFFFFFFFFFFFFFFFFFFFFFFFF AND DUP4 PUSH20 0xFFFFFFFFFFFFFFFFFFFFFFFFFFFFFFFFFFFFFFFF AND EQ ISZERO PUSH2 0x1970 JUMPI PUSH1 0x40 MLOAD PUSH32 0x8C379A000000000000000000000000000000000000000000000000000000000 DUP2 MSTORE PUSH1 0x4 ADD PUSH2 0x1967 SWAP1 PUSH2 0x48D7 JUMP JUMPDEST PUSH1 0x40 MLOAD DUP1 SWAP2 SUB SWAP1 REVERT JUMPDEST PUSH1 0x0 PUSH20 0xFFFFFFFFFFFFFFFFFFFFFFFFFFFFFFFFFFFFFFFF AND DUP3 PUSH20 0xFFFFFFFFFFFFFFFFFFFFFFFFFFFFFFFFFFFFFFFF AND EQ ISZERO PUSH2 0x19E0 JUMPI PUSH1 0x40 MLOAD PUSH32 0x8C379A000000000000000000000000000000000000000000000000000000000 DUP2 MSTORE PUSH1 0x4 ADD PUSH2 0x19D7 SWAP1 PUSH2 0x46B7 JUMP JUMPDEST PUSH1 0x40 MLOAD DUP1 SWAP2 SUB SWAP1 REVERT JUMPDEST PUSH2 0x19EB DUP4 DUP4 DUP4 PUSH2 0x26A2 JUMP JUMPDEST PUSH1 0x0 PUSH1 0x33 PUSH1 0x0 DUP6 PUSH20 0xFFFFFFFFFFFFFFFFFFFFFFFFFFFFFFFFFFFFFFFF AND PUSH20 0xFFFFFFFFFFFFFFFFFFFFFFFFFFFFFFFFFFFFFFFF AND DUP2 MSTORE PUSH1 0x20 ADD SWAP1 DUP2 MSTORE PUSH1 0x20 ADD PUSH1 0x0 KECCAK256 SLOAD SWAP1 POP DUP2 DUP2 LT ISZERO PUSH2 0x1A72 JUMPI PUSH1 0x40 MLOAD PUSH32 0x8C379A000000000000000000000000000000000000000000000000000000000 DUP2 MSTORE PUSH1 0x4 ADD PUSH2 0x1A69 SWAP1 PUSH2 0x47B7 JUMP JUMPDEST PUSH1 0x40 MLOAD DUP1 SWAP2 SUB SWAP1 REVERT JUMPDEST DUP2 DUP2 SUB PUSH1 0x33 PUSH1 0x0 DUP7 PUSH20 0xFFFFFFFFFFFFFFFFFFFFFFFFFFFFFFFFFFFFFFFF AND PUSH20 0xFFFFFFFFFFFFFFFFFFFFFFFFFFFFFFFFFFFFFFFF AND DUP2 MSTORE PUSH1 0x20 ADD SWAP1 DUP2 MSTORE PUSH1 0x20 ADD PUSH1 0x0 KECCAK256 DUP2 SWAP1 SSTORE POP DUP2 PUSH1 0x33 PUSH1 0x0 DUP6 PUSH20 0xFFFFFFFFFFFFFFFFFFFFFFFFFFFFFFFFFFFFFFFF AND PUSH20 0xFFFFFFFFFFFFFFFFFFFFFFFFFFFFFFFFFFFFFFFF AND DUP2 MSTORE PUSH1 0x20 ADD SWAP1 DUP2 MSTORE PUSH1 0x20 ADD PUSH1 0x0 KECCAK256 PUSH1 0x0 DUP3 DUP3 SLOAD PUSH2 0x1B07 SWAP2 SWAP1 PUSH2 0x4A53 JUMP JUMPDEST SWAP3 POP POP DUP2 SWAP1 SSTORE POP DUP3 PUSH20 0xFFFFFFFFFFFFFFFFFFFFFFFFFFFFFFFFFFFFFFFF AND DUP5 PUSH20 0xFFFFFFFFFFFFFFFFFFFFFFFFFFFFFFFFFFFFFFFF AND PUSH32 0xDDF252AD1BE2C89B69C2B068FC378DAA952BA7F163C4A11628F55A4DF523B3EF DUP5 PUSH1 0x40 MLOAD PUSH2 0x1B6B SWAP2 SWAP1 PUSH2 0x49B2 JUMP JUMPDEST PUSH1 0x40 MLOAD DUP1 SWAP2 SUB SWAP1 LOG3 PUSH2 0x1B7E DUP5 DUP5 DUP5 PUSH2 0x26FA JUMP JUMPDEST POP POP POP POP JUMP JUMPDEST PUSH2 0x1B8E DUP3 DUP3 PUSH2 0xF95 JUMP JUMPDEST PUSH2 0x1C1D JUMPI PUSH2 0x1BB3 DUP2 PUSH20 0xFFFFFFFFFFFFFFFFFFFFFFFFFFFFFFFFFFFFFFFF AND PUSH1 0x14 PUSH2 0x270A JUMP JUMPDEST PUSH2 0x1BC1 DUP4 PUSH1 0x0 SHR PUSH1 0x20 PUSH2 0x270A JUMP JUMPDEST PUSH1 0x40 MLOAD PUSH1 0x20 ADD PUSH2 0x1BD2 SWAP3 SWAP2 SWAP1 PUSH2 0x448C JUMP JUMPDEST PUSH1 0x40 MLOAD PUSH1 0x20 DUP2 DUP4 SUB SUB DUP2 MSTORE SWAP1 PUSH1 0x40 MSTORE PUSH1 0x40 MLOAD PUSH32 0x8C379A000000000000000000000000000000000000000000000000000000000 DUP2 MSTORE PUSH1 0x4 ADD PUSH2 0x1C14 SWAP2 SWAP1 PUSH2 0x4655 JUMP JUMPDEST PUSH1 0x40 MLOAD DUP1 SWAP2 SUB SWAP1 REVERT JUMPDEST POP POP JUMP JUMPDEST PUSH2 0x1C2B DUP3 DUP3 PUSH2 0xF95 JUMP JUMPDEST PUSH2 0x1CFE JUMPI PUSH1 0x1 PUSH1 0xC9 PUSH1 0x0 DUP5 DUP2 MSTORE PUSH1 0x20 ADD SWAP1 DUP2 MSTORE PUSH1 0x20 ADD PUSH1 0x0 KECCAK256 PUSH1 0x0 ADD PUSH1 0x0 DUP4 PUSH20 0xFFFFFFFFFFFFFFFFFFFFFFFFFFFFFFFFFFFFFFFF AND PUSH20 0xFFFFFFFFFFFFFFFFFFFFFFFFFFFFFFFFFFFFFFFF AND DUP2 MSTORE PUSH1 0x20 ADD SWAP1 DUP2 MSTORE PUSH1 0x20 ADD PUSH1 0x0 KECCAK256 PUSH1 0x0 PUSH2 0x100 EXP DUP2 SLOAD DUP2 PUSH1 0xFF MUL NOT AND SWAP1 DUP4 ISZERO ISZERO MUL OR SWAP1 SSTORE POP PUSH2 0x1CA3 PUSH2 0x172D JUMP JUMPDEST PUSH20 0xFFFFFFFFFFFFFFFFFFFFFFFFFFFFFFFFFFFFFFFF AND DUP2 PUSH20 0xFFFFFFFFFFFFFFFFFFFFFFFFFFFFFFFFFFFFFFFF AND DUP4 PUSH32 0x2F8788117E7EFF1D82E926EC794901D17C78024A50270940304540A733656F0D PUSH1 0x40 MLOAD PUSH1 0x40 MLOAD DUP1 SWAP2 SUB SWAP1 LOG4 JUMPDEST POP POP JUMP JUMPDEST PUSH1 0x0 PUSH2 0x1D3D PUSH32 0x8B73C3C69BB8FE3D512ECC4CF759CC79239F7B179B0FFACAA9A75D522B39400F PUSH2 0x1D30 PUSH2 0x2946 JUMP JUMPDEST PUSH2 0x1D38 PUSH2 0x2950 JUMP JUMPDEST PUSH2 0x295A JUMP JUMPDEST SWAP1 POP SWAP1 JUMP JUMPDEST PUSH2 0x1D4C DUP3 DUP3 PUSH2 0xF95 JUMP JUMPDEST ISZERO PUSH2 0x1E20 JUMPI PUSH1 0x0 PUSH1 0xC9 PUSH1 0x0 DUP5 DUP2 MSTORE PUSH1 0x20 ADD SWAP1 DUP2 MSTORE PUSH1 0x20 ADD PUSH1 0x0 KECCAK256 PUSH1 0x0 ADD PUSH1 0x0 DUP4 PUSH20 0xFFFFFFFFFFFFFFFFFFFFFFFFFFFFFFFFFFFFFFFF AND PUSH20 0xFFFFFFFFFFFFFFFFFFFFFFFFFFFFFFFFFFFFFFFF AND DUP2 MSTORE PUSH1 0x20 ADD SWAP1 DUP2 MSTORE PUSH1 0x20 ADD PUSH1 0x0 KECCAK256 PUSH1 0x0 PUSH2 0x100 EXP DUP2 SLOAD DUP2 PUSH1 0xFF MUL NOT AND SWAP1 DUP4 ISZERO ISZERO MUL OR SWAP1 SSTORE POP PUSH2 0x1DC5 PUSH2 0x172D JUMP JUMPDEST PUSH20 0xFFFFFFFFFFFFFFFFFFFFFFFFFFFFFFFFFFFFFFFF AND DUP2 PUSH20 0xFFFFFFFFFFFFFFFFFFFFFFFFFFFFFFFFFFFFFFFF AND DUP4 PUSH32 0xF6391F5C32D9C69D2A47EA670B442974B53935D1EDC7FD64EB21E047A839171B PUSH1 0x40 MLOAD PUSH1 0x40 MLOAD DUP1 SWAP2 SUB SWAP1 LOG4 JUMPDEST POP POP JUMP JUMPDEST PUSH1 0x0 DUP1 DUP4 DUP1 SLOAD SWAP1 POP SWAP1 POP PUSH1 0x0 JUMPDEST DUP2 DUP2 LT ISZERO PUSH2 0x1EA3 JUMPI PUSH1 0x0 PUSH2 0x1E45 DUP3 DUP5 PUSH2 0x2994 JUMP JUMPDEST SWAP1 POP DUP5 DUP7 DUP3 DUP2 SLOAD DUP2 LT PUSH2 0x1E5B JUMPI PUSH2 0x1E5A PUSH2 0x4EF1 JUMP JUMPDEST JUMPDEST SWAP1 PUSH1 0x0 MSTORE PUSH1 0x20 PUSH1 0x0 KECCAK256 ADD PUSH1 0x0 ADD PUSH1 0x0 SWAP1 SLOAD SWAP1 PUSH2 0x100 EXP SWAP1 DIV PUSH4 0xFFFFFFFF AND PUSH4 0xFFFFFFFF AND GT ISZERO PUSH2 0x1E8D JUMPI DUP1 SWAP3 POP PUSH2 0x1E9D JUMP JUMPDEST PUSH1 0x1 DUP2 PUSH2 0x1E9A SWAP2 SWAP1 PUSH2 0x4A53 JUMP JUMPDEST SWAP2 POP JUMPDEST POP PUSH2 0x1E31 JUMP JUMPDEST PUSH1 0x0 DUP3 EQ PUSH2 0x1F05 JUMPI DUP5 PUSH1 0x1 DUP4 PUSH2 0x1EB9 SWAP2 SWAP1 PUSH2 0x4CA5 JUMP JUMPDEST DUP2 SLOAD DUP2 LT PUSH2 0x1ECA JUMPI PUSH2 0x1EC9 PUSH2 0x4EF1 JUMP JUMPDEST JUMPDEST SWAP1 PUSH1 0x0 MSTORE PUSH1 0x20 PUSH1 0x0 KECCAK256 ADD PUSH1 0x0 ADD PUSH1 0x4 SWAP1 SLOAD SWAP1 PUSH2 0x100 EXP SWAP1 DIV PUSH28 0xFFFFFFFFFFFFFFFFFFFFFFFFFFFFFFFFFFFFFFFFFFFFFFFFFFFFFFFF AND PUSH2 0x1F08 JUMP JUMPDEST PUSH1 0x0 JUMPDEST PUSH28 0xFFFFFFFFFFFFFFFFFFFFFFFFFFFFFFFFFFFFFFFFFFFFFFFFFFFFFFFF AND SWAP3 POP POP POP SWAP3 SWAP2 POP POP JUMP JUMPDEST PUSH2 0x1F38 PUSH2 0xBFD JUMP JUMPDEST PUSH2 0x1F77 JUMPI PUSH1 0x40 MLOAD PUSH32 0x8C379A000000000000000000000000000000000000000000000000000000000 DUP2 MSTORE PUSH1 0x4 ADD PUSH2 0x1F6E SWAP1 PUSH2 0x46F7 JUMP JUMPDEST PUSH1 0x40 MLOAD DUP1 SWAP2 SUB SWAP1 REVERT JUMPDEST PUSH1 0x0 PUSH1 0x65 PUSH1 0x0 PUSH2 0x100 EXP DUP2 SLOAD DUP2 PUSH1 0xFF MUL NOT AND SWAP1 DUP4 ISZERO ISZERO MUL OR SWAP1 SSTORE POP PUSH32 0x5DB9EE0A495BF2E6FF9C91A7834C1BA4FDD244A5E8AA4E537BD38AEAE4B073AA PUSH2 0x1FBB PUSH2 0x172D JUMP JUMPDEST PUSH1 0x40 MLOAD PUSH2 0x1FC8 SWAP2 SWAP1 PUSH2 0x44C6 JUMP JUMPDEST PUSH1 0x40 MLOAD DUP1 SWAP2 SUB SWAP1 LOG1 JUMP JUMPDEST PUSH1 0x0 PUSH2 0x1FDD DUP4 PUSH2 0xB7F JUMP JUMPDEST SWAP1 POP PUSH1 0x0 PUSH2 0x1FEA DUP5 PUSH2 0xC69 JUMP JUMPDEST SWAP1 POP DUP3 PUSH2 0x162 PUSH1 0x0 DUP7 PUSH20 0xFFFFFFFFFFFFFFFFFFFFFFFFFFFFFFFFFFFFFFFF AND PUSH20 0xFFFFFFFFFFFFFFFFFFFFFFFFFFFFFFFFFFFFFFFF AND DUP2 MSTORE PUSH1 0x20 ADD SWAP1 DUP2 MSTORE PUSH1 0x20 ADD PUSH1 0x0 KECCAK256 PUSH1 0x0 PUSH2 0x100 EXP DUP2 SLOAD DUP2 PUSH20 0xFFFFFFFFFFFFFFFFFFFFFFFFFFFFFFFFFFFFFFFF MUL NOT AND SWAP1 DUP4 PUSH20 0xFFFFFFFFFFFFFFFFFFFFFFFFFFFFFFFFFFFFFFFF AND MUL OR SWAP1 SSTORE POP DUP3 PUSH20 0xFFFFFFFFFFFFFFFFFFFFFFFFFFFFFFFFFFFFFFFF AND DUP3 PUSH20 0xFFFFFFFFFFFFFFFFFFFFFFFFFFFFFFFFFFFFFFFF AND DUP6 PUSH20 0xFFFFFFFFFFFFFFFFFFFFFFFFFFFFFFFFFFFFFFFF AND PUSH32 0x3134E8A2E6D97E929A7E54011EA5485D7D196DD5F0BA4D4EF95803E8E3FC257F PUSH1 0x40 MLOAD PUSH1 0x40 MLOAD DUP1 SWAP2 SUB SWAP1 LOG4 PUSH2 0x20E7 DUP3 DUP5 DUP4 PUSH2 0x29BA JUMP JUMPDEST POP POP POP POP JUMP JUMPDEST PUSH1 0x0 PUSH4 0xFFFFFFFF DUP1 AND DUP3 GT ISZERO PUSH2 0x2138 JUMPI PUSH1 0x40 MLOAD PUSH32 0x8C379A000000000000000000000000000000000000000000000000000000000 DUP2 MSTORE PUSH1 0x4 ADD PUSH2 0x212F SWAP1 PUSH2 0x48F7 JUMP JUMPDEST PUSH1 0x40 MLOAD DUP1 SWAP2 SUB SWAP1 REVERT JUMPDEST DUP2 SWAP1 POP SWAP2 SWAP1 POP JUMP JUMPDEST PUSH1 0x0 DUP2 PUSH1 0x0 ADD SLOAD SWAP1 POP SWAP2 SWAP1 POP JUMP JUMPDEST PUSH1 0x0 PUSH1 0x1 SWAP1 SLOAD SWAP1 PUSH2 0x100 EXP SWAP1 DIV PUSH1 0xFF AND DUP1 PUSH2 0x2174 JUMPI POP PUSH1 0x0 DUP1 SLOAD SWAP1 PUSH2 0x100 EXP SWAP1 DIV PUSH1 0xFF AND ISZERO JUMPDEST PUSH2 0x21B3 JUMPI PUSH1 0x40 MLOAD PUSH32 0x8C379A000000000000000000000000000000000000000000000000000000000 DUP2 MSTORE PUSH1 0x4 ADD PUSH2 0x21AA SWAP1 PUSH2 0x4817 JUMP JUMPDEST PUSH1 0x40 MLOAD DUP1 SWAP2 SUB SWAP1 REVERT JUMPDEST PUSH1 0x0 DUP1 PUSH1 0x1 SWAP1 SLOAD SWAP1 PUSH2 0x100 EXP SWAP1 DIV PUSH1 0xFF AND ISZERO SWAP1 POP DUP1 ISZERO PUSH2 0x2203 JUMPI PUSH1 0x1 PUSH1 0x0 PUSH1 0x1 PUSH2 0x100 EXP DUP2 SLOAD DUP2 PUSH1 0xFF MUL NOT AND SWAP1 DUP4 ISZERO ISZERO MUL OR SWAP1 SSTORE POP PUSH1 0x1 PUSH1 0x0 DUP1 PUSH2 0x100 EXP DUP2 SLOAD DUP2 PUSH1 0xFF MUL NOT AND SWAP1 DUP4 ISZERO ISZERO MUL OR SWAP1 SSTORE POP JUMPDEST PUSH2 0x220B PUSH2 0x2BB5 JUMP JUMPDEST PUSH2 0x2215 DUP4 DUP4 PUSH2 0x2C8E JUMP JUMPDEST DUP1 ISZERO PUSH2 0x2236 JUMPI PUSH1 0x0 DUP1 PUSH1 0x1 PUSH2 0x100 EXP DUP2 SLOAD DUP2 PUSH1 0xFF MUL NOT AND SWAP1 DUP4 ISZERO ISZERO MUL OR SWAP1 SSTORE POP JUMPDEST POP POP POP JUMP JUMPDEST PUSH1 0x0 PUSH1 0x1 SWAP1 SLOAD SWAP1 PUSH2 0x100 EXP SWAP1 DIV PUSH1 0xFF AND DUP1 PUSH2 0x2261 JUMPI POP PUSH1 0x0 DUP1 SLOAD SWAP1 PUSH2 0x100 EXP SWAP1 DIV PUSH1 0xFF AND ISZERO JUMPDEST PUSH2 0x22A0 JUMPI PUSH1 0x40 MLOAD PUSH32 0x8C379A000000000000000000000000000000000000000000000000000000000 DUP2 MSTORE PUSH1 0x4 ADD PUSH2 0x2297 SWAP1 PUSH2 0x4817 JUMP JUMPDEST PUSH1 0x40 MLOAD DUP1 SWAP2 SUB SWAP1 REVERT JUMPDEST PUSH1 0x0 DUP1 PUSH1 0x1 SWAP1 SLOAD SWAP1 PUSH2 0x100 EXP SWAP1 DIV PUSH1 0xFF AND ISZERO SWAP1 POP DUP1 ISZERO PUSH2 0x22F0 JUMPI PUSH1 0x1 PUSH1 0x0 PUSH1 0x1 PUSH2 0x100 EXP DUP2 SLOAD DUP2 PUSH1 0xFF MUL NOT AND SWAP1 DUP4 ISZERO ISZERO MUL OR SWAP1 SSTORE POP PUSH1 0x1 PUSH1 0x0 DUP1 PUSH2 0x100 EXP DUP2 SLOAD DUP2 PUSH1 0xFF MUL NOT AND SWAP1 DUP4 ISZERO ISZERO MUL OR SWAP1 SSTORE POP JUMPDEST PUSH2 0x22F8 PUSH2 0x2BB5 JUMP JUMPDEST PUSH2 0x2300 PUSH2 0x2D97 JUMP JUMPDEST DUP1 ISZERO PUSH2 0x2321 JUMPI PUSH1 0x0 DUP1 PUSH1 0x1 PUSH2 0x100 EXP DUP2 SLOAD DUP2 PUSH1 0xFF MUL NOT AND SWAP1 DUP4 ISZERO ISZERO MUL OR SWAP1 SSTORE POP JUMPDEST POP JUMP JUMPDEST PUSH1 0x0 PUSH1 0x1 SWAP1 SLOAD SWAP1 PUSH2 0x100 EXP SWAP1 DIV PUSH1 0xFF AND DUP1 PUSH2 0x234A JUMPI POP PUSH1 0x0 DUP1 SLOAD SWAP1 PUSH2 0x100 EXP SWAP1 DIV PUSH1 0xFF AND ISZERO JUMPDEST PUSH2 0x2389 JUMPI PUSH1 0x40 MLOAD PUSH32 0x8C379A000000000000000000000000000000000000000000000000000000000 DUP2 MSTORE PUSH1 0x4 ADD PUSH2 0x2380 SWAP1 PUSH2 0x4817 JUMP JUMPDEST PUSH1 0x40 MLOAD DUP1 SWAP2 SUB SWAP1 REVERT JUMPDEST PUSH1 0x0 DUP1 PUSH1 0x1 SWAP1 SLOAD SWAP1 PUSH2 0x100 EXP SWAP1 DIV PUSH1 0xFF AND ISZERO SWAP1 POP DUP1 ISZERO PUSH2 0x23D9 JUMPI PUSH1 0x1 PUSH1 0x0 PUSH1 0x1 PUSH2 0x100 EXP DUP2 SLOAD DUP2 PUSH1 0xFF MUL NOT AND SWAP1 DUP4 ISZERO ISZERO MUL OR SWAP1 SSTORE POP PUSH1 0x1 PUSH1 0x0 DUP1 PUSH2 0x100 EXP DUP2 SLOAD DUP2 PUSH1 0xFF MUL NOT AND SWAP1 DUP4 ISZERO ISZERO MUL OR SWAP1 SSTORE POP JUMPDEST PUSH2 0x23E1 PUSH2 0x2BB5 JUMP JUMPDEST PUSH2 0x23E9 PUSH2 0x2E8B JUMP JUMPDEST PUSH2 0x23F1 PUSH2 0x2F64 JUMP JUMPDEST DUP1 ISZERO PUSH2 0x2412 JUMPI PUSH1 0x0 DUP1 PUSH1 0x1 PUSH2 0x100 EXP DUP2 SLOAD DUP2 PUSH1 0xFF MUL NOT AND SWAP1 DUP4 ISZERO ISZERO MUL OR SWAP1 SSTORE POP JUMPDEST POP JUMP JUMPDEST PUSH1 0x0 PUSH1 0x1 SWAP1 SLOAD SWAP1 PUSH2 0x100 EXP SWAP1 DIV PUSH1 0xFF AND DUP1 PUSH2 0x243B JUMPI POP PUSH1 0x0 DUP1 SLOAD SWAP1 PUSH2 0x100 EXP SWAP1 DIV PUSH1 0xFF AND ISZERO JUMPDEST PUSH2 0x247A JUMPI PUSH1 0x40 MLOAD PUSH32 0x8C379A000000000000000000000000000000000000000000000000000000000 DUP2 MSTORE PUSH1 0x4 ADD PUSH2 0x2471 SWAP1 PUSH2 0x4817 JUMP JUMPDEST PUSH1 0x40 MLOAD DUP1 SWAP2 SUB SWAP1 REVERT JUMPDEST PUSH1 0x0 DUP1 PUSH1 0x1 SWAP1 SLOAD SWAP1 PUSH2 0x100 EXP SWAP1 DIV PUSH1 0xFF AND ISZERO SWAP1 POP DUP1 ISZERO PUSH2 0x24CA JUMPI PUSH1 0x1 PUSH1 0x0 PUSH1 0x1 PUSH2 0x100 EXP DUP2 SLOAD DUP2 PUSH1 0xFF MUL NOT AND SWAP1 DUP4 ISZERO ISZERO MUL OR SWAP1 SSTORE POP PUSH1 0x1 PUSH1 0x0 DUP1 PUSH2 0x100 EXP DUP2 SLOAD DUP2 PUSH1 0xFF MUL NOT AND SWAP1 DUP4 ISZERO ISZERO MUL OR SWAP1 SSTORE POP JUMPDEST PUSH2 0x24D2 PUSH2 0x2BB5 JUMP JUMPDEST PUSH2 0x2511 DUP3 PUSH1 0x40 MLOAD DUP1 PUSH1 0x40 ADD PUSH1 0x40 MSTORE DUP1 PUSH1 0x1 DUP2 MSTORE PUSH1 0x20 ADD PUSH32 0x3100000000000000000000000000000000000000000000000000000000000000 DUP2 MSTORE POP PUSH2 0x303D JUMP JUMPDEST PUSH2 0x251A DUP3 PUSH2 0x3140 JUMP JUMPDEST DUP1 ISZERO PUSH2 0x253B JUMPI PUSH1 0x0 DUP1 PUSH1 0x1 PUSH2 0x100 EXP DUP2 SLOAD DUP2 PUSH1 0xFF MUL NOT AND SWAP1 DUP4 ISZERO ISZERO MUL OR SWAP1 SSTORE POP JUMPDEST POP POP JUMP JUMPDEST PUSH2 0x2549 DUP3 DUP3 PUSH2 0x1C21 JUMP JUMPDEST POP POP JUMP JUMPDEST PUSH2 0x2557 DUP3 DUP3 PUSH2 0x3242 JUMP JUMPDEST POP POP JUMP JUMPDEST PUSH2 0x2563 PUSH2 0xBFD JUMP JUMPDEST ISZERO PUSH2 0x25A3 JUMPI PUSH1 0x40 MLOAD PUSH32 0x8C379A000000000000000000000000000000000000000000000000000000000 DUP2 MSTORE PUSH1 0x4 ADD PUSH2 0x259A SWAP1 PUSH2 0x47F7 JUMP JUMPDEST PUSH1 0x40 MLOAD DUP1 SWAP2 SUB SWAP1 REVERT JUMPDEST PUSH1 0x1 PUSH1 0x65 PUSH1 0x0 PUSH2 0x100 EXP DUP2 SLOAD DUP2 PUSH1 0xFF MUL NOT AND SWAP1 DUP4 ISZERO ISZERO MUL OR SWAP1 SSTORE POP PUSH32 0x62E78CEA01BEE320CD4E420270B5EA74000D11B0C9F74754EBDBFC544B05A258 PUSH2 0x25E7 PUSH2 0x172D JUMP JUMPDEST PUSH1 0x40 MLOAD PUSH2 0x25F4 SWAP2 SWAP1 PUSH2 0x44C6 JUMP JUMPDEST PUSH1 0x40 MLOAD DUP1 SWAP2 SUB SWAP1 LOG1 JUMP JUMPDEST PUSH1 0x0 PUSH2 0x2611 PUSH2 0x260B PUSH2 0x1D02 JUMP JUMPDEST DUP4 PUSH2 0x32D0 JUMP JUMPDEST SWAP1 POP SWAP2 SWAP1 POP JUMP JUMPDEST PUSH1 0x0 DUP1 PUSH1 0x0 PUSH2 0x2629 DUP8 DUP8 DUP8 DUP8 PUSH2 0x3303 JUMP JUMPDEST SWAP2 POP SWAP2 POP PUSH2 0x2636 DUP2 PUSH2 0x3410 JUMP JUMPDEST DUP2 SWAP3 POP POP POP SWAP5 SWAP4 POP POP POP POP JUMP JUMPDEST PUSH1 0x0 DUP1 PUSH2 0x12F PUSH1 0x0 DUP5 PUSH20 0xFFFFFFFFFFFFFFFFFFFFFFFFFFFFFFFFFFFFFFFF AND PUSH20 0xFFFFFFFFFFFFFFFFFFFFFFFFFFFFFFFFFFFFFFFF AND DUP2 MSTORE PUSH1 0x20 ADD SWAP1 DUP2 MSTORE PUSH1 0x20 ADD PUSH1 0x0 KECCAK256 SWAP1 POP PUSH2 0x2691 DUP2 PUSH2 0x2140 JUMP JUMPDEST SWAP2 POP PUSH2 0x269C DUP2 PUSH2 0x35E5 JUMP JUMPDEST POP SWAP2 SWAP1 POP JUMP JUMPDEST PUSH2 0x26AA PUSH2 0xBFD JUMP JUMPDEST ISZERO PUSH2 0x26EA JUMPI PUSH1 0x40 MLOAD PUSH32 0x8C379A000000000000000000000000000000000000000000000000000000000 DUP2 MSTORE PUSH1 0x4 ADD PUSH2 0x26E1 SWAP1 PUSH2 0x47F7 JUMP JUMPDEST PUSH1 0x40 MLOAD DUP1 SWAP2 SUB SWAP1 REVERT JUMPDEST PUSH2 0x26F5 DUP4 DUP4 DUP4 PUSH2 0x35FB JUMP JUMPDEST POP POP POP JUMP JUMPDEST PUSH2 0x2705 DUP4 DUP4 DUP4 PUSH2 0x3600 JUMP JUMPDEST POP POP POP JUMP JUMPDEST PUSH1 0x60 PUSH1 0x0 PUSH1 0x2 DUP4 PUSH1 0x2 PUSH2 0x271D SWAP2 SWAP1 PUSH2 0x4C4B JUMP JUMPDEST PUSH2 0x2727 SWAP2 SWAP1 PUSH2 0x4A53 JUMP JUMPDEST PUSH8 0xFFFFFFFFFFFFFFFF DUP2 GT ISZERO PUSH2 0x2740 JUMPI PUSH2 0x273F PUSH2 0x4F20 JUMP JUMPDEST JUMPDEST PUSH1 0x40 MLOAD SWAP1 DUP1 DUP3 MSTORE DUP1 PUSH1 0x1F ADD PUSH1 0x1F NOT AND PUSH1 0x20 ADD DUP3 ADD PUSH1 0x40 MSTORE DUP1 ISZERO PUSH2 0x2772 JUMPI DUP2 PUSH1 0x20 ADD PUSH1 0x1 DUP3 MUL DUP1 CALLDATASIZE DUP4 CALLDATACOPY DUP1 DUP3 ADD SWAP2 POP POP SWAP1 POP JUMPDEST POP SWAP1 POP PUSH32 0x3000000000000000000000000000000000000000000000000000000000000000 DUP2 PUSH1 0x0 DUP2 MLOAD DUP2 LT PUSH2 0x27AA JUMPI PUSH2 0x27A9 PUSH2 0x4EF1 JUMP JUMPDEST JUMPDEST PUSH1 0x20 ADD ADD SWAP1 PUSH31 0xFFFFFFFFFFFFFFFFFFFFFFFFFFFFFFFFFFFFFFFFFFFFFFFFFFFFFFFFFFFFFF NOT AND SWAP1 DUP2 PUSH1 0x0 BYTE SWAP1 MSTORE8 POP PUSH32 0x7800000000000000000000000000000000000000000000000000000000000000 DUP2 PUSH1 0x1 DUP2 MLOAD DUP2 LT PUSH2 0x280E JUMPI PUSH2 0x280D PUSH2 0x4EF1 JUMP JUMPDEST JUMPDEST PUSH1 0x20 ADD ADD SWAP1 PUSH31 0xFFFFFFFFFFFFFFFFFFFFFFFFFFFFFFFFFFFFFFFFFFFFFFFFFFFFFFFFFFFFFF NOT AND SWAP1 DUP2 PUSH1 0x0 BYTE SWAP1 MSTORE8 POP PUSH1 0x0 PUSH1 0x1 DUP5 PUSH1 0x2 PUSH2 0x284E SWAP2 SWAP1 PUSH2 0x4C4B JUMP JUMPDEST PUSH2 0x2858 SWAP2 SWAP1 PUSH2 0x4A53 JUMP JUMPDEST SWAP1 POP JUMPDEST PUSH1 0x1 DUP2 GT ISZERO PUSH2 0x28F8 JUMPI PUSH32 0x3031323334353637383961626364656600000000000000000000000000000000 PUSH1 0xF DUP7 AND PUSH1 0x10 DUP2 LT PUSH2 0x289A JUMPI PUSH2 0x2899 PUSH2 0x4EF1 JUMP JUMPDEST JUMPDEST BYTE PUSH1 0xF8 SHL DUP3 DUP3 DUP2 MLOAD DUP2 LT PUSH2 0x28B1 JUMPI PUSH2 0x28B0 PUSH2 0x4EF1 JUMP JUMPDEST JUMPDEST PUSH1 0x20 ADD ADD SWAP1 PUSH31 0xFFFFFFFFFFFFFFFFFFFFFFFFFFFFFFFFFFFFFFFFFFFFFFFFFFFFFFFFFFFFFF NOT AND SWAP1 DUP2 PUSH1 0x0 BYTE SWAP1 MSTORE8 POP PUSH1 0x4 DUP6 SWAP1 SHR SWAP5 POP DUP1 PUSH2 0x28F1 SWAP1 PUSH2 0x4DCF JUMP JUMPDEST SWAP1 POP PUSH2 0x285B JUMP JUMPDEST POP PUSH1 0x0 DUP5 EQ PUSH2 0x293C JUMPI PUSH1 0x40 MLOAD PUSH32 0x8C379A000000000000000000000000000000000000000000000000000000000 DUP2 MSTORE PUSH1 0x4 ADD PUSH2 0x2933 SWAP1 PUSH2 0x4697 JUMP JUMPDEST PUSH1 0x40 MLOAD DUP1 SWAP2 SUB SWAP1 REVERT JUMPDEST DUP1 SWAP2 POP POP SWAP3 SWAP2 POP POP JUMP JUMPDEST PUSH1 0x0 PUSH1 0xFB SLOAD SWAP1 POP SWAP1 JUMP JUMPDEST PUSH1 0x0 PUSH1 0xFC SLOAD SWAP1 POP SWAP1 JUMP JUMPDEST PUSH1 0x0 DUP4 DUP4 DUP4 CHAINID ADDRESS PUSH1 0x40 MLOAD PUSH1 0x20 ADD PUSH2 0x2975 SWAP6 SWAP5 SWAP4 SWAP3 SWAP2 SWAP1 PUSH2 0x45BD JUMP JUMPDEST PUSH1 0x40 MLOAD PUSH1 0x20 DUP2 DUP4 SUB SUB DUP2 MSTORE SWAP1 PUSH1 0x40 MSTORE DUP1 MLOAD SWAP1 PUSH1 0x20 ADD KECCAK256 SWAP1 POP SWAP4 SWAP3 POP POP POP JUMP JUMPDEST PUSH1 0x0 PUSH1 0x2 DUP3 DUP5 XOR PUSH2 0x29A5 SWAP2 SWAP1 PUSH2 0x4AA9 JUMP JUMPDEST DUP3 DUP5 AND PUSH2 0x29B2 SWAP2 SWAP1 PUSH2 0x4A53 JUMP JUMPDEST SWAP1 POP SWAP3 SWAP2 POP POP JUMP JUMPDEST DUP2 PUSH20 0xFFFFFFFFFFFFFFFFFFFFFFFFFFFFFFFFFFFFFFFF AND DUP4 PUSH20 0xFFFFFFFFFFFFFFFFFFFFFFFFFFFFFFFFFFFFFFFF AND EQ ISZERO DUP1 ISZERO PUSH2 0x29F6 JUMPI POP PUSH1 0x0 DUP2 GT JUMPDEST ISZERO PUSH2 0x2BB0 JUMPI PUSH1 0x0 PUSH20 0xFFFFFFFFFFFFFFFFFFFFFFFFFFFFFFFFFFFFFFFF AND DUP4 PUSH20 0xFFFFFFFFFFFFFFFFFFFFFFFFFFFFFFFFFFFFFFFF AND EQ PUSH2 0x2AD5 JUMPI PUSH1 0x0 DUP1 PUSH2 0x2A7E PUSH2 0x163 PUSH1 0x0 DUP8 PUSH20 0xFFFFFFFFFFFFFFFFFFFFFFFFFFFFFFFFFFFFFFFF AND PUSH20 0xFFFFFFFFFFFFFFFFFFFFFFFFFFFFFFFFFFFFFFFF AND DUP2 MSTORE PUSH1 0x20 ADD SWAP1 DUP2 MSTORE PUSH1 0x20 ADD PUSH1 0x0 KECCAK256 PUSH2 0x362B DUP6 PUSH2 0x3641 JUMP JUMPDEST SWAP2 POP SWAP2 POP DUP5 PUSH20 0xFFFFFFFFFFFFFFFFFFFFFFFFFFFFFFFFFFFFFFFF AND PUSH32 0xDEC2BACDD2F05B59DE34DA9B523DFF8BE42E5E38E818C82FDB0BAE774387A724 DUP4 DUP4 PUSH1 0x40 MLOAD PUSH2 0x2ACA SWAP3 SWAP2 SWAP1 PUSH2 0x49CD JUMP JUMPDEST PUSH1 0x40 MLOAD DUP1 SWAP2 SUB SWAP1 LOG2 POP POP JUMPDEST PUSH1 0x0 PUSH20 0xFFFFFFFFFFFFFFFFFFFFFFFFFFFFFFFFFFFFFFFF AND DUP3 PUSH20 0xFFFFFFFFFFFFFFFFFFFFFFFFFFFFFFFFFFFFFFFF AND EQ PUSH2 0x2BAF JUMPI PUSH1 0x0 DUP1 PUSH2 0x2B58 PUSH2 0x163 PUSH1 0x0 DUP7 PUSH20 0xFFFFFFFFFFFFFFFFFFFFFFFFFFFFFFFFFFFFFFFF AND PUSH20 0xFFFFFFFFFFFFFFFFFFFFFFFFFFFFFFFFFFFFFFFF AND DUP2 MSTORE PUSH1 0x20 ADD SWAP1 DUP2 MSTORE PUSH1 0x20 ADD PUSH1 0x0 KECCAK256 PUSH2 0x38B9 DUP6 PUSH2 0x3641 JUMP JUMPDEST SWAP2 POP SWAP2 POP DUP4 PUSH20 0xFFFFFFFFFFFFFFFFFFFFFFFFFFFFFFFFFFFFFFFF AND PUSH32 0xDEC2BACDD2F05B59DE34DA9B523DFF8BE42E5E38E818C82FDB0BAE774387A724 DUP4 DUP4 PUSH1 0x40 MLOAD PUSH2 0x2BA4 SWAP3 SWAP2 SWAP1 PUSH2 0x49CD JUMP JUMPDEST PUSH1 0x40 MLOAD DUP1 SWAP2 SUB SWAP1 LOG2 POP POP JUMPDEST JUMPDEST POP POP POP JUMP JUMPDEST PUSH1 0x0 PUSH1 0x1 SWAP1 SLOAD SWAP1 PUSH2 0x100 EXP SWAP1 DIV PUSH1 0xFF AND DUP1 PUSH2 0x2BDB JUMPI POP PUSH1 0x0 DUP1 SLOAD SWAP1 PUSH2 0x100 EXP SWAP1 DIV PUSH1 0xFF AND ISZERO JUMPDEST PUSH2 0x2C1A JUMPI PUSH1 0x40 MLOAD PUSH32 0x8C379A000000000000000000000000000000000000000000000000000000000 DUP2 MSTORE PUSH1 0x4 ADD PUSH2 0x2C11 SWAP1 PUSH2 0x4817 JUMP JUMPDEST PUSH1 0x40 MLOAD DUP1 SWAP2 SUB SWAP1 REVERT JUMPDEST PUSH1 0x0 DUP1 PUSH1 0x1 SWAP1 SLOAD SWAP1 PUSH2 0x100 EXP SWAP1 DIV PUSH1 0xFF AND ISZERO SWAP1 POP DUP1 ISZERO PUSH2 0x2C6A JUMPI PUSH1 0x1 PUSH1 0x0 PUSH1 0x1 PUSH2 0x100 EXP DUP2 SLOAD DUP2 PUSH1 0xFF MUL NOT AND SWAP1 DUP4 ISZERO ISZERO MUL OR SWAP1 SSTORE POP PUSH1 0x1 PUSH1 0x0 DUP1 PUSH2 0x100 EXP DUP2 SLOAD DUP2 PUSH1 0xFF MUL NOT AND SWAP1 DUP4 ISZERO ISZERO MUL OR SWAP1 SSTORE POP JUMPDEST DUP1 ISZERO PUSH2 0x2C8B JUMPI PUSH1 0x0 DUP1 PUSH1 0x1 PUSH2 0x100 EXP DUP2 SLOAD DUP2 PUSH1 0xFF MUL NOT AND SWAP1 DUP4 ISZERO ISZERO MUL OR SWAP1 SSTORE POP JUMPDEST POP JUMP JUMPDEST PUSH1 0x0 PUSH1 0x1 SWAP1 SLOAD SWAP1 PUSH2 0x100 EXP SWAP1 DIV PUSH1 0xFF AND DUP1 PUSH2 0x2CB4 JUMPI POP PUSH1 0x0 DUP1 SLOAD SWAP1 PUSH2 0x100 EXP SWAP1 DIV PUSH1 0xFF AND ISZERO JUMPDEST PUSH2 0x2CF3 JUMPI PUSH1 0x40 MLOAD PUSH32 0x8C379A000000000000000000000000000000000000000000000000000000000 DUP2 MSTORE PUSH1 0x4 ADD PUSH2 0x2CEA SWAP1 PUSH2 0x4817 JUMP JUMPDEST PUSH1 0x40 MLOAD DUP1 SWAP2 SUB SWAP1 REVERT JUMPDEST PUSH1 0x0 DUP1 PUSH1 0x1 SWAP1 SLOAD SWAP1 PUSH2 0x100 EXP SWAP1 DIV PUSH1 0xFF AND ISZERO SWAP1 POP DUP1 ISZERO PUSH2 0x2D43 JUMPI PUSH1 0x1 PUSH1 0x0 PUSH1 0x1 PUSH2 0x100 EXP DUP2 SLOAD DUP2 PUSH1 0xFF MUL NOT AND SWAP1 DUP4 ISZERO ISZERO MUL OR SWAP1 SSTORE POP PUSH1 0x1 PUSH1 0x0 DUP1 PUSH2 0x100 EXP DUP2 SLOAD DUP2 PUSH1 0xFF MUL NOT AND SWAP1 DUP4 ISZERO ISZERO MUL OR SWAP1 SSTORE POP JUMPDEST DUP3 PUSH1 0x36 SWAP1 DUP1 MLOAD SWAP1 PUSH1 0x20 ADD SWAP1 PUSH2 0x2D59 SWAP3 SWAP2 SWAP1 PUSH2 0x3B02 JUMP JUMPDEST POP DUP2 PUSH1 0x37 SWAP1 DUP1 MLOAD SWAP1 PUSH1 0x20 ADD SWAP1 PUSH2 0x2D70 SWAP3 SWAP2 SWAP1 PUSH2 0x3B02 JUMP JUMPDEST POP DUP1 ISZERO PUSH2 0x2D92 JUMPI PUSH1 0x0 DUP1 PUSH1 0x1 PUSH2 0x100 EXP DUP2 SLOAD DUP2 PUSH1 0xFF MUL NOT AND SWAP1 DUP4 ISZERO ISZERO MUL OR SWAP1 SSTORE POP JUMPDEST POP POP POP JUMP JUMPDEST PUSH1 0x0 PUSH1 0x1 SWAP1 SLOAD SWAP1 PUSH2 0x100 EXP SWAP1 DIV PUSH1 0xFF AND DUP1 PUSH2 0x2DBD JUMPI POP PUSH1 0x0 DUP1 SLOAD SWAP1 PUSH2 0x100 EXP SWAP1 DIV PUSH1 0xFF AND ISZERO JUMPDEST PUSH2 0x2DFC JUMPI PUSH1 0x40 MLOAD PUSH32 0x8C379A000000000000000000000000000000000000000000000000000000000 DUP2 MSTORE PUSH1 0x4 ADD PUSH2 0x2DF3 SWAP1 PUSH2 0x4817 JUMP JUMPDEST PUSH1 0x40 MLOAD DUP1 SWAP2 SUB SWAP1 REVERT JUMPDEST PUSH1 0x0 DUP1 PUSH1 0x1 SWAP1 SLOAD SWAP1 PUSH2 0x100 EXP SWAP1 DIV PUSH1 0xFF AND ISZERO SWAP1 POP DUP1 ISZERO PUSH2 0x2E4C JUMPI PUSH1 0x1 PUSH1 0x0 PUSH1 0x1 PUSH2 0x100 EXP DUP2 SLOAD DUP2 PUSH1 0xFF MUL NOT AND SWAP1 DUP4 ISZERO ISZERO MUL OR SWAP1 SSTORE POP PUSH1 0x1 PUSH1 0x0 DUP1 PUSH2 0x100 EXP DUP2 SLOAD DUP2 PUSH1 0xFF MUL NOT AND SWAP1 DUP4 ISZERO ISZERO MUL OR SWAP1 SSTORE POP JUMPDEST PUSH1 0x0 PUSH1 0x65 PUSH1 0x0 PUSH2 0x100 EXP DUP2 SLOAD DUP2 PUSH1 0xFF MUL NOT AND SWAP1 DUP4 ISZERO ISZERO MUL OR SWAP1 SSTORE POP DUP1 ISZERO PUSH2 0x2E88 JUMPI PUSH1 0x0 DUP1 PUSH1 0x1 PUSH2 0x100 EXP DUP2 SLOAD DUP2 PUSH1 0xFF MUL NOT AND SWAP1 DUP4 ISZERO ISZERO MUL OR SWAP1 SSTORE POP JUMPDEST POP JUMP JUMPDEST PUSH1 0x0 PUSH1 0x1 SWAP1 SLOAD SWAP1 PUSH2 0x100 EXP SWAP1 DIV PUSH1 0xFF AND DUP1 PUSH2 0x2EB1 JUMPI POP PUSH1 0x0 DUP1 SLOAD SWAP1 PUSH2 0x100 EXP SWAP1 DIV PUSH1 0xFF AND ISZERO JUMPDEST PUSH2 0x2EF0 JUMPI PUSH1 0x40 MLOAD PUSH32 0x8C379A000000000000000000000000000000000000000000000000000000000 DUP2 MSTORE PUSH1 0x4 ADD PUSH2 0x2EE7 SWAP1 PUSH2 0x4817 JUMP JUMPDEST PUSH1 0x40 MLOAD DUP1 SWAP2 SUB SWAP1 REVERT JUMPDEST PUSH1 0x0 DUP1 PUSH1 0x1 SWAP1 SLOAD SWAP1 PUSH2 0x100 EXP SWAP1 DIV PUSH1 0xFF AND ISZERO SWAP1 POP DUP1 ISZERO PUSH2 0x2F40 JUMPI PUSH1 0x1 PUSH1 0x0 PUSH1 0x1 PUSH2 0x100 EXP DUP2 SLOAD DUP2 PUSH1 0xFF MUL NOT AND SWAP1 DUP4 ISZERO ISZERO MUL OR SWAP1 SSTORE POP PUSH1 0x1 PUSH1 0x0 DUP1 PUSH2 0x100 EXP DUP2 SLOAD DUP2 PUSH1 0xFF MUL NOT AND SWAP1 DUP4 ISZERO ISZERO MUL OR SWAP1 SSTORE POP JUMPDEST DUP1 ISZERO PUSH2 0x2F61 JUMPI PUSH1 0x0 DUP1 PUSH1 0x1 PUSH2 0x100 EXP DUP2 SLOAD DUP2 PUSH1 0xFF MUL NOT AND SWAP1 DUP4 ISZERO ISZERO MUL OR SWAP1 SSTORE POP JUMPDEST POP JUMP JUMPDEST PUSH1 0x0 PUSH1 0x1 SWAP1 SLOAD SWAP1 PUSH2 0x100 EXP SWAP1 DIV PUSH1 0xFF AND DUP1 PUSH2 0x2F8A JUMPI POP PUSH1 0x0 DUP1 SLOAD SWAP1 PUSH2 0x100 EXP SWAP1 DIV PUSH1 0xFF AND ISZERO JUMPDEST PUSH2 0x2FC9 JUMPI PUSH1 0x40 MLOAD PUSH32 0x8C379A000000000000000000000000000000000000000000000000000000000 DUP2 MSTORE PUSH1 0x4 ADD PUSH2 0x2FC0 SWAP1 PUSH2 0x4817 JUMP JUMPDEST PUSH1 0x40 MLOAD DUP1 SWAP2 SUB SWAP1 REVERT JUMPDEST PUSH1 0x0 DUP1 PUSH1 0x1 SWAP1 SLOAD SWAP1 PUSH2 0x100 EXP SWAP1 DIV PUSH1 0xFF AND ISZERO SWAP1 POP DUP1 ISZERO PUSH2 0x3019 JUMPI PUSH1 0x1 PUSH1 0x0 PUSH1 0x1 PUSH2 0x100 EXP DUP2 SLOAD DUP2 PUSH1 0xFF MUL NOT AND SWAP1 DUP4 ISZERO ISZERO MUL OR SWAP1 SSTORE POP PUSH1 0x1 PUSH1 0x0 DUP1 PUSH2 0x100 EXP DUP2 SLOAD DUP2 PUSH1 0xFF MUL NOT AND SWAP1 DUP4 ISZERO ISZERO MUL OR SWAP1 SSTORE POP JUMPDEST DUP1 ISZERO PUSH2 0x303A JUMPI PUSH1 0x0 DUP1 PUSH1 0x1 PUSH2 0x100 EXP DUP2 SLOAD DUP2 PUSH1 0xFF MUL NOT AND SWAP1 DUP4 ISZERO ISZERO MUL OR SWAP1 SSTORE POP JUMPDEST POP JUMP JUMPDEST PUSH1 0x0 PUSH1 0x1 SWAP1 SLOAD SWAP1 PUSH2 0x100 EXP SWAP1 DIV PUSH1 0xFF AND DUP1 PUSH2 0x3063 JUMPI POP PUSH1 0x0 DUP1 SLOAD SWAP1 PUSH2 0x100 EXP SWAP1 DIV PUSH1 0xFF AND ISZERO JUMPDEST PUSH2 0x30A2 JUMPI PUSH1 0x40 MLOAD PUSH32 0x8C379A000000000000000000000000000000000000000000000000000000000 DUP2 MSTORE PUSH1 0x4 ADD PUSH2 0x3099 SWAP1 PUSH2 0x4817 JUMP JUMPDEST PUSH1 0x40 MLOAD DUP1 SWAP2 SUB SWAP1 REVERT JUMPDEST PUSH1 0x0 DUP1 PUSH1 0x1 SWAP1 SLOAD SWAP1 PUSH2 0x100 EXP SWAP1 DIV PUSH1 0xFF AND ISZERO SWAP1 POP DUP1 ISZERO PUSH2 0x30F2 JUMPI PUSH1 0x1 PUSH1 0x0 PUSH1 0x1 PUSH2 0x100 EXP DUP2 SLOAD DUP2 PUSH1 0xFF MUL NOT AND SWAP1 DUP4 ISZERO ISZERO MUL OR SWAP1 SSTORE POP PUSH1 0x1 PUSH1 0x0 DUP1 PUSH2 0x100 EXP DUP2 SLOAD DUP2 PUSH1 0xFF MUL NOT AND SWAP1 DUP4 ISZERO ISZERO MUL OR SWAP1 SSTORE POP JUMPDEST PUSH1 0x0 DUP4 DUP1 MLOAD SWAP1 PUSH1 0x20 ADD KECCAK256 SWAP1 POP PUSH1 0x0 DUP4 DUP1 MLOAD SWAP1 PUSH1 0x20 ADD KECCAK256 SWAP1 POP DUP2 PUSH1 0xFB DUP2 SWAP1 SSTORE POP DUP1 PUSH1 0xFC DUP2 SWAP1 SSTORE POP POP POP DUP1 ISZERO PUSH2 0x313B JUMPI PUSH1 0x0 DUP1 PUSH1 0x1 PUSH2 0x100 EXP DUP2 SLOAD DUP2 PUSH1 0xFF MUL NOT AND SWAP1 DUP4 ISZERO ISZERO MUL OR SWAP1 SSTORE POP JUMPDEST POP POP POP JUMP JUMPDEST PUSH1 0x0 PUSH1 0x1 SWAP1 SLOAD SWAP1 PUSH2 0x100 EXP SWAP1 DIV PUSH1 0xFF AND DUP1 PUSH2 0x3166 JUMPI POP PUSH1 0x0 DUP1 SLOAD SWAP1 PUSH2 0x100 EXP SWAP1 DIV PUSH1 0xFF AND ISZERO JUMPDEST PUSH2 0x31A5 JUMPI PUSH1 0x40 MLOAD PUSH32 0x8C379A000000000000000000000000000000000000000000000000000000000 DUP2 MSTORE PUSH1 0x4 ADD PUSH2 0x319C SWAP1 PUSH2 0x4817 JUMP JUMPDEST PUSH1 0x40 MLOAD DUP1 SWAP2 SUB SWAP1 REVERT JUMPDEST PUSH1 0x0 DUP1 PUSH1 0x1 SWAP1 SLOAD SWAP1 PUSH2 0x100 EXP SWAP1 DIV PUSH1 0xFF AND ISZERO SWAP1 POP DUP1 ISZERO PUSH2 0x31F5 JUMPI PUSH1 0x1 PUSH1 0x0 PUSH1 0x1 PUSH2 0x100 EXP DUP2 SLOAD DUP2 PUSH1 0xFF MUL NOT AND SWAP1 DUP4 ISZERO ISZERO MUL OR SWAP1 SSTORE POP PUSH1 0x1 PUSH1 0x0 DUP1 PUSH2 0x100 EXP DUP2 SLOAD DUP2 PUSH1 0xFF MUL NOT AND SWAP1 DUP4 ISZERO ISZERO MUL OR SWAP1 SSTORE POP JUMPDEST PUSH32 0x6E71EDAE12B1B97F4D1F60370FEF10105FA2FAAE0126114A169C64845D6126C9 PUSH2 0x130 DUP2 SWAP1 SSTORE POP DUP1 ISZERO PUSH2 0x323E JUMPI PUSH1 0x0 DUP1 PUSH1 0x1 PUSH2 0x100 EXP DUP2 SLOAD DUP2 PUSH1 0xFF MUL NOT AND SWAP1 DUP4 ISZERO ISZERO MUL OR SWAP1 SSTORE POP JUMPDEST POP POP JUMP JUMPDEST PUSH2 0x324C DUP3 DUP3 PUSH2 0x38CF JUMP JUMPDEST PUSH2 0x3254 PUSH2 0x3A30 JUMP JUMPDEST PUSH28 0xFFFFFFFFFFFFFFFFFFFFFFFFFFFFFFFFFFFFFFFFFFFFFFFFFFFFFFFF AND PUSH2 0x327A PUSH2 0x81B JUMP JUMPDEST GT ISZERO PUSH2 0x32BB JUMPI PUSH1 0x40 MLOAD PUSH32 0x8C379A000000000000000000000000000000000000000000000000000000000 DUP2 MSTORE PUSH1 0x4 ADD PUSH2 0x32B2 SWAP1 PUSH2 0x4897 JUMP JUMPDEST PUSH1 0x40 MLOAD DUP1 SWAP2 SUB SWAP1 REVERT JUMPDEST PUSH2 0x32CA PUSH2 0x164 PUSH2 0x38B9 DUP4 PUSH2 0x3641 JUMP JUMPDEST POP POP POP POP JUMP JUMPDEST PUSH1 0x0 DUP3 DUP3 PUSH1 0x40 MLOAD PUSH1 0x20 ADD PUSH2 0x32E5 SWAP3 SWAP2 SWAP1 PUSH2 0x4455 JUMP JUMPDEST PUSH1 0x40 MLOAD PUSH1 0x20 DUP2 DUP4 SUB SUB DUP2 MSTORE SWAP1 PUSH1 0x40 MSTORE DUP1 MLOAD SWAP1 PUSH1 0x20 ADD KECCAK256 SWAP1 POP SWAP3 SWAP2 POP POP JUMP JUMPDEST PUSH1 0x0 DUP1 PUSH32 0x7FFFFFFFFFFFFFFFFFFFFFFFFFFFFFFF5D576E7357A4501DDFE92F46681B20A0 DUP4 PUSH1 0x0 SHR GT ISZERO PUSH2 0x333E JUMPI PUSH1 0x0 PUSH1 0x3 SWAP2 POP SWAP2 POP PUSH2 0x3407 JUMP JUMPDEST PUSH1 0x1B DUP6 PUSH1 0xFF AND EQ ISZERO DUP1 ISZERO PUSH2 0x3356 JUMPI POP PUSH1 0x1C DUP6 PUSH1 0xFF AND EQ ISZERO JUMPDEST ISZERO PUSH2 0x3368 JUMPI PUSH1 0x0 PUSH1 0x4 SWAP2 POP SWAP2 POP PUSH2 0x3407 JUMP JUMPDEST PUSH1 0x0 PUSH1 0x1 DUP8 DUP8 DUP8 DUP8 PUSH1 0x40 MLOAD PUSH1 0x0 DUP2 MSTORE PUSH1 0x20 ADD PUSH1 0x40 MSTORE PUSH1 0x40 MLOAD PUSH2 0x338D SWAP5 SWAP4 SWAP3 SWAP2 SWAP1 PUSH2 0x4610 JUMP JUMPDEST PUSH1 0x20 PUSH1 0x40 MLOAD PUSH1 0x20 DUP2 SUB SWAP1 DUP1 DUP5 SUB SWAP1 DUP6 GAS STATICCALL ISZERO DUP1 ISZERO PUSH2 0x33AF JUMPI RETURNDATASIZE PUSH1 0x0 DUP1 RETURNDATACOPY RETURNDATASIZE PUSH1 0x0 REVERT JUMPDEST POP POP POP PUSH1 0x20 PUSH1 0x40 MLOAD SUB MLOAD SWAP1 POP PUSH1 0x0 PUSH20 0xFFFFFFFFFFFFFFFFFFFFFFFFFFFFFFFFFFFFFFFF AND DUP2 PUSH20 0xFFFFFFFFFFFFFFFFFFFFFFFFFFFFFFFFFFFFFFFF AND EQ ISZERO PUSH2 0x33FE JUMPI PUSH1 0x0 PUSH1 0x1 SWAP3 POP SWAP3 POP POP PUSH2 0x3407 JUMP JUMPDEST DUP1 PUSH1 0x0 SWAP3 POP SWAP3 POP POP JUMPDEST SWAP5 POP SWAP5 SWAP3 POP POP POP JUMP JUMPDEST PUSH1 0x0 PUSH1 0x4 DUP2 GT ISZERO PUSH2 0x3424 JUMPI PUSH2 0x3423 PUSH2 0x4E93 JUMP JUMPDEST JUMPDEST DUP2 PUSH1 0x4 DUP2 GT ISZERO PUSH2 0x3437 JUMPI PUSH2 0x3436 PUSH2 0x4E93 JUMP JUMPDEST JUMPDEST EQ ISZERO PUSH2 0x3442 JUMPI PUSH2 0x35E2 JUMP JUMPDEST PUSH1 0x1 PUSH1 0x4 DUP2 GT ISZERO PUSH2 0x3456 JUMPI PUSH2 0x3455 PUSH2 0x4E93 JUMP JUMPDEST JUMPDEST DUP2 PUSH1 0x4 DUP2 GT ISZERO PUSH2 0x3469 JUMPI PUSH2 0x3468 PUSH2 0x4E93 JUMP JUMPDEST JUMPDEST EQ ISZERO PUSH2 0x34AA JUMPI PUSH1 0x40 MLOAD PUSH32 0x8C379A000000000000000000000000000000000000000000000000000000000 DUP2 MSTORE PUSH1 0x4 ADD PUSH2 0x34A1 SWAP1 PUSH2 0x4677 JUMP JUMPDEST PUSH1 0x40 MLOAD DUP1 SWAP2 SUB SWAP1 REVERT JUMPDEST PUSH1 0x2 PUSH1 0x4 DUP2 GT ISZERO PUSH2 0x34BE JUMPI PUSH2 0x34BD PUSH2 0x4E93 JUMP JUMPDEST JUMPDEST DUP2 PUSH1 0x4 DUP2 GT ISZERO PUSH2 0x34D1 JUMPI PUSH2 0x34D0 PUSH2 0x4E93 JUMP JUMPDEST JUMPDEST EQ ISZERO PUSH2 0x3512 JUMPI PUSH1 0x40 MLOAD PUSH32 0x8C379A000000000000000000000000000000000000000000000000000000000 DUP2 MSTORE PUSH1 0x4 ADD PUSH2 0x3509 SWAP1 PUSH2 0x4737 JUMP JUMPDEST PUSH1 0x40 MLOAD DUP1 SWAP2 SUB SWAP1 REVERT JUMPDEST PUSH1 0x3 PUSH1 0x4 DUP2 GT ISZERO PUSH2 0x3526 JUMPI PUSH2 0x3525 PUSH2 0x4E93 JUMP JUMPDEST JUMPDEST DUP2 PUSH1 0x4 DUP2 GT ISZERO PUSH2 0x3539 JUMPI PUSH2 0x3538 PUSH2 0x4E93 JUMP JUMPDEST JUMPDEST EQ ISZERO PUSH2 0x357A JUMPI PUSH1 0x40 MLOAD PUSH32 0x8C379A000000000000000000000000000000000000000000000000000000000 DUP2 MSTORE PUSH1 0x4 ADD PUSH2 0x3571 SWAP1 PUSH2 0x47D7 JUMP JUMPDEST PUSH1 0x40 MLOAD DUP1 SWAP2 SUB SWAP1 REVERT JUMPDEST PUSH1 0x4 DUP1 DUP2 GT ISZERO PUSH2 0x358D JUMPI PUSH2 0x358C PUSH2 0x4E93 JUMP JUMPDEST JUMPDEST DUP2 PUSH1 0x4 DUP2 GT ISZERO PUSH2 0x35A0 JUMPI PUSH2 0x359F PUSH2 0x4E93 JUMP JUMPDEST JUMPDEST EQ ISZERO PUSH2 0x35E1 JUMPI PUSH1 0x40 MLOAD PUSH32 0x8C379A000000000000000000000000000000000000000000000000000000000 DUP2 MSTORE PUSH1 0x4 ADD PUSH2 0x35D8 SWAP1 PUSH2 0x4837 JUMP JUMPDEST PUSH1 0x40 MLOAD DUP1 SWAP2 SUB SWAP1 REVERT JUMPDEST JUMPDEST POP JUMP JUMPDEST PUSH1 0x1 DUP2 PUSH1 0x0 ADD PUSH1 0x0 DUP3 DUP3 SLOAD ADD SWAP3 POP POP DUP2 SWAP1 SSTORE POP POP JUMP JUMPDEST POP POP POP JUMP JUMPDEST PUSH2 0x360B DUP4 DUP4 DUP4 PUSH2 0x3A54 JUMP JUMPDEST PUSH2 0x3626 PUSH2 0x3617 DUP5 PUSH2 0xB7F JUMP JUMPDEST PUSH2 0x3620 DUP5 PUSH2 0xB7F JUMP JUMPDEST DUP4 PUSH2 0x29BA JUMP JUMPDEST POP POP POP JUMP JUMPDEST PUSH1 0x0 DUP2 DUP4 PUSH2 0x3639 SWAP2 SWAP1 PUSH2 0x4CA5 JUMP JUMPDEST SWAP1 POP SWAP3 SWAP2 POP POP JUMP JUMPDEST PUSH1 0x0 DUP1 PUSH1 0x0 DUP6 DUP1 SLOAD SWAP1 POP SWAP1 POP PUSH1 0x0 DUP2 EQ PUSH2 0x36AF JUMPI DUP6 PUSH1 0x1 DUP3 PUSH2 0x3663 SWAP2 SWAP1 PUSH2 0x4CA5 JUMP JUMPDEST DUP2 SLOAD DUP2 LT PUSH2 0x3674 JUMPI PUSH2 0x3673 PUSH2 0x4EF1 JUMP JUMPDEST JUMPDEST SWAP1 PUSH1 0x0 MSTORE PUSH1 0x20 PUSH1 0x0 KECCAK256 ADD PUSH1 0x0 ADD PUSH1 0x4 SWAP1 SLOAD SWAP1 PUSH2 0x100 EXP SWAP1 DIV PUSH28 0xFFFFFFFFFFFFFFFFFFFFFFFFFFFFFFFFFFFFFFFFFFFFFFFFFFFFFFFF AND PUSH2 0x36B2 JUMP JUMPDEST PUSH1 0x0 JUMPDEST PUSH28 0xFFFFFFFFFFFFFFFFFFFFFFFFFFFFFFFFFFFFFFFFFFFFFFFFFFFFFFFF AND SWAP3 POP PUSH2 0x36E0 DUP4 DUP6 DUP8 PUSH4 0xFFFFFFFF AND JUMP JUMPDEST SWAP2 POP PUSH1 0x0 DUP2 GT DUP1 ISZERO PUSH2 0x3733 JUMPI POP NUMBER DUP7 PUSH1 0x1 DUP4 PUSH2 0x36FC SWAP2 SWAP1 PUSH2 0x4CA5 JUMP JUMPDEST DUP2 SLOAD DUP2 LT PUSH2 0x370D JUMPI PUSH2 0x370C PUSH2 0x4EF1 JUMP JUMPDEST JUMPDEST SWAP1 PUSH1 0x0 MSTORE PUSH1 0x20 PUSH1 0x0 KECCAK256 ADD PUSH1 0x0 ADD PUSH1 0x0 SWAP1 SLOAD SWAP1 PUSH2 0x100 EXP SWAP1 DIV PUSH4 0xFFFFFFFF AND PUSH4 0xFFFFFFFF AND EQ JUMPDEST ISZERO PUSH2 0x37C0 JUMPI PUSH2 0x3741 DUP3 PUSH2 0x3A59 JUMP JUMPDEST DUP7 PUSH1 0x1 DUP4 PUSH2 0x374F SWAP2 SWAP1 PUSH2 0x4CA5 JUMP JUMPDEST DUP2 SLOAD DUP2 LT PUSH2 0x3760 JUMPI PUSH2 0x375F PUSH2 0x4EF1 JUMP JUMPDEST JUMPDEST SWAP1 PUSH1 0x0 MSTORE PUSH1 0x20 PUSH1 0x0 KECCAK256 ADD PUSH1 0x0 ADD PUSH1 0x4 PUSH2 0x100 EXP DUP2 SLOAD DUP2 PUSH28 0xFFFFFFFFFFFFFFFFFFFFFFFFFFFFFFFFFFFFFFFFFFFFFFFFFFFFFFFF MUL NOT AND SWAP1 DUP4 PUSH28 0xFFFFFFFFFFFFFFFFFFFFFFFFFFFFFFFFFFFFFFFFFFFFFFFFFFFFFFFF AND MUL OR SWAP1 SSTORE POP PUSH2 0x38B0 JUMP JUMPDEST DUP6 PUSH1 0x40 MLOAD DUP1 PUSH1 0x40 ADD PUSH1 0x40 MSTORE DUP1 PUSH2 0x37D5 NUMBER PUSH2 0x20ED JUMP JUMPDEST PUSH4 0xFFFFFFFF AND DUP2 MSTORE PUSH1 0x20 ADD PUSH2 0x37E9 DUP6 PUSH2 0x3A59 JUMP JUMPDEST PUSH28 0xFFFFFFFFFFFFFFFFFFFFFFFFFFFFFFFFFFFFFFFFFFFFFFFFFFFFFFFF AND DUP2 MSTORE POP SWAP1 DUP1 PUSH1 0x1 DUP2 SLOAD ADD DUP1 DUP3 SSTORE DUP1 SWAP2 POP POP PUSH1 0x1 SWAP1 SUB SWAP1 PUSH1 0x0 MSTORE PUSH1 0x20 PUSH1 0x0 KECCAK256 ADD PUSH1 0x0 SWAP1 SWAP2 SWAP1 SWAP2 SWAP1 SWAP2 POP PUSH1 0x0 DUP3 ADD MLOAD DUP2 PUSH1 0x0 ADD PUSH1 0x0 PUSH2 0x100 EXP DUP2 SLOAD DUP2 PUSH4 0xFFFFFFFF MUL NOT AND SWAP1 DUP4 PUSH4 0xFFFFFFFF AND MUL OR SWAP1 SSTORE POP PUSH1 0x20 DUP3 ADD MLOAD DUP2 PUSH1 0x0 ADD PUSH1 0x4 PUSH2 0x100 EXP DUP2 SLOAD DUP2 PUSH28 0xFFFFFFFFFFFFFFFFFFFFFFFFFFFFFFFFFFFFFFFFFFFFFFFFFFFFFFFF MUL NOT AND SWAP1 DUP4 PUSH28 0xFFFFFFFFFFFFFFFFFFFFFFFFFFFFFFFFFFFFFFFFFFFFFFFFFFFFFFFF AND MUL OR SWAP1 SSTORE POP POP POP JUMPDEST POP SWAP4 POP SWAP4 SWAP2 POP POP JUMP JUMPDEST PUSH1 0x0 DUP2 DUP4 PUSH2 0x38C7 SWAP2 SWAP1 PUSH2 0x4A53 JUMP JUMPDEST SWAP1 POP SWAP3 SWAP2 POP POP JUMP JUMPDEST PUSH1 0x0 PUSH20 0xFFFFFFFFFFFFFFFFFFFFFFFFFFFFFFFFFFFFFFFF AND DUP3 PUSH20 0xFFFFFFFFFFFFFFFFFFFFFFFFFFFFFFFFFFFFFFFF AND EQ ISZERO PUSH2 0x393F JUMPI PUSH1 0x40 MLOAD PUSH32 0x8C379A000000000000000000000000000000000000000000000000000000000 DUP2 MSTORE PUSH1 0x4 ADD PUSH2 0x3936 SWAP1 PUSH2 0x4977 JUMP JUMPDEST PUSH1 0x40 MLOAD DUP1 SWAP2 SUB SWAP1 REVERT JUMPDEST PUSH2 0x394B PUSH1 0x0 DUP4 DUP4 PUSH2 0x26A2 JUMP JUMPDEST DUP1 PUSH1 0x35 PUSH1 0x0 DUP3 DUP3 SLOAD PUSH2 0x395D SWAP2 SWAP1 PUSH2 0x4A53 JUMP JUMPDEST SWAP3 POP POP DUP2 SWAP1 SSTORE POP DUP1 PUSH1 0x33 PUSH1 0x0 DUP5 PUSH20 0xFFFFFFFFFFFFFFFFFFFFFFFFFFFFFFFFFFFFFFFF AND PUSH20 0xFFFFFFFFFFFFFFFFFFFFFFFFFFFFFFFFFFFFFFFF AND DUP2 MSTORE PUSH1 0x20 ADD SWAP1 DUP2 MSTORE PUSH1 0x20 ADD PUSH1 0x0 KECCAK256 PUSH1 0x0 DUP3 DUP3 SLOAD PUSH2 0x39B3 SWAP2 SWAP1 PUSH2 0x4A53 JUMP JUMPDEST SWAP3 POP POP DUP2 SWAP1 SSTORE POP DUP2 PUSH20 0xFFFFFFFFFFFFFFFFFFFFFFFFFFFFFFFFFFFFFFFF AND PUSH1 0x0 PUSH20 0xFFFFFFFFFFFFFFFFFFFFFFFFFFFFFFFFFFFFFFFF AND PUSH32 0xDDF252AD1BE2C89B69C2B068FC378DAA952BA7F163C4A11628F55A4DF523B3EF DUP4 PUSH1 0x40 MLOAD PUSH2 0x3A18 SWAP2 SWAP1 PUSH2 0x49B2 JUMP JUMPDEST PUSH1 0x40 MLOAD DUP1 SWAP2 SUB SWAP1 LOG3 PUSH2 0x3A2C PUSH1 0x0 DUP4 DUP4 PUSH2 0x26FA JUMP JUMPDEST POP POP JUMP JUMPDEST PUSH1 0x0 PUSH28 0xFFFFFFFFFFFFFFFFFFFFFFFFFFFFFFFFFFFFFFFFFFFFFFFFFFFFFFFF SWAP1 POP SWAP1 JUMP JUMPDEST POP POP POP JUMP JUMPDEST PUSH1 0x0 PUSH28 0xFFFFFFFFFFFFFFFFFFFFFFFFFFFFFFFFFFFFFFFFFFFFFFFFFFFFFFFF DUP1 AND DUP3 GT ISZERO PUSH2 0x3ABC JUMPI PUSH1 0x40 MLOAD PUSH32 0x8C379A000000000000000000000000000000000000000000000000000000000 DUP2 MSTORE PUSH1 0x4 ADD PUSH2 0x3AB3 SWAP1 PUSH2 0x48B7 JUMP JUMPDEST PUSH1 0x40 MLOAD DUP1 SWAP2 SUB SWAP1 REVERT JUMPDEST DUP2 SWAP1 POP SWAP2 SWAP1 POP JUMP JUMPDEST PUSH1 0x40 MLOAD DUP1 PUSH1 0x40 ADD PUSH1 0x40 MSTORE DUP1 PUSH1 0x0 PUSH4 0xFFFFFFFF AND DUP2 MSTORE PUSH1 0x20 ADD PUSH1 0x0 PUSH28 0xFFFFFFFFFFFFFFFFFFFFFFFFFFFFFFFFFFFFFFFFFFFFFFFFFFFFFFFF AND DUP2 MSTORE POP SWAP1 JUMP JUMPDEST DUP3 DUP1 SLOAD PUSH2 0x3B0E SWAP1 PUSH2 0x4DF9 JUMP JUMPDEST SWAP1 PUSH1 0x0 MSTORE PUSH1 0x20 PUSH1 0x0 KECCAK256 SWAP1 PUSH1 0x1F ADD PUSH1 0x20 SWAP1 DIV DUP2 ADD SWAP3 DUP3 PUSH2 0x3B30 JUMPI PUSH1 0x0 DUP6 SSTORE PUSH2 0x3B77 JUMP JUMPDEST DUP3 PUSH1 0x1F LT PUSH2 0x3B49 JUMPI DUP1 MLOAD PUSH1 0xFF NOT AND DUP4 DUP1 ADD OR DUP6 SSTORE PUSH2 0x3B77 JUMP JUMPDEST DUP3 DUP1 ADD PUSH1 0x1 ADD DUP6 SSTORE DUP3 ISZERO PUSH2 0x3B77 JUMPI SWAP2 DUP3 ADD JUMPDEST DUP3 DUP2 GT ISZERO PUSH2 0x3B76 JUMPI DUP3 MLOAD DUP3 SSTORE SWAP2 PUSH1 0x20 ADD SWAP2 SWAP1 PUSH1 0x1 ADD SWAP1 PUSH2 0x3B5B JUMP JUMPDEST JUMPDEST POP SWAP1 POP PUSH2 0x3B84 SWAP2 SWAP1 PUSH2 0x3B88 JUMP JUMPDEST POP SWAP1 JUMP JUMPDEST JUMPDEST DUP1 DUP3 GT ISZERO PUSH2 0x3BA1 JUMPI PUSH1 0x0 DUP2 PUSH1 0x0 SWAP1 SSTORE POP PUSH1 0x1 ADD PUSH2 0x3B89 JUMP JUMPDEST POP SWAP1 JUMP JUMPDEST PUSH1 0x0 DUP2 CALLDATALOAD SWAP1 POP PUSH2 0x3BB4 DUP2 PUSH2 0x5602 JUMP JUMPDEST SWAP3 SWAP2 POP POP JUMP JUMPDEST PUSH1 0x0 DUP2 CALLDATALOAD SWAP1 POP PUSH2 0x3BC9 DUP2 PUSH2 0x5619 JUMP JUMPDEST SWAP3 SWAP2 POP POP JUMP JUMPDEST PUSH1 0x0 DUP2 CALLDATALOAD SWAP1 POP PUSH2 0x3BDE DUP2 PUSH2 0x5630 JUMP JUMPDEST SWAP3 SWAP2 POP POP JUMP JUMPDEST PUSH1 0x0 DUP2 CALLDATALOAD SWAP1 POP PUSH2 0x3BF3 DUP2 PUSH2 0x5647 JUMP JUMPDEST SWAP3 SWAP2 POP POP JUMP JUMPDEST PUSH1 0x0 DUP2 CALLDATALOAD SWAP1 POP PUSH2 0x3C08 DUP2 PUSH2 0x565E JUMP JUMPDEST SWAP3 SWAP2 POP POP JUMP JUMPDEST PUSH1 0x0 DUP2 CALLDATALOAD SWAP1 POP PUSH2 0x3C1D DUP2 PUSH2 0x5675 JUMP JUMPDEST SWAP3 SWAP2 POP POP JUMP JUMPDEST PUSH1 0x0 PUSH1 0x20 DUP3 DUP5 SUB SLT ISZERO PUSH2 0x3C39 JUMPI PUSH2 0x3C38 PUSH2 0x4F4F JUMP JUMPDEST JUMPDEST PUSH1 0x0 PUSH2 0x3C47 DUP5 DUP3 DUP6 ADD PUSH2 0x3BA5 JUMP JUMPDEST SWAP2 POP POP SWAP3 SWAP2 POP POP JUMP JUMPDEST PUSH1 0x0 DUP1 PUSH1 0x40 DUP4 DUP6 SUB SLT ISZERO PUSH2 0x3C67 JUMPI PUSH2 0x3C66 PUSH2 0x4F4F JUMP JUMPDEST JUMPDEST PUSH1 0x0 PUSH2 0x3C75 DUP6 DUP3 DUP7 ADD PUSH2 0x3BA5 JUMP JUMPDEST SWAP3 POP POP PUSH1 0x20 PUSH2 0x3C86 DUP6 DUP3 DUP7 ADD PUSH2 0x3BA5 JUMP JUMPDEST SWAP2 POP POP SWAP3 POP SWAP3 SWAP1 POP JUMP JUMPDEST PUSH1 0x0 DUP1 PUSH1 0x0 PUSH1 0x60 DUP5 DUP7 SUB SLT ISZERO PUSH2 0x3CA9 JUMPI PUSH2 0x3CA8 PUSH2 0x4F4F JUMP JUMPDEST JUMPDEST PUSH1 0x0 PUSH2 0x3CB7 DUP7 DUP3 DUP8 ADD PUSH2 0x3BA5 JUMP JUMPDEST SWAP4 POP POP PUSH1 0x20 PUSH2 0x3CC8 DUP7 DUP3 DUP8 ADD PUSH2 0x3BA5 JUMP JUMPDEST SWAP3 POP POP PUSH1 0x40 PUSH2 0x3CD9 DUP7 DUP3 DUP8 ADD PUSH2 0x3BE4 JUMP JUMPDEST SWAP2 POP POP SWAP3 POP SWAP3 POP SWAP3 JUMP JUMPDEST PUSH1 0x0 DUP1 PUSH1 0x0 DUP1 PUSH1 0x0 DUP1 PUSH1 0x0 PUSH1 0xE0 DUP9 DUP11 SUB SLT ISZERO PUSH2 0x3D02 JUMPI PUSH2 0x3D01 PUSH2 0x4F4F JUMP JUMPDEST JUMPDEST PUSH1 0x0 PUSH2 0x3D10 DUP11 DUP3 DUP12 ADD PUSH2 0x3BA5 JUMP JUMPDEST SWAP8 POP POP PUSH1 0x20 PUSH2 0x3D21 DUP11 DUP3 DUP12 ADD PUSH2 0x3BA5 JUMP JUMPDEST SWAP7 POP POP PUSH1 0x40 PUSH2 0x3D32 DUP11 DUP3 DUP12 ADD PUSH2 0x3BE4 JUMP JUMPDEST SWAP6 POP POP PUSH1 0x60 PUSH2 0x3D43 DUP11 DUP3 DUP12 ADD PUSH2 0x3BE4 JUMP JUMPDEST SWAP5 POP POP PUSH1 0x80 PUSH2 0x3D54 DUP11 DUP3 DUP12 ADD PUSH2 0x3C0E JUMP JUMPDEST SWAP4 POP POP PUSH1 0xA0 PUSH2 0x3D65 DUP11 DUP3 DUP12 ADD PUSH2 0x3BBA JUMP JUMPDEST SWAP3 POP POP PUSH1 0xC0 PUSH2 0x3D76 DUP11 DUP3 DUP12 ADD PUSH2 0x3BBA JUMP JUMPDEST SWAP2 POP POP SWAP3 SWAP6 SWAP9 SWAP2 SWAP5 SWAP8 POP SWAP3 SWAP6 POP JUMP JUMPDEST PUSH1 0x0 DUP1 PUSH1 0x40 DUP4 DUP6 SUB SLT ISZERO PUSH2 0x3D9C JUMPI PUSH2 0x3D9B PUSH2 0x4F4F JUMP JUMPDEST JUMPDEST PUSH1 0x0 PUSH2 0x3DAA DUP6 DUP3 DUP7 ADD PUSH2 0x3BA5 JUMP JUMPDEST SWAP3 POP POP PUSH1 0x20 PUSH2 0x3DBB DUP6 DUP3 DUP7 ADD PUSH2 0x3BE4 JUMP JUMPDEST SWAP2 POP POP SWAP3 POP SWAP3 SWAP1 POP JUMP JUMPDEST PUSH1 0x0 DUP1 PUSH1 0x0 DUP1 PUSH1 0x0 DUP1 PUSH1 0xC0 DUP8 DUP10 SUB SLT ISZERO PUSH2 0x3DE2 JUMPI PUSH2 0x3DE1 PUSH2 0x4F4F JUMP JUMPDEST JUMPDEST PUSH1 0x0 PUSH2 0x3DF0 DUP10 DUP3 DUP11 ADD PUSH2 0x3BA5 JUMP JUMPDEST SWAP7 POP POP PUSH1 0x20 PUSH2 0x3E01 DUP10 DUP3 DUP11 ADD PUSH2 0x3BE4 JUMP JUMPDEST SWAP6 POP POP PUSH1 0x40 PUSH2 0x3E12 DUP10 DUP3 DUP11 ADD PUSH2 0x3BE4 JUMP JUMPDEST SWAP5 POP POP PUSH1 0x60 PUSH2 0x3E23 DUP10 DUP3 DUP11 ADD PUSH2 0x3C0E JUMP JUMPDEST SWAP4 POP POP PUSH1 0x80 PUSH2 0x3E34 DUP10 DUP3 DUP11 ADD PUSH2 0x3BBA JUMP JUMPDEST SWAP3 POP POP PUSH1 0xA0 PUSH2 0x3E45 DUP10 DUP3 DUP11 ADD PUSH2 0x3BBA JUMP JUMPDEST SWAP2 POP POP SWAP3 SWAP6 POP SWAP3 SWAP6 POP SWAP3 SWAP6 JUMP JUMPDEST PUSH1 0x0 DUP1 PUSH1 0x40 DUP4 DUP6 SUB SLT ISZERO PUSH2 0x3E69 JUMPI PUSH2 0x3E68 PUSH2 0x4F4F JUMP JUMPDEST JUMPDEST PUSH1 0x0 PUSH2 0x3E77 DUP6 DUP3 DUP7 ADD PUSH2 0x3BA5 JUMP JUMPDEST SWAP3 POP POP PUSH1 0x20 PUSH2 0x3E88 DUP6 DUP3 DUP7 ADD PUSH2 0x3BF9 JUMP JUMPDEST SWAP2 POP POP SWAP3 POP SWAP3 SWAP1 POP JUMP JUMPDEST PUSH1 0x0 PUSH1 0x20 DUP3 DUP5 SUB SLT ISZERO PUSH2 0x3EA8 JUMPI PUSH2 0x3EA7 PUSH2 0x4F4F JUMP JUMPDEST JUMPDEST PUSH1 0x0 PUSH2 0x3EB6 DUP5 DUP3 DUP6 ADD PUSH2 0x3BBA JUMP JUMPDEST SWAP2 POP POP SWAP3 SWAP2 POP POP JUMP JUMPDEST PUSH1 0x0 DUP1 PUSH1 0x40 DUP4 DUP6 SUB SLT ISZERO PUSH2 0x3ED6 JUMPI PUSH2 0x3ED5 PUSH2 0x4F4F JUMP JUMPDEST JUMPDEST PUSH1 0x0 PUSH2 0x3EE4 DUP6 DUP3 DUP7 ADD PUSH2 0x3BBA JUMP JUMPDEST SWAP3 POP POP PUSH1 0x20 PUSH2 0x3EF5 DUP6 DUP3 DUP7 ADD PUSH2 0x3BA5 JUMP JUMPDEST SWAP2 POP POP SWAP3 POP SWAP3 SWAP1 POP JUMP JUMPDEST PUSH1 0x0 PUSH1 0x20 DUP3 DUP5 SUB SLT ISZERO PUSH2 0x3F15 JUMPI PUSH2 0x3F14 PUSH2 0x4F4F JUMP JUMPDEST JUMPDEST PUSH1 0x0 PUSH2 0x3F23 DUP5 DUP3 DUP6 ADD PUSH2 0x3BCF JUMP JUMPDEST SWAP2 POP POP SWAP3 SWAP2 POP POP JUMP JUMPDEST PUSH1 0x0 PUSH1 0x20 DUP3 DUP5 SUB SLT ISZERO PUSH2 0x3F42 JUMPI PUSH2 0x3F41 PUSH2 0x4F4F JUMP JUMPDEST JUMPDEST PUSH1 0x0 PUSH2 0x3F50 DUP5 DUP3 DUP6 ADD PUSH2 0x3BE4 JUMP JUMPDEST SWAP2 POP POP SWAP3 SWAP2 POP POP JUMP JUMPDEST PUSH2 0x3F62 DUP2 PUSH2 0x4CD9 JUMP JUMPDEST DUP3 MSTORE POP POP JUMP JUMPDEST PUSH2 0x3F71 DUP2 PUSH2 0x4CEB JUMP JUMPDEST DUP3 MSTORE POP POP JUMP JUMPDEST PUSH2 0x3F80 DUP2 PUSH2 0x4CF7 JUMP JUMPDEST DUP3 MSTORE POP POP JUMP JUMPDEST PUSH2 0x3F97 PUSH2 0x3F92 DUP3 PUSH2 0x4CF7 JUMP JUMPDEST PUSH2 0x4E2B JUMP JUMPDEST DUP3 MSTORE POP POP JUMP JUMPDEST PUSH1 0x0 PUSH2 0x3FA8 DUP3 PUSH2 0x4A2C JUMP JUMPDEST PUSH2 0x3FB2 DUP2 DUP6 PUSH2 0x4A37 JUMP JUMPDEST SWAP4 POP PUSH2 0x3FC2 DUP2 DUP6 PUSH1 0x20 DUP7 ADD PUSH2 0x4D9C JUMP JUMPDEST PUSH2 0x3FCB DUP2 PUSH2 0x4F54 JUMP JUMPDEST DUP5 ADD SWAP2 POP POP SWAP3 SWAP2 POP POP JUMP JUMPDEST PUSH1 0x0 PUSH2 0x3FE1 DUP3 PUSH2 0x4A2C JUMP JUMPDEST PUSH2 0x3FEB DUP2 DUP6 PUSH2 0x4A48 JUMP JUMPDEST SWAP4 POP PUSH2 0x3FFB DUP2 DUP6 PUSH1 0x20 DUP7 ADD PUSH2 0x4D9C JUMP JUMPDEST DUP1 DUP5 ADD SWAP2 POP POP SWAP3 SWAP2 POP POP JUMP JUMPDEST PUSH1 0x0 PUSH2 0x4014 PUSH1 0x18 DUP4 PUSH2 0x4A37 JUMP JUMPDEST SWAP2 POP PUSH2 0x401F DUP3 PUSH2 0x4F72 JUMP JUMPDEST PUSH1 0x20 DUP3 ADD SWAP1 POP SWAP2 SWAP1 POP JUMP JUMPDEST PUSH1 0x0 PUSH2 0x4037 PUSH1 0x20 DUP4 PUSH2 0x4A37 JUMP JUMPDEST SWAP2 POP PUSH2 0x4042 DUP3 PUSH2 0x4F9B JUMP JUMPDEST PUSH1 0x20 DUP3 ADD SWAP1 POP SWAP2 SWAP1 POP JUMP JUMPDEST PUSH1 0x0 PUSH2 0x405A PUSH1 0x23 DUP4 PUSH2 0x4A37 JUMP JUMPDEST SWAP2 POP PUSH2 0x4065 DUP3 PUSH2 0x4FC4 JUMP JUMPDEST PUSH1 0x40 DUP3 ADD SWAP1 POP SWAP2 SWAP1 POP JUMP JUMPDEST PUSH1 0x0 PUSH2 0x407D PUSH1 0x1F DUP4 PUSH2 0x4A37 JUMP JUMPDEST SWAP2 POP PUSH2 0x4088 DUP3 PUSH2 0x5013 JUMP JUMPDEST PUSH1 0x20 DUP3 ADD SWAP1 POP SWAP2 SWAP1 POP JUMP JUMPDEST PUSH1 0x0 PUSH2 0x40A0 PUSH1 0x14 DUP4 PUSH2 0x4A37 JUMP JUMPDEST SWAP2 POP PUSH2 0x40AB DUP3 PUSH2 0x503C JUMP JUMPDEST PUSH1 0x20 DUP3 ADD SWAP1 POP SWAP2 SWAP1 POP JUMP JUMPDEST PUSH1 0x0 PUSH2 0x40C3 PUSH1 0x1D DUP4 PUSH2 0x4A37 JUMP JUMPDEST SWAP2 POP PUSH2 0x40CE DUP3 PUSH2 0x5065 JUMP JUMPDEST PUSH1 0x20 DUP3 ADD SWAP1 POP SWAP2 SWAP1 POP JUMP JUMPDEST PUSH1 0x0 PUSH2 0x40E6 PUSH1 0x1F DUP4 PUSH2 0x4A37 JUMP JUMPDEST SWAP2 POP PUSH2 0x40F1 DUP3 PUSH2 0x508E JUMP JUMPDEST PUSH1 0x20 DUP3 ADD SWAP1 POP SWAP2 SWAP1 POP JUMP JUMPDEST PUSH1 0x0 PUSH2 0x4109 PUSH1 0x19 DUP4 PUSH2 0x4A37 JUMP JUMPDEST SWAP2 POP PUSH2 0x4114 DUP3 PUSH2 0x50B7 JUMP JUMPDEST PUSH1 0x20 DUP3 ADD SWAP1 POP SWAP2 SWAP1 POP JUMP JUMPDEST PUSH1 0x0 PUSH2 0x412C PUSH1 0x22 DUP4 PUSH2 0x4A37 JUMP JUMPDEST SWAP2 POP PUSH2 0x4137 DUP3 PUSH2 0x50E0 JUMP JUMPDEST PUSH1 0x40 DUP3 ADD SWAP1 POP SWAP2 SWAP1 POP JUMP JUMPDEST PUSH1 0x0 PUSH2 0x414F PUSH1 0x2 DUP4 PUSH2 0x4A48 JUMP JUMPDEST SWAP2 POP PUSH2 0x415A DUP3 PUSH2 0x512F JUMP JUMPDEST PUSH1 0x2 DUP3 ADD SWAP1 POP SWAP2 SWAP1 POP JUMP JUMPDEST PUSH1 0x0 PUSH2 0x4172 PUSH1 0x1D DUP4 PUSH2 0x4A37 JUMP JUMPDEST SWAP2 POP PUSH2 0x417D DUP3 PUSH2 0x5158 JUMP JUMPDEST PUSH1 0x20 DUP3 ADD SWAP1 POP SWAP2 SWAP1 POP JUMP JUMPDEST PUSH1 0x0 PUSH2 0x4195 PUSH1 0x26 DUP4 PUSH2 0x4A37 JUMP JUMPDEST SWAP2 POP PUSH2 0x41A0 DUP3 PUSH2 0x5181 JUMP JUMPDEST PUSH1 0x40 DUP3 ADD SWAP1 POP SWAP2 SWAP1 POP JUMP JUMPDEST PUSH1 0x0 PUSH2 0x41B8 PUSH1 0x22 DUP4 PUSH2 0x4A37 JUMP JUMPDEST SWAP2 POP PUSH2 0x41C3 DUP3 PUSH2 0x51D0 JUMP JUMPDEST PUSH1 0x40 DUP3 ADD SWAP1 POP SWAP2 SWAP1 POP JUMP JUMPDEST PUSH1 0x0 PUSH2 0x41DB PUSH1 0x10 DUP4 PUSH2 0x4A37 JUMP JUMPDEST SWAP2 POP PUSH2 0x41E6 DUP3 PUSH2 0x521F JUMP JUMPDEST PUSH1 0x20 DUP3 ADD SWAP1 POP SWAP2 SWAP1 POP JUMP JUMPDEST PUSH1 0x0 PUSH2 0x41FE PUSH1 0x2E DUP4 PUSH2 0x4A37 JUMP JUMPDEST SWAP2 POP PUSH2 0x4209 DUP3 PUSH2 0x5248 JUMP JUMPDEST PUSH1 0x40 DUP3 ADD SWAP1 POP SWAP2 SWAP1 POP JUMP JUMPDEST PUSH1 0x0 PUSH2 0x4221 PUSH1 0x22 DUP4 PUSH2 0x4A37 JUMP JUMPDEST SWAP2 POP PUSH2 0x422C DUP3 PUSH2 0x5297 JUMP JUMPDEST PUSH1 0x40 DUP3 ADD SWAP1 POP SWAP2 SWAP1 POP JUMP JUMPDEST PUSH1 0x0 PUSH2 0x4244 PUSH1 0x1E DUP4 PUSH2 0x4A37 JUMP JUMPDEST SWAP2 POP PUSH2 0x424F DUP3 PUSH2 0x52E6 JUMP JUMPDEST PUSH1 0x20 DUP3 ADD SWAP1 POP SWAP2 SWAP1 POP JUMP JUMPDEST PUSH1 0x0 PUSH2 0x4267 PUSH1 0x28 DUP4 PUSH2 0x4A37 JUMP JUMPDEST SWAP2 POP PUSH2 0x4272 DUP3 PUSH2 0x530F JUMP JUMPDEST PUSH1 0x40 DUP3 ADD SWAP1 POP SWAP2 SWAP1 POP JUMP JUMPDEST PUSH1 0x0 PUSH2 0x428A PUSH1 0x30 DUP4 PUSH2 0x4A37 JUMP JUMPDEST SWAP2 POP PUSH2 0x4295 DUP3 PUSH2 0x535E JUMP JUMPDEST PUSH1 0x40 DUP3 ADD SWAP1 POP SWAP2 SWAP1 POP JUMP JUMPDEST PUSH1 0x0 PUSH2 0x42AD PUSH1 0x27 DUP4 PUSH2 0x4A37 JUMP JUMPDEST SWAP2 POP PUSH2 0x42B8 DUP3 PUSH2 0x53AD JUMP JUMPDEST PUSH1 0x40 DUP3 ADD SWAP1 POP SWAP2 SWAP1 POP JUMP JUMPDEST PUSH1 0x0 PUSH2 0x42D0 PUSH1 0x25 DUP4 PUSH2 0x4A37 JUMP JUMPDEST SWAP2 POP PUSH2 0x42DB DUP3 PUSH2 0x53FC JUMP JUMPDEST PUSH1 0x40 DUP3 ADD SWAP1 POP SWAP2 SWAP1 POP JUMP JUMPDEST PUSH1 0x0 PUSH2 0x42F3 PUSH1 0x26 DUP4 PUSH2 0x4A37 JUMP JUMPDEST SWAP2 POP PUSH2 0x42FE DUP3 PUSH2 0x544B JUMP JUMPDEST PUSH1 0x40 DUP3 ADD SWAP1 POP SWAP2 SWAP1 POP JUMP JUMPDEST PUSH1 0x0 PUSH2 0x4316 PUSH1 0x24 DUP4 PUSH2 0x4A37 JUMP JUMPDEST SWAP2 POP PUSH2 0x4321 DUP3 PUSH2 0x549A JUMP JUMPDEST PUSH1 0x40 DUP3 ADD SWAP1 POP SWAP2 SWAP1 POP JUMP JUMPDEST PUSH1 0x0 PUSH2 0x4339 PUSH1 0x17 DUP4 PUSH2 0x4A48 JUMP JUMPDEST SWAP2 POP PUSH2 0x4344 DUP3 PUSH2 0x54E9 JUMP JUMPDEST PUSH1 0x17 DUP3 ADD SWAP1 POP SWAP2 SWAP1 POP JUMP JUMPDEST PUSH1 0x0 PUSH2 0x435C PUSH1 0x25 DUP4 PUSH2 0x4A37 JUMP JUMPDEST SWAP2 POP PUSH2 0x4367 DUP3 PUSH2 0x5512 JUMP JUMPDEST PUSH1 0x40 DUP3 ADD SWAP1 POP SWAP2 SWAP1 POP JUMP JUMPDEST PUSH1 0x0 PUSH2 0x437F PUSH1 0x11 DUP4 PUSH2 0x4A48 JUMP JUMPDEST SWAP2 POP PUSH2 0x438A DUP3 PUSH2 0x5561 JUMP JUMPDEST PUSH1 0x11 DUP3 ADD SWAP1 POP SWAP2 SWAP1 POP JUMP JUMPDEST PUSH1 0x0 PUSH2 0x43A2 PUSH1 0x2F DUP4 PUSH2 0x4A37 JUMP JUMPDEST SWAP2 POP PUSH2 0x43AD DUP3 PUSH2 0x558A JUMP JUMPDEST PUSH1 0x40 DUP3 ADD SWAP1 POP SWAP2 SWAP1 POP JUMP JUMPDEST PUSH1 0x0 PUSH2 0x43C5 PUSH1 0x1F DUP4 PUSH2 0x4A37 JUMP JUMPDEST SWAP2 POP PUSH2 0x43D0 DUP3 PUSH2 0x55D9 JUMP JUMPDEST PUSH1 0x20 DUP3 ADD SWAP1 POP SWAP2 SWAP1 POP JUMP JUMPDEST PUSH1 0x40 DUP3 ADD PUSH1 0x0 DUP3 ADD MLOAD PUSH2 0x43F1 PUSH1 0x0 DUP6 ADD DUP3 PUSH2 0x4428 JUMP JUMPDEST POP PUSH1 0x20 DUP3 ADD MLOAD PUSH2 0x4404 PUSH1 0x20 DUP6 ADD DUP3 PUSH2 0x440A JUMP JUMPDEST POP POP POP POP JUMP JUMPDEST PUSH2 0x4413 DUP2 PUSH2 0x4D4D JUMP JUMPDEST DUP3 MSTORE POP POP JUMP JUMPDEST PUSH2 0x4422 DUP2 PUSH2 0x4D75 JUMP JUMPDEST DUP3 MSTORE POP POP JUMP JUMPDEST PUSH2 0x4431 DUP2 PUSH2 0x4D7F JUMP JUMPDEST DUP3 MSTORE POP POP JUMP JUMPDEST PUSH2 0x4440 DUP2 PUSH2 0x4D7F JUMP JUMPDEST DUP3 MSTORE POP POP JUMP JUMPDEST PUSH2 0x444F DUP2 PUSH2 0x4D8F JUMP JUMPDEST DUP3 MSTORE POP POP JUMP JUMPDEST PUSH1 0x0 PUSH2 0x4460 DUP3 PUSH2 0x4142 JUMP JUMPDEST SWAP2 POP PUSH2 0x446C DUP3 DUP6 PUSH2 0x3F86 JUMP JUMPDEST PUSH1 0x20 DUP3 ADD SWAP2 POP PUSH2 0x447C DUP3 DUP5 PUSH2 0x3F86 JUMP JUMPDEST PUSH1 0x20 DUP3 ADD SWAP2 POP DUP2 SWAP1 POP SWAP4 SWAP3 POP POP POP JUMP JUMPDEST PUSH1 0x0 PUSH2 0x4497 DUP3 PUSH2 0x432C JUMP JUMPDEST SWAP2 POP PUSH2 0x44A3 DUP3 DUP6 PUSH2 0x3FD6 JUMP JUMPDEST SWAP2 POP PUSH2 0x44AE DUP3 PUSH2 0x4372 JUMP JUMPDEST SWAP2 POP PUSH2 0x44BA DUP3 DUP5 PUSH2 0x3FD6 JUMP JUMPDEST SWAP2 POP DUP2 SWAP1 POP SWAP4 SWAP3 POP POP POP JUMP JUMPDEST PUSH1 0x0 PUSH1 0x20 DUP3 ADD SWAP1 POP PUSH2 0x44DB PUSH1 0x0 DUP4 ADD DUP5 PUSH2 0x3F59 JUMP JUMPDEST SWAP3 SWAP2 POP POP JUMP JUMPDEST PUSH1 0x0 PUSH1 0x20 DUP3 ADD SWAP1 POP PUSH2 0x44F6 PUSH1 0x0 DUP4 ADD DUP5 PUSH2 0x3F68 JUMP JUMPDEST SWAP3 SWAP2 POP POP JUMP JUMPDEST PUSH1 0x0 PUSH1 0x20 DUP3 ADD SWAP1 POP PUSH2 0x4511 PUSH1 0x0 DUP4 ADD DUP5 PUSH2 0x3F77 JUMP JUMPDEST SWAP3 SWAP2 POP POP JUMP JUMPDEST PUSH1 0x0 PUSH1 0xC0 DUP3 ADD SWAP1 POP PUSH2 0x452C PUSH1 0x0 DUP4 ADD DUP10 PUSH2 0x3F77 JUMP JUMPDEST PUSH2 0x4539 PUSH1 0x20 DUP4 ADD DUP9 PUSH2 0x3F59 JUMP JUMPDEST PUSH2 0x4546 PUSH1 0x40 DUP4 ADD DUP8 PUSH2 0x3F59 JUMP JUMPDEST PUSH2 0x4553 PUSH1 0x60 DUP4 ADD DUP7 PUSH2 0x4419 JUMP JUMPDEST PUSH2 0x4560 PUSH1 0x80 DUP4 ADD DUP6 PUSH2 0x4419 JUMP JUMPDEST PUSH2 0x456D PUSH1 0xA0 DUP4 ADD DUP5 PUSH2 0x4419 JUMP JUMPDEST SWAP8 SWAP7 POP POP POP POP POP POP POP JUMP JUMPDEST PUSH1 0x0 PUSH1 0x80 DUP3 ADD SWAP1 POP PUSH2 0x458D PUSH1 0x0 DUP4 ADD DUP8 PUSH2 0x3F77 JUMP JUMPDEST PUSH2 0x459A PUSH1 0x20 DUP4 ADD DUP7 PUSH2 0x3F59 JUMP JUMPDEST PUSH2 0x45A7 PUSH1 0x40 DUP4 ADD DUP6 PUSH2 0x4419 JUMP JUMPDEST PUSH2 0x45B4 PUSH1 0x60 DUP4 ADD DUP5 PUSH2 0x4419 JUMP JUMPDEST SWAP6 SWAP5 POP POP POP POP POP JUMP JUMPDEST PUSH1 0x0 PUSH1 0xA0 DUP3 ADD SWAP1 POP PUSH2 0x45D2 PUSH1 0x0 DUP4 ADD DUP9 PUSH2 0x3F77 JUMP JUMPDEST PUSH2 0x45DF PUSH1 0x20 DUP4 ADD DUP8 PUSH2 0x3F77 JUMP JUMPDEST PUSH2 0x45EC PUSH1 0x40 DUP4 ADD DUP7 PUSH2 0x3F77 JUMP JUMPDEST PUSH2 0x45F9 PUSH1 0x60 DUP4 ADD DUP6 PUSH2 0x4419 JUMP JUMPDEST PUSH2 0x4606 PUSH1 0x80 DUP4 ADD DUP5 PUSH2 0x3F59 JUMP JUMPDEST SWAP7 SWAP6 POP POP POP POP POP POP JUMP JUMPDEST PUSH1 0x0 PUSH1 0x80 DUP3 ADD SWAP1 POP PUSH2 0x4625 PUSH1 0x0 DUP4 ADD DUP8 PUSH2 0x3F77 JUMP JUMPDEST PUSH2 0x4632 PUSH1 0x20 DUP4 ADD DUP7 PUSH2 0x4446 JUMP JUMPDEST PUSH2 0x463F PUSH1 0x40 DUP4 ADD DUP6 PUSH2 0x3F77 JUMP JUMPDEST PUSH2 0x464C PUSH1 0x60 DUP4 ADD DUP5 PUSH2 0x3F77 JUMP JUMPDEST SWAP6 SWAP5 POP POP POP POP POP JUMP JUMPDEST PUSH1 0x0 PUSH1 0x20 DUP3 ADD SWAP1 POP DUP2 DUP2 SUB PUSH1 0x0 DUP4 ADD MSTORE PUSH2 0x466F DUP2 DUP5 PUSH2 0x3F9D JUMP JUMPDEST SWAP1 POP SWAP3 SWAP2 POP POP JUMP JUMPDEST PUSH1 0x0 PUSH1 0x20 DUP3 ADD SWAP1 POP DUP2 DUP2 SUB PUSH1 0x0 DUP4 ADD MSTORE PUSH2 0x4690 DUP2 PUSH2 0x4007 JUMP JUMPDEST SWAP1 POP SWAP2 SWAP1 POP JUMP JUMPDEST PUSH1 0x0 PUSH1 0x20 DUP3 ADD SWAP1 POP DUP2 DUP2 SUB PUSH1 0x0 DUP4 ADD MSTORE PUSH2 0x46B0 DUP2 PUSH2 0x402A JUMP JUMPDEST SWAP1 POP SWAP2 SWAP1 POP JUMP JUMPDEST PUSH1 0x0 PUSH1 0x20 DUP3 ADD SWAP1 POP DUP2 DUP2 SUB PUSH1 0x0 DUP4 ADD MSTORE PUSH2 0x46D0 DUP2 PUSH2 0x404D JUMP JUMPDEST SWAP1 POP SWAP2 SWAP1 POP JUMP JUMPDEST PUSH1 0x0 PUSH1 0x20 DUP3 ADD SWAP1 POP DUP2 DUP2 SUB PUSH1 0x0 DUP4 ADD MSTORE PUSH2 0x46F0 DUP2 PUSH2 0x4070 JUMP JUMPDEST SWAP1 POP SWAP2 SWAP1 POP JUMP JUMPDEST PUSH1 0x0 PUSH1 0x20 DUP3 ADD SWAP1 POP DUP2 DUP2 SUB PUSH1 0x0 DUP4 ADD MSTORE PUSH2 0x4710 DUP2 PUSH2 0x4093 JUMP JUMPDEST SWAP1 POP SWAP2 SWAP1 POP JUMP JUMPDEST PUSH1 0x0 PUSH1 0x20 DUP3 ADD SWAP1 POP DUP2 DUP2 SUB PUSH1 0x0 DUP4 ADD MSTORE PUSH2 0x4730 DUP2 PUSH2 0x40B6 JUMP JUMPDEST SWAP1 POP SWAP2 SWAP1 POP JUMP JUMPDEST PUSH1 0x0 PUSH1 0x20 DUP3 ADD SWAP1 POP DUP2 DUP2 SUB PUSH1 0x0 DUP4 ADD MSTORE PUSH2 0x4750 DUP2 PUSH2 0x40D9 JUMP JUMPDEST SWAP1 POP SWAP2 SWAP1 POP JUMP JUMPDEST PUSH1 0x0 PUSH1 0x20 DUP3 ADD SWAP1 POP DUP2 DUP2 SUB PUSH1 0x0 DUP4 ADD MSTORE PUSH2 0x4770 DUP2 PUSH2 0x40FC JUMP JUMPDEST SWAP1 POP SWAP2 SWAP1 POP JUMP JUMPDEST PUSH1 0x0 PUSH1 0x20 DUP3 ADD SWAP1 POP DUP2 DUP2 SUB PUSH1 0x0 DUP4 ADD MSTORE PUSH2 0x4790 DUP2 PUSH2 0x411F JUMP JUMPDEST SWAP1 POP SWAP2 SWAP1 POP JUMP JUMPDEST PUSH1 0x0 PUSH1 0x20 DUP3 ADD SWAP1 POP DUP2 DUP2 SUB PUSH1 0x0 DUP4 ADD MSTORE PUSH2 0x47B0 DUP2 PUSH2 0x4165 JUMP JUMPDEST SWAP1 POP SWAP2 SWAP1 POP JUMP JUMPDEST PUSH1 0x0 PUSH1 0x20 DUP3 ADD SWAP1 POP DUP2 DUP2 SUB PUSH1 0x0 DUP4 ADD MSTORE PUSH2 0x47D0 DUP2 PUSH2 0x4188 JUMP JUMPDEST SWAP1 POP SWAP2 SWAP1 POP JUMP JUMPDEST PUSH1 0x0 PUSH1 0x20 DUP3 ADD SWAP1 POP DUP2 DUP2 SUB PUSH1 0x0 DUP4 ADD MSTORE PUSH2 0x47F0 DUP2 PUSH2 0x41AB JUMP JUMPDEST SWAP1 POP SWAP2 SWAP1 POP JUMP JUMPDEST PUSH1 0x0 PUSH1 0x20 DUP3 ADD SWAP1 POP DUP2 DUP2 SUB PUSH1 0x0 DUP4 ADD MSTORE PUSH2 0x4810 DUP2 PUSH2 0x41CE JUMP JUMPDEST SWAP1 POP SWAP2 SWAP1 POP JUMP JUMPDEST PUSH1 0x0 PUSH1 0x20 DUP3 ADD SWAP1 POP DUP2 DUP2 SUB PUSH1 0x0 DUP4 ADD MSTORE PUSH2 0x4830 DUP2 PUSH2 0x41F1 JUMP JUMPDEST SWAP1 POP SWAP2 SWAP1 POP JUMP JUMPDEST PUSH1 0x0 PUSH1 0x20 DUP3 ADD SWAP1 POP DUP2 DUP2 SUB PUSH1 0x0 DUP4 ADD MSTORE PUSH2 0x4850 DUP2 PUSH2 0x4214 JUMP JUMPDEST SWAP1 POP SWAP2 SWAP1 POP JUMP JUMPDEST PUSH1 0x0 PUSH1 0x20 DUP3 ADD SWAP1 POP DUP2 DUP2 SUB PUSH1 0x0 DUP4 ADD MSTORE PUSH2 0x4870 DUP2 PUSH2 0x4237 JUMP JUMPDEST SWAP1 POP SWAP2 SWAP1 POP JUMP JUMPDEST PUSH1 0x0 PUSH1 0x20 DUP3 ADD SWAP1 POP DUP2 DUP2 SUB PUSH1 0x0 DUP4 ADD MSTORE PUSH2 0x4890 DUP2 PUSH2 0x425A JUMP JUMPDEST SWAP1 POP SWAP2 SWAP1 POP JUMP JUMPDEST PUSH1 0x0 PUSH1 0x20 DUP3 ADD SWAP1 POP DUP2 DUP2 SUB PUSH1 0x0 DUP4 ADD MSTORE PUSH2 0x48B0 DUP2 PUSH2 0x427D JUMP JUMPDEST SWAP1 POP SWAP2 SWAP1 POP JUMP JUMPDEST PUSH1 0x0 PUSH1 0x20 DUP3 ADD SWAP1 POP DUP2 DUP2 SUB PUSH1 0x0 DUP4 ADD MSTORE PUSH2 0x48D0 DUP2 PUSH2 0x42A0 JUMP JUMPDEST SWAP1 POP SWAP2 SWAP1 POP JUMP JUMPDEST PUSH1 0x0 PUSH1 0x20 DUP3 ADD SWAP1 POP DUP2 DUP2 SUB PUSH1 0x0 DUP4 ADD MSTORE PUSH2 0x48F0 DUP2 PUSH2 0x42C3 JUMP JUMPDEST SWAP1 POP SWAP2 SWAP1 POP JUMP JUMPDEST PUSH1 0x0 PUSH1 0x20 DUP3 ADD SWAP1 POP DUP2 DUP2 SUB PUSH1 0x0 DUP4 ADD MSTORE PUSH2 0x4910 DUP2 PUSH2 0x42E6 JUMP JUMPDEST SWAP1 POP SWAP2 SWAP1 POP JUMP JUMPDEST PUSH1 0x0 PUSH1 0x20 DUP3 ADD SWAP1 POP DUP2 DUP2 SUB PUSH1 0x0 DUP4 ADD MSTORE PUSH2 0x4930 DUP2 PUSH2 0x4309 JUMP JUMPDEST SWAP1 POP SWAP2 SWAP1 POP JUMP JUMPDEST PUSH1 0x0 PUSH1 0x20 DUP3 ADD SWAP1 POP DUP2 DUP2 SUB PUSH1 0x0 DUP4 ADD MSTORE PUSH2 0x4950 DUP2 PUSH2 0x434F JUMP JUMPDEST SWAP1 POP SWAP2 SWAP1 POP JUMP JUMPDEST PUSH1 0x0 PUSH1 0x20 DUP3 ADD SWAP1 POP DUP2 DUP2 SUB PUSH1 0x0 DUP4 ADD MSTORE PUSH2 0x4970 DUP2 PUSH2 0x4395 JUMP JUMPDEST SWAP1 POP SWAP2 SWAP1 POP JUMP JUMPDEST PUSH1 0x0 PUSH1 0x20 DUP3 ADD SWAP1 POP DUP2 DUP2 SUB PUSH1 0x0 DUP4 ADD MSTORE PUSH2 0x4990 DUP2 PUSH2 0x43B8 JUMP JUMPDEST SWAP1 POP SWAP2 SWAP1 POP JUMP JUMPDEST PUSH1 0x0 PUSH1 0x40 DUP3 ADD SWAP1 POP PUSH2 0x49AC PUSH1 0x0 DUP4 ADD DUP5 PUSH2 0x43DB JUMP JUMPDEST SWAP3 SWAP2 POP POP JUMP JUMPDEST PUSH1 0x0 PUSH1 0x20 DUP3 ADD SWAP1 POP PUSH2 0x49C7 PUSH1 0x0 DUP4 ADD DUP5 PUSH2 0x4419 JUMP JUMPDEST SWAP3 SWAP2 POP POP JUMP JUMPDEST PUSH1 0x0 PUSH1 0x40 DUP3 ADD SWAP1 POP PUSH2 0x49E2 PUSH1 0x0 DUP4 ADD DUP6 PUSH2 0x4419 JUMP JUMPDEST PUSH2 0x49EF PUSH1 0x20 DUP4 ADD DUP5 PUSH2 0x4419 JUMP JUMPDEST SWAP4 SWAP3 POP POP POP JUMP JUMPDEST PUSH1 0x0 PUSH1 0x20 DUP3 ADD SWAP1 POP PUSH2 0x4A0B PUSH1 0x0 DUP4 ADD DUP5 PUSH2 0x4437 JUMP JUMPDEST SWAP3 SWAP2 POP POP JUMP JUMPDEST PUSH1 0x0 PUSH1 0x20 DUP3 ADD SWAP1 POP PUSH2 0x4A26 PUSH1 0x0 DUP4 ADD DUP5 PUSH2 0x4446 JUMP JUMPDEST SWAP3 SWAP2 POP POP JUMP JUMPDEST PUSH1 0x0 DUP2 MLOAD SWAP1 POP SWAP2 SWAP1 POP JUMP JUMPDEST PUSH1 0x0 DUP3 DUP3 MSTORE PUSH1 0x20 DUP3 ADD SWAP1 POP SWAP3 SWAP2 POP POP JUMP JUMPDEST PUSH1 0x0 DUP2 SWAP1 POP SWAP3 SWAP2 POP POP JUMP JUMPDEST PUSH1 0x0 PUSH2 0x4A5E DUP3 PUSH2 0x4D75 JUMP JUMPDEST SWAP2 POP PUSH2 0x4A69 DUP4 PUSH2 0x4D75 JUMP JUMPDEST SWAP3 POP DUP3 PUSH32 0xFFFFFFFFFFFFFFFFFFFFFFFFFFFFFFFFFFFFFFFFFFFFFFFFFFFFFFFFFFFFFFFF SUB DUP3 GT ISZERO PUSH2 0x4A9E JUMPI PUSH2 0x4A9D PUSH2 0x4E35 JUMP JUMPDEST JUMPDEST DUP3 DUP3 ADD SWAP1 POP SWAP3 SWAP2 POP POP JUMP JUMPDEST PUSH1 0x0 PUSH2 0x4AB4 DUP3 PUSH2 0x4D75 JUMP JUMPDEST SWAP2 POP PUSH2 0x4ABF DUP4 PUSH2 0x4D75 JUMP JUMPDEST SWAP3 POP DUP3 PUSH2 0x4ACF JUMPI PUSH2 0x4ACE PUSH2 0x4E64 JUMP JUMPDEST JUMPDEST DUP3 DUP3 DIV SWAP1 POP SWAP3 SWAP2 POP POP JUMP JUMPDEST PUSH1 0x0 DUP1 DUP3 SWAP2 POP DUP4 SWAP1 POP JUMPDEST PUSH1 0x1 DUP6 GT ISZERO PUSH2 0x4B24 JUMPI DUP1 DUP7 DIV DUP2 GT ISZERO PUSH2 0x4B00 JUMPI PUSH2 0x4AFF PUSH2 0x4E35 JUMP JUMPDEST JUMPDEST PUSH1 0x1 DUP6 AND ISZERO PUSH2 0x4B0F JUMPI DUP1 DUP3 MUL SWAP2 POP JUMPDEST DUP1 DUP2 MUL SWAP1 POP PUSH2 0x4B1D DUP6 PUSH2 0x4F65 JUMP JUMPDEST SWAP5 POP PUSH2 0x4AE4 JUMP JUMPDEST SWAP5 POP SWAP5 SWAP3 POP POP POP JUMP JUMPDEST PUSH1 0x0 PUSH2 0x4B38 DUP3 PUSH2 0x4D75 JUMP JUMPDEST SWAP2 POP PUSH2 0x4B43 DUP4 PUSH2 0x4D8F JUMP JUMPDEST SWAP3 POP PUSH2 0x4B70 PUSH32 0xFFFFFFFFFFFFFFFFFFFFFFFFFFFFFFFFFFFFFFFFFFFFFFFFFFFFFFFFFFFFFFFF DUP5 DUP5 PUSH2 0x4B78 JUMP JUMPDEST SWAP1 POP SWAP3 SWAP2 POP POP JUMP JUMPDEST PUSH1 0x0 DUP3 PUSH2 0x4B88 JUMPI PUSH1 0x1 SWAP1 POP PUSH2 0x4C44 JUMP JUMPDEST DUP2 PUSH2 0x4B96 JUMPI PUSH1 0x0 SWAP1 POP PUSH2 0x4C44 JUMP JUMPDEST DUP2 PUSH1 0x1 DUP2 EQ PUSH2 0x4BAC JUMPI PUSH1 0x2 DUP2 EQ PUSH2 0x4BB6 JUMPI PUSH2 0x4BE5 JUMP JUMPDEST PUSH1 0x1 SWAP2 POP POP PUSH2 0x4C44 JUMP JUMPDEST PUSH1 0xFF DUP5 GT ISZERO PUSH2 0x4BC8 JUMPI PUSH2 0x4BC7 PUSH2 0x4E35 JUMP JUMPDEST JUMPDEST DUP4 PUSH1 0x2 EXP SWAP2 POP DUP5 DUP3 GT ISZERO PUSH2 0x4BDF JUMPI PUSH2 0x4BDE PUSH2 0x4E35 JUMP JUMPDEST JUMPDEST POP PUSH2 0x4C44 JUMP JUMPDEST POP PUSH1 0x20 DUP4 LT PUSH2 0x133 DUP4 LT AND PUSH1 0x4E DUP5 LT PUSH1 0xB DUP5 LT AND OR ISZERO PUSH2 0x4C1A JUMPI DUP3 DUP3 EXP SWAP1 POP DUP4 DUP2 GT ISZERO PUSH2 0x4C15 JUMPI PUSH2 0x4C14 PUSH2 0x4E35 JUMP JUMPDEST JUMPDEST PUSH2 0x4C44 JUMP JUMPDEST PUSH2 0x4C27 DUP5 DUP5 DUP5 PUSH1 0x1 PUSH2 0x4ADA JUMP JUMPDEST SWAP3 POP SWAP1 POP DUP2 DUP5 DIV DUP2 GT ISZERO PUSH2 0x4C3E JUMPI PUSH2 0x4C3D PUSH2 0x4E35 JUMP JUMPDEST JUMPDEST DUP2 DUP2 MUL SWAP1 POP JUMPDEST SWAP4 SWAP3 POP POP POP JUMP JUMPDEST PUSH1 0x0 PUSH2 0x4C56 DUP3 PUSH2 0x4D75 JUMP JUMPDEST SWAP2 POP PUSH2 0x4C61 DUP4 PUSH2 0x4D75 JUMP JUMPDEST SWAP3 POP DUP2 PUSH32 0xFFFFFFFFFFFFFFFFFFFFFFFFFFFFFFFFFFFFFFFFFFFFFFFFFFFFFFFFFFFFFFFF DIV DUP4 GT DUP3 ISZERO ISZERO AND ISZERO PUSH2 0x4C9A JUMPI PUSH2 0x4C99 PUSH2 0x4E35 JUMP JUMPDEST JUMPDEST DUP3 DUP3 MUL SWAP1 POP SWAP3 SWAP2 POP POP JUMP JUMPDEST PUSH1 0x0 PUSH2 0x4CB0 DUP3 PUSH2 0x4D75 JUMP JUMPDEST SWAP2 POP PUSH2 0x4CBB DUP4 PUSH2 0x4D75 JUMP JUMPDEST SWAP3 POP DUP3 DUP3 LT ISZERO PUSH2 0x4CCE JUMPI PUSH2 0x4CCD PUSH2 0x4E35 JUMP JUMPDEST JUMPDEST DUP3 DUP3 SUB SWAP1 POP SWAP3 SWAP2 POP POP JUMP JUMPDEST PUSH1 0x0 PUSH2 0x4CE4 DUP3 PUSH2 0x4D2D JUMP JUMPDEST SWAP1 POP SWAP2 SWAP1 POP JUMP JUMPDEST PUSH1 0x0 DUP2 ISZERO ISZERO SWAP1 POP SWAP2 SWAP1 POP JUMP JUMPDEST PUSH1 0x0 DUP2 SWAP1 POP SWAP2 SWAP1 POP JUMP JUMPDEST PUSH1 0x0 PUSH32 0xFFFFFFFF00000000000000000000000000000000000000000000000000000000 DUP3 AND SWAP1 POP SWAP2 SWAP1 POP JUMP JUMPDEST PUSH1 0x0 PUSH20 0xFFFFFFFFFFFFFFFFFFFFFFFFFFFFFFFFFFFFFFFF DUP3 AND SWAP1 POP SWAP2 SWAP1 POP JUMP JUMPDEST PUSH1 0x0 PUSH28 0xFFFFFFFFFFFFFFFFFFFFFFFFFFFFFFFFFFFFFFFFFFFFFFFFFFFFFFFF DUP3 AND SWAP1 POP SWAP2 SWAP1 POP JUMP JUMPDEST PUSH1 0x0 DUP2 SWAP1 POP SWAP2 SWAP1 POP JUMP JUMPDEST PUSH1 0x0 PUSH4 0xFFFFFFFF DUP3 AND SWAP1 POP SWAP2 SWAP1 POP JUMP JUMPDEST PUSH1 0x0 PUSH1 0xFF DUP3 AND SWAP1 POP SWAP2 SWAP1 POP JUMP JUMPDEST PUSH1 0x0 JUMPDEST DUP4 DUP2 LT ISZERO PUSH2 0x4DBA JUMPI DUP1 DUP3 ADD MLOAD DUP2 DUP5 ADD MSTORE PUSH1 0x20 DUP2 ADD SWAP1 POP PUSH2 0x4D9F JUMP JUMPDEST DUP4 DUP2 GT ISZERO PUSH2 0x4DC9 JUMPI PUSH1 0x0 DUP5 DUP5 ADD MSTORE JUMPDEST POP POP POP POP JUMP JUMPDEST PUSH1 0x0 PUSH2 0x4DDA DUP3 PUSH2 0x4D75 JUMP JUMPDEST SWAP2 POP PUSH1 0x0 DUP3 EQ ISZERO PUSH2 0x4DEE JUMPI PUSH2 0x4DED PUSH2 0x4E35 JUMP JUMPDEST JUMPDEST PUSH1 0x1 DUP3 SUB SWAP1 POP SWAP2 SWAP1 POP JUMP JUMPDEST PUSH1 0x0 PUSH1 0x2 DUP3 DIV SWAP1 POP PUSH1 0x1 DUP3 AND DUP1 PUSH2 0x4E11 JUMPI PUSH1 0x7F DUP3 AND SWAP2 POP JUMPDEST PUSH1 0x20 DUP3 LT DUP2 EQ ISZERO PUSH2 0x4E25 JUMPI PUSH2 0x4E24 PUSH2 0x4EC2 JUMP JUMPDEST JUMPDEST POP SWAP2 SWAP1 POP JUMP JUMPDEST PUSH1 0x0 DUP2 SWAP1 POP SWAP2 SWAP1 POP JUMP JUMPDEST PUSH32 0x4E487B7100000000000000000000000000000000000000000000000000000000 PUSH1 0x0 MSTORE PUSH1 0x11 PUSH1 0x4 MSTORE PUSH1 0x24 PUSH1 0x0 REVERT JUMPDEST PUSH32 0x4E487B7100000000000000000000000000000000000000000000000000000000 PUSH1 0x0 MSTORE PUSH1 0x12 PUSH1 0x4 MSTORE PUSH1 0x24 PUSH1 0x0 REVERT JUMPDEST PUSH32 0x4E487B7100000000000000000000000000000000000000000000000000000000 PUSH1 0x0 MSTORE PUSH1 0x21 PUSH1 0x4 MSTORE PUSH1 0x24 PUSH1 0x0 REVERT JUMPDEST PUSH32 0x4E487B7100000000000000000000000000000000000000000000000000000000 PUSH1 0x0 MSTORE PUSH1 0x22 PUSH1 0x4 MSTORE PUSH1 0x24 PUSH1 0x0 REVERT JUMPDEST PUSH32 0x4E487B7100000000000000000000000000000000000000000000000000000000 PUSH1 0x0 MSTORE PUSH1 0x32 PUSH1 0x4 MSTORE PUSH1 0x24 PUSH1 0x0 REVERT JUMPDEST PUSH32 0x4E487B7100000000000000000000000000000000000000000000000000000000 PUSH1 0x0 MSTORE PUSH1 0x41 PUSH1 0x4 MSTORE PUSH1 0x24 PUSH1 0x0 REVERT JUMPDEST PUSH1 0x0 DUP1 REVERT JUMPDEST PUSH1 0x0 PUSH1 0x1F NOT PUSH1 0x1F DUP4 ADD AND SWAP1 POP SWAP2 SWAP1 POP JUMP JUMPDEST PUSH1 0x0 DUP2 PUSH1 0x1 SHR SWAP1 POP SWAP2 SWAP1 POP JUMP JUMPDEST PUSH32 0x45434453413A20696E76616C6964207369676E61747572650000000000000000 PUSH1 0x0 DUP3 ADD MSTORE POP JUMP JUMPDEST PUSH32 0x537472696E67733A20686578206C656E67746820696E73756666696369656E74 PUSH1 0x0 DUP3 ADD MSTORE POP JUMP JUMPDEST PUSH32 0x45524332303A207472616E7366657220746F20746865207A65726F2061646472 PUSH1 0x0 DUP3 ADD MSTORE PUSH32 0x6573730000000000000000000000000000000000000000000000000000000000 PUSH1 0x20 DUP3 ADD MSTORE POP JUMP JUMPDEST PUSH32 0x4552433230566F7465733A20626C6F636B206E6F7420796574206D696E656400 PUSH1 0x0 DUP3 ADD MSTORE POP JUMP JUMPDEST PUSH32 0x5061757361626C653A206E6F7420706175736564000000000000000000000000 PUSH1 0x0 DUP3 ADD MSTORE POP JUMP JUMPDEST PUSH32 0x4552433230566F7465733A207369676E61747572652065787069726564000000 PUSH1 0x0 DUP3 ADD MSTORE POP JUMP JUMPDEST PUSH32 0x45434453413A20696E76616C6964207369676E6174757265206C656E67746800 PUSH1 0x0 DUP3 ADD MSTORE POP JUMP JUMPDEST PUSH32 0x4552433230566F7465733A20696E76616C6964206E6F6E636500000000000000 PUSH1 0x0 DUP3 ADD MSTORE POP JUMP JUMPDEST PUSH32 0x45524332303A20617070726F766520746F20746865207A65726F206164647265 PUSH1 0x0 DUP3 ADD MSTORE PUSH32 0x7373000000000000000000000000000000000000000000000000000000000000 PUSH1 0x20 DUP3 ADD MSTORE POP JUMP JUMPDEST PUSH32 0x1901000000000000000000000000000000000000000000000000000000000000 PUSH1 0x0 DUP3 ADD MSTORE POP JUMP JUMPDEST PUSH32 0x45524332305065726D69743A206578706972656420646561646C696E65000000 PUSH1 0x0 DUP3 ADD MSTORE POP JUMP JUMPDEST PUSH32 0x45524332303A207472616E7366657220616D6F756E7420657863656564732062 PUSH1 0x0 DUP3 ADD MSTORE PUSH32 0x616C616E63650000000000000000000000000000000000000000000000000000 PUSH1 0x20 DUP3 ADD MSTORE POP JUMP JUMPDEST PUSH32 0x45434453413A20696E76616C6964207369676E6174757265202773272076616C PUSH1 0x0 DUP3 ADD MSTORE PUSH32 0x7565000000000000000000000000000000000000000000000000000000000000 PUSH1 0x20 DUP3 ADD MSTORE POP JUMP JUMPDEST PUSH32 0x5061757361626C653A2070617573656400000000000000000000000000000000 PUSH1 0x0 DUP3 ADD MSTORE POP JUMP JUMPDEST PUSH32 0x496E697469616C697A61626C653A20636F6E747261637420697320616C726561 PUSH1 0x0 DUP3 ADD MSTORE PUSH32 0x647920696E697469616C697A6564000000000000000000000000000000000000 PUSH1 0x20 DUP3 ADD MSTORE POP JUMP JUMPDEST PUSH32 0x45434453413A20696E76616C6964207369676E6174757265202776272076616C PUSH1 0x0 DUP3 ADD MSTORE PUSH32 0x7565000000000000000000000000000000000000000000000000000000000000 PUSH1 0x20 DUP3 ADD MSTORE POP JUMP JUMPDEST PUSH32 0x45524332305065726D69743A20696E76616C6964207369676E61747572650000 PUSH1 0x0 DUP3 ADD MSTORE POP JUMP JUMPDEST PUSH32 0x45524332303A207472616E7366657220616D6F756E7420657863656564732061 PUSH1 0x0 DUP3 ADD MSTORE PUSH32 0x6C6C6F77616E6365000000000000000000000000000000000000000000000000 PUSH1 0x20 DUP3 ADD MSTORE POP JUMP JUMPDEST PUSH32 0x4552433230566F7465733A20746F74616C20737570706C79207269736B73206F PUSH1 0x0 DUP3 ADD MSTORE PUSH32 0x766572666C6F77696E6720766F74657300000000000000000000000000000000 PUSH1 0x20 DUP3 ADD MSTORE POP JUMP JUMPDEST PUSH32 0x53616665436173743A2076616C756520646F65736E27742066697420696E2032 PUSH1 0x0 DUP3 ADD MSTORE PUSH32 0x3234206269747300000000000000000000000000000000000000000000000000 PUSH1 0x20 DUP3 ADD MSTORE POP JUMP JUMPDEST PUSH32 0x45524332303A207472616E736665722066726F6D20746865207A65726F206164 PUSH1 0x0 DUP3 ADD MSTORE PUSH32 0x6472657373000000000000000000000000000000000000000000000000000000 PUSH1 0x20 DUP3 ADD MSTORE POP JUMP JUMPDEST PUSH32 0x53616665436173743A2076616C756520646F65736E27742066697420696E2033 PUSH1 0x0 DUP3 ADD MSTORE PUSH32 0x3220626974730000000000000000000000000000000000000000000000000000 PUSH1 0x20 DUP3 ADD MSTORE POP JUMP JUMPDEST PUSH32 0x45524332303A20617070726F76652066726F6D20746865207A65726F20616464 PUSH1 0x0 DUP3 ADD MSTORE PUSH32 0x7265737300000000000000000000000000000000000000000000000000000000 PUSH1 0x20 DUP3 ADD MSTORE POP JUMP JUMPDEST PUSH32 0x416363657373436F6E74726F6C3A206163636F756E7420000000000000000000 PUSH1 0x0 DUP3 ADD MSTORE POP JUMP JUMPDEST PUSH32 0x45524332303A2064656372656173656420616C6C6F77616E63652062656C6F77 PUSH1 0x0 DUP3 ADD MSTORE PUSH32 0x207A65726F000000000000000000000000000000000000000000000000000000 PUSH1 0x20 DUP3 ADD MSTORE POP JUMP JUMPDEST PUSH32 0x206973206D697373696E6720726F6C6520000000000000000000000000000000 PUSH1 0x0 DUP3 ADD MSTORE POP JUMP JUMPDEST PUSH32 0x416363657373436F6E74726F6C3A2063616E206F6E6C792072656E6F756E6365 PUSH1 0x0 DUP3 ADD MSTORE PUSH32 0x20726F6C657320666F722073656C660000000000000000000000000000000000 PUSH1 0x20 DUP3 ADD MSTORE POP JUMP JUMPDEST PUSH32 0x45524332303A206D696E7420746F20746865207A65726F206164647265737300 PUSH1 0x0 DUP3 ADD MSTORE POP JUMP JUMPDEST PUSH2 0x560B DUP2 PUSH2 0x4CD9 JUMP JUMPDEST DUP2 EQ PUSH2 0x5616 JUMPI PUSH1 0x0 DUP1 REVERT JUMPDEST POP JUMP JUMPDEST PUSH2 0x5622 DUP2 PUSH2 0x4CF7 JUMP JUMPDEST DUP2 EQ PUSH2 0x562D JUMPI PUSH1 0x0 DUP1 REVERT JUMPDEST POP JUMP JUMPDEST PUSH2 0x5639 DUP2 PUSH2 0x4D01 JUMP JUMPDEST DUP2 EQ PUSH2 0x5644 JUMPI PUSH1 0x0 DUP1 REVERT JUMPDEST POP JUMP JUMPDEST PUSH2 0x5650 DUP2 PUSH2 0x4D75 JUMP JUMPDEST DUP2 EQ PUSH2 0x565B JUMPI PUSH1 0x0 DUP1 REVERT JUMPDEST POP JUMP JUMPDEST PUSH2 0x5667 DUP2 PUSH2 0x4D7F JUMP JUMPDEST DUP2 EQ PUSH2 0x5672 JUMPI PUSH1 0x0 DUP1 REVERT JUMPDEST POP JUMP JUMPDEST PUSH2 0x567E DUP2 PUSH2 0x4D8F JUMP JUMPDEST DUP2 EQ PUSH2 0x5689 JUMPI PUSH1 0x0 DUP1 REVERT JUMPDEST POP JUMP INVALID LOG2 PUSH5 0x6970667358 0x22 SLT KECCAK256 SWAP6 0xDA 0xE7 ADD DUP4 0x4A CODECOPY SWAP16 0xDF 0xC 0xDB GT PUSH18 0x247DC7E36110FA43B57E7550696FD63B56A9 MSIZE PUSH5 0x736F6C6343 STOP ADDMOD SMOD STOP CALLER "
		},
		"gasEstimates": {
			"creation": {
				"codeDepositCost": "4442000",
				"executionCost": "84680",
				"totalCost": "4526680"
			},
			"external": {
				"DEFAULT_ADMIN_ROLE()": "380",
				"DOMAIN_SEPARATOR()": "infinite",
				"PAUSER_ROLE()": "439",
				"allowance(address,address)": "infinite",
				"approve(address,uint256)": "infinite",
				"balanceOf(address)": "2887",
				"checkpoints(address,uint32)": "infinite",
				"decimals()": "455",
				"decreaseAllowance(address,uint256)": "infinite",
				"delegate(address)": "infinite",
				"delegateBySig(address,uint256,uint256,uint8,bytes32,bytes32)": "infinite",
				"delegates(address)": "infinite",
				"getPastTotalSupply(uint256)": "infinite",
				"getPastVotes(address,uint256)": "infinite",
				"getRoleAdmin(bytes32)": "infinite",
				"getVotes(address)": "infinite",
				"grantRole(bytes32,address)": "infinite",
				"hasRole(bytes32,address)": "3207",
				"increaseAllowance(address,uint256)": "infinite",
				"initialize()": "infinite",
				"name()": "infinite",
				"nonces(address)": "2958",
				"numCheckpoints(address)": "3147",
				"pause()": "infinite",
				"paused()": "2590",
				"permit(address,address,uint256,uint256,uint8,bytes32,bytes32)": "infinite",
				"renounceRole(bytes32,address)": "infinite",
				"revokeRole(bytes32,address)": "infinite",
				"supportsInterface(bytes4)": "774",
				"symbol()": "infinite",
				"totalSupply()": "2550",
				"transfer(address,uint256)": "infinite",
				"transferFrom(address,address,uint256)": "infinite",
				"unpause()": "infinite"
			},
			"internal": {
				"_afterTokenTransfer(address,address,uint256)": "infinite",
				"_beforeTokenTransfer(address,address,uint256)": "infinite",
				"_burn(address,uint256)": "infinite",
				"_mint(address,uint256)": "infinite"
			}
		},
		"methodIdentifiers": {
			"DEFAULT_ADMIN_ROLE()": "a217fddf",
			"DOMAIN_SEPARATOR()": "3644e515",
			"PAUSER_ROLE()": "e63ab1e9",
			"allowance(address,address)": "dd62ed3e",
			"approve(address,uint256)": "095ea7b3",
			"balanceOf(address)": "70a08231",
			"checkpoints(address,uint32)": "f1127ed8",
			"decimals()": "313ce567",
			"decreaseAllowance(address,uint256)": "a457c2d7",
			"delegate(address)": "5c19a95c",
			"delegateBySig(address,uint256,uint256,uint8,bytes32,bytes32)": "c3cda520",
			"delegates(address)": "587cde1e",
			"getPastTotalSupply(uint256)": "8e539e8c",
			"getPastVotes(address,uint256)": "3a46b1a8",
			"getRoleAdmin(bytes32)": "248a9ca3",
			"getVotes(address)": "9ab24eb0",
			"grantRole(bytes32,address)": "2f2ff15d",
			"hasRole(bytes32,address)": "91d14854",
			"increaseAllowance(address,uint256)": "39509351",
			"initialize()": "8129fc1c",
			"name()": "06fdde03",
			"nonces(address)": "7ecebe00",
			"numCheckpoints(address)": "6fcfff45",
			"pause()": "8456cb59",
			"paused()": "5c975abb",
			"permit(address,address,uint256,uint256,uint8,bytes32,bytes32)": "d505accf",
			"renounceRole(bytes32,address)": "36568abe",
			"revokeRole(bytes32,address)": "d547741f",
			"supportsInterface(bytes4)": "01ffc9a7",
			"symbol()": "95d89b41",
			"totalSupply()": "18160ddd",
			"transfer(address,uint256)": "a9059cbb",
			"transferFrom(address,address,uint256)": "23b872dd",
			"unpause()": "3f4ba83a"
		}
	},
	"abi": [
		{
			"inputs": [],
			"stateMutability": "nonpayable",
			"type": "constructor"
		},
		{
			"anonymous": false,
			"inputs": [
				{
					"indexed": true,
					"internalType": "address",
					"name": "owner",
					"type": "address"
				},
				{
					"indexed": true,
					"internalType": "address",
					"name": "spender",
					"type": "address"
				},
				{
					"indexed": false,
					"internalType": "uint256",
					"name": "value",
					"type": "uint256"
				}
			],
			"name": "Approval",
			"type": "event"
		},
		{
			"anonymous": false,
			"inputs": [
				{
					"indexed": true,
					"internalType": "address",
					"name": "delegator",
					"type": "address"
				},
				{
					"indexed": true,
					"internalType": "address",
					"name": "fromDelegate",
					"type": "address"
				},
				{
					"indexed": true,
					"internalType": "address",
					"name": "toDelegate",
					"type": "address"
				}
			],
			"name": "DelegateChanged",
			"type": "event"
		},
		{
			"anonymous": false,
			"inputs": [
				{
					"indexed": true,
					"internalType": "address",
					"name": "delegate",
					"type": "address"
				},
				{
					"indexed": false,
					"internalType": "uint256",
					"name": "previousBalance",
					"type": "uint256"
				},
				{
					"indexed": false,
					"internalType": "uint256",
					"name": "newBalance",
					"type": "uint256"
				}
			],
			"name": "DelegateVotesChanged",
			"type": "event"
		},
		{
			"anonymous": false,
			"inputs": [
				{
					"indexed": false,
					"internalType": "address",
					"name": "account",
					"type": "address"
				}
			],
			"name": "Paused",
			"type": "event"
		},
		{
			"anonymous": false,
			"inputs": [
				{
					"indexed": true,
					"internalType": "bytes32",
					"name": "role",
					"type": "bytes32"
				},
				{
					"indexed": true,
					"internalType": "bytes32",
					"name": "previousAdminRole",
					"type": "bytes32"
				},
				{
					"indexed": true,
					"internalType": "bytes32",
					"name": "newAdminRole",
					"type": "bytes32"
				}
			],
			"name": "RoleAdminChanged",
			"type": "event"
		},
		{
			"anonymous": false,
			"inputs": [
				{
					"indexed": true,
					"internalType": "bytes32",
					"name": "role",
					"type": "bytes32"
				},
				{
					"indexed": true,
					"internalType": "address",
					"name": "account",
					"type": "address"
				},
				{
					"indexed": true,
					"internalType": "address",
					"name": "sender",
					"type": "address"
				}
			],
			"name": "RoleGranted",
			"type": "event"
		},
		{
			"anonymous": false,
			"inputs": [
				{
					"indexed": true,
					"internalType": "bytes32",
					"name": "role",
					"type": "bytes32"
				},
				{
					"indexed": true,
					"internalType": "address",
					"name": "account",
					"type": "address"
				},
				{
					"indexed": true,
					"internalType": "address",
					"name": "sender",
					"type": "address"
				}
			],
			"name": "RoleRevoked",
			"type": "event"
		},
		{
			"anonymous": false,
			"inputs": [
				{
					"indexed": true,
					"internalType": "address",
					"name": "from",
					"type": "address"
				},
				{
					"indexed": true,
					"internalType": "address",
					"name": "to",
					"type": "address"
				},
				{
					"indexed": false,
					"internalType": "uint256",
					"name": "value",
					"type": "uint256"
				}
			],
			"name": "Transfer",
			"type": "event"
		},
		{
			"anonymous": false,
			"inputs": [
				{
					"indexed": false,
					"internalType": "address",
					"name": "account",
					"type": "address"
				}
			],
			"name": "Unpaused",
			"type": "event"
		},
		{
			"inputs": [],
			"name": "DEFAULT_ADMIN_ROLE",
			"outputs": [
				{
					"internalType": "bytes32",
					"name": "",
					"type": "bytes32"
				}
			],
			"stateMutability": "view",
			"type": "function"
		},
		{
			"inputs": [],
			"name": "DOMAIN_SEPARATOR",
			"outputs": [
				{
					"internalType": "bytes32",
					"name": "",
					"type": "bytes32"
				}
			],
			"stateMutability": "view",
			"type": "function"
		},
		{
			"inputs": [],
			"name": "PAUSER_ROLE",
			"outputs": [
				{
					"internalType": "bytes32",
					"name": "",
					"type": "bytes32"
				}
			],
			"stateMutability": "view",
			"type": "function"
		},
		{
			"inputs": [
				{
					"internalType": "address",
					"name": "owner",
					"type": "address"
				},
				{
					"internalType": "address",
					"name": "spender",
					"type": "address"
				}
			],
			"name": "allowance",
			"outputs": [
				{
					"internalType": "uint256",
					"name": "",
					"type": "uint256"
				}
			],
			"stateMutability": "view",
			"type": "function"
		},
		{
			"inputs": [
				{
					"internalType": "address",
					"name": "spender",
					"type": "address"
				},
				{
					"internalType": "uint256",
					"name": "amount",
					"type": "uint256"
				}
			],
			"name": "approve",
			"outputs": [
				{
					"internalType": "bool",
					"name": "",
					"type": "bool"
				}
			],
			"stateMutability": "nonpayable",
			"type": "function"
		},
		{
			"inputs": [
				{
					"internalType": "address",
					"name": "account",
					"type": "address"
				}
			],
			"name": "balanceOf",
			"outputs": [
				{
					"internalType": "uint256",
					"name": "",
					"type": "uint256"
				}
			],
			"stateMutability": "view",
			"type": "function"
		},
		{
			"inputs": [
				{
					"internalType": "address",
					"name": "account",
					"type": "address"
				},
				{
					"internalType": "uint32",
					"name": "pos",
					"type": "uint32"
				}
			],
			"name": "checkpoints",
			"outputs": [
				{
					"components": [
						{
							"internalType": "uint32",
							"name": "fromBlock",
							"type": "uint32"
						},
						{
							"internalType": "uint224",
							"name": "votes",
							"type": "uint224"
						}
					],
					"internalType": "struct ERC20VotesUpgradeable.Checkpoint",
					"name": "",
					"type": "tuple"
				}
			],
			"stateMutability": "view",
			"type": "function"
		},
		{
			"inputs": [],
			"name": "decimals",
			"outputs": [
				{
					"internalType": "uint8",
					"name": "",
					"type": "uint8"
				}
			],
			"stateMutability": "view",
			"type": "function"
		},
		{
			"inputs": [
				{
					"internalType": "address",
					"name": "spender",
					"type": "address"
				},
				{
					"internalType": "uint256",
					"name": "subtractedValue",
					"type": "uint256"
				}
			],
			"name": "decreaseAllowance",
			"outputs": [
				{
					"internalType": "bool",
					"name": "",
					"type": "bool"
				}
			],
			"stateMutability": "nonpayable",
			"type": "function"
		},
		{
			"inputs": [
				{
					"internalType": "address",
					"name": "delegatee",
					"type": "address"
				}
			],
			"name": "delegate",
			"outputs": [],
			"stateMutability": "nonpayable",
			"type": "function"
		},
		{
			"inputs": [
				{
					"internalType": "address",
					"name": "delegatee",
					"type": "address"
				},
				{
					"internalType": "uint256",
					"name": "nonce",
					"type": "uint256"
				},
				{
					"internalType": "uint256",
					"name": "expiry",
					"type": "uint256"
				},
				{
					"internalType": "uint8",
					"name": "v",
					"type": "uint8"
				},
				{
					"internalType": "bytes32",
					"name": "r",
					"type": "bytes32"
				},
				{
					"internalType": "bytes32",
					"name": "s",
					"type": "bytes32"
				}
			],
			"name": "delegateBySig",
			"outputs": [],
			"stateMutability": "nonpayable",
			"type": "function"
		},
		{
			"inputs": [
				{
					"internalType": "address",
					"name": "account",
					"type": "address"
				}
			],
			"name": "delegates",
			"outputs": [
				{
					"internalType": "address",
					"name": "",
					"type": "address"
				}
			],
			"stateMutability": "view",
			"type": "function"
		},
		{
			"inputs": [
				{
					"internalType": "uint256",
					"name": "blockNumber",
					"type": "uint256"
				}
			],
			"name": "getPastTotalSupply",
			"outputs": [
				{
					"internalType": "uint256",
					"name": "",
					"type": "uint256"
				}
			],
			"stateMutability": "view",
			"type": "function"
		},
		{
			"inputs": [
				{
					"internalType": "address",
					"name": "account",
					"type": "address"
				},
				{
					"internalType": "uint256",
					"name": "blockNumber",
					"type": "uint256"
				}
			],
			"name": "getPastVotes",
			"outputs": [
				{
					"internalType": "uint256",
					"name": "",
					"type": "uint256"
				}
			],
			"stateMutability": "view",
			"type": "function"
		},
		{
			"inputs": [
				{
					"internalType": "bytes32",
					"name": "role",
					"type": "bytes32"
				}
			],
			"name": "getRoleAdmin",
			"outputs": [
				{
					"internalType": "bytes32",
					"name": "",
					"type": "bytes32"
				}
			],
			"stateMutability": "view",
			"type": "function"
		},
		{
			"inputs": [
				{
					"internalType": "address",
					"name": "account",
					"type": "address"
				}
			],
			"name": "getVotes",
			"outputs": [
				{
					"internalType": "uint256",
					"name": "",
					"type": "uint256"
				}
			],
			"stateMutability": "view",
			"type": "function"
		},
		{
			"inputs": [
				{
					"internalType": "bytes32",
					"name": "role",
					"type": "bytes32"
				},
				{
					"internalType": "address",
					"name": "account",
					"type": "address"
				}
			],
			"name": "grantRole",
			"outputs": [],
			"stateMutability": "nonpayable",
			"type": "function"
		},
		{
			"inputs": [
				{
					"internalType": "bytes32",
					"name": "role",
					"type": "bytes32"
				},
				{
					"internalType": "address",
					"name": "account",
					"type": "address"
				}
			],
			"name": "hasRole",
			"outputs": [
				{
					"internalType": "bool",
					"name": "",
					"type": "bool"
				}
			],
			"stateMutability": "view",
			"type": "function"
		},
		{
			"inputs": [
				{
					"internalType": "address",
					"name": "spender",
					"type": "address"
				},
				{
					"internalType": "uint256",
					"name": "addedValue",
					"type": "uint256"
				}
			],
			"name": "increaseAllowance",
			"outputs": [
				{
					"internalType": "bool",
					"name": "",
					"type": "bool"
				}
			],
			"stateMutability": "nonpayable",
			"type": "function"
		},
		{
			"inputs": [],
			"name": "initialize",
			"outputs": [],
			"stateMutability": "nonpayable",
			"type": "function"
		},
		{
			"inputs": [],
			"name": "name",
			"outputs": [
				{
					"internalType": "string",
					"name": "",
					"type": "string"
				}
			],
			"stateMutability": "view",
			"type": "function"
		},
		{
			"inputs": [
				{
					"internalType": "address",
					"name": "owner",
					"type": "address"
				}
			],
			"name": "nonces",
			"outputs": [
				{
					"internalType": "uint256",
					"name": "",
					"type": "uint256"
				}
			],
			"stateMutability": "view",
			"type": "function"
		},
		{
			"inputs": [
				{
					"internalType": "address",
					"name": "account",
					"type": "address"
				}
			],
			"name": "numCheckpoints",
			"outputs": [
				{
					"internalType": "uint32",
					"name": "",
					"type": "uint32"
				}
			],
			"stateMutability": "view",
			"type": "function"
		},
		{
			"inputs": [],
			"name": "pause",
			"outputs": [],
			"stateMutability": "nonpayable",
			"type": "function"
		},
		{
			"inputs": [],
			"name": "paused",
			"outputs": [
				{
					"internalType": "bool",
					"name": "",
					"type": "bool"
				}
			],
			"stateMutability": "view",
			"type": "function"
		},
		{
			"inputs": [
				{
					"internalType": "address",
					"name": "owner",
					"type": "address"
				},
				{
					"internalType": "address",
					"name": "spender",
					"type": "address"
				},
				{
					"internalType": "uint256",
					"name": "value",
					"type": "uint256"
				},
				{
					"internalType": "uint256",
					"name": "deadline",
					"type": "uint256"
				},
				{
					"internalType": "uint8",
					"name": "v",
					"type": "uint8"
				},
				{
					"internalType": "bytes32",
					"name": "r",
					"type": "bytes32"
				},
				{
					"internalType": "bytes32",
					"name": "s",
					"type": "bytes32"
				}
			],
			"name": "permit",
			"outputs": [],
			"stateMutability": "nonpayable",
			"type": "function"
		},
		{
			"inputs": [
				{
					"internalType": "bytes32",
					"name": "role",
					"type": "bytes32"
				},
				{
					"internalType": "address",
					"name": "account",
					"type": "address"
				}
			],
			"name": "renounceRole",
			"outputs": [],
			"stateMutability": "nonpayable",
			"type": "function"
		},
		{
			"inputs": [
				{
					"internalType": "bytes32",
					"name": "role",
					"type": "bytes32"
				},
				{
					"internalType": "address",
					"name": "account",
					"type": "address"
				}
			],
			"name": "revokeRole",
			"outputs": [],
			"stateMutability": "nonpayable",
			"type": "function"
		},
		{
			"inputs": [
				{
					"internalType": "bytes4",
					"name": "interfaceId",
					"type": "bytes4"
				}
			],
			"name": "supportsInterface",
			"outputs": [
				{
					"internalType": "bool",
					"name": "",
					"type": "bool"
				}
			],
			"stateMutability": "view",
			"type": "function"
		},
		{
			"inputs": [],
			"name": "symbol",
			"outputs": [
				{
					"internalType": "string",
					"name": "",
					"type": "string"
				}
			],
			"stateMutability": "view",
			"type": "function"
		},
		{
			"inputs": [],
			"name": "totalSupply",
			"outputs": [
				{
					"internalType": "uint256",
					"name": "",
					"type": "uint256"
				}
			],
			"stateMutability": "view",
			"type": "function"
		},
		{
			"inputs": [
				{
					"internalType": "address",
					"name": "recipient",
					"type": "address"
				},
				{
					"internalType": "uint256",
					"name": "amount",
					"type": "uint256"
				}
			],
			"name": "transfer",
			"outputs": [
				{
					"internalType": "bool",
					"name": "",
					"type": "bool"
				}
			],
			"stateMutability": "nonpayable",
			"type": "function"
		},
		{
			"inputs": [
				{
					"internalType": "address",
					"name": "sender",
					"type": "address"
				},
				{
					"internalType": "address",
					"name": "recipient",
					"type": "address"
				},
				{
					"internalType": "uint256",
					"name": "amount",
					"type": "uint256"
				}
			],
			"name": "transferFrom",
			"outputs": [
				{
					"internalType": "bool",
					"name": "",
					"type": "bool"
				}
			],
			"stateMutability": "nonpayable",
			"type": "function"
		},
		{
			"inputs": [],
			"name": "unpause",
			"outputs": [],
			"stateMutability": "nonpayable",
			"type": "function"
		}
	]
}